:020000040800F2
:1000000018120020590100088B0100088D0100081A
:100010008F01000891010008930100080000000012
:100020000000000000000000000000009501000832
:100030009701000800000000990100086D7E00088B
:100040009D0100089D0100089D0100089D01000818
:100050009D0100089D0100089D0100089D01000808
:100060009D0100089D0100089D0100089D010008F8
:100070009D0100089D0100089D0100089D010008E8
:100080009D0100089D0100089D0100089D010008D8
:10009000D50000209D0100089D0100089D01000879
:1000A000951200089D0100089D0100087D8400084C
:1000B0009585000800F002F800F03EF80CA030C86A
:1000C000083824182D18A246671EAB4654465D46D4
:1000D000AC4201D100F030F87E460F3E0FCCB64660
:1000E0000126334200D0FB1AA246AB4633431847E1
:1000F000CC8E0000FC8E0000103A02D378C878C184
:10010000FAD8520701D330C830C101D504680C6059
:10011000704700000023002400250026103A01D378
:1001200078C1FBD8520700D330C100D50B607047AF
:100130001FB51FBD10B510BD00F09AFA1146FFF7AC
:10014000F7FF08F063FE00F0B2FA03B4FFF7F2FF26
:1001500003BC00F0B9FA0000144880F30888144882
:100160000168090E134A9142FFD1134813490160F7
:100170001348144901601448124901600E4813499C
:1001800001601348804713480047FEE7FEE7FEE79B
:10019000FEE7FEE7FEE7FEE7FEE7FEE7FEE700001C
:1001A0000D480E490E4A0F4B7047000018120020F0
:1001B000040000001F0000001C10024000000004AA
:1001C00018680040120000001C6800400000000099
:1001D0007D7F0008B5000008180C002018120020D0
:1001E000180E0020180E002001E004C0091F042989
:1001F000FBD28B0701D50280801CC90700D002709A
:10020000704700290BD0C30702D00270401C491E62
:10021000022904D3830702D50280801C891EE3E7EC
:100220000022EEE70022DFE7002203098B422CD3F5
:10023000030A8B4211D300239C464EE003460B4336
:100240003CD4002243088B4231D303098B421CD398
:10025000030A8B4201D394463FE0C3098B4201D38A
:10026000CB01C01A524183098B4201D38B01C01AC2
:10027000524143098B4201D34B01C01A5241030939
:100280008B4201D30B01C01A5241C3088B4201D3E8
:10029000CB00C01A524183088B4201D38B00C01A95
:1002A000524143088B4201D34B00C01A5241411ABC
:1002B00000D201465241104670475DE0CA0F00D09F
:1002C0004942031000D34042534000229C46030998
:1002D0008B422DD3030A8B4212D3FC22890112BA1E
:1002E000030A8B420CD3890192118B4208D38901F6
:1002F00092118B4204D389013AD0921100E089090E
:10030000C3098B4201D3CB01C01A524183098B42EE
:1003100001D38B01C01A524143098B4201D34B01D7
:10032000C01A524103098B4201D30B01C01A52413A
:10033000C3088B4201D3CB00C01A524183088B42C1
:1003400001D38B00C01A5241D9D243088B4201D34A
:100350004B00C01A5241411A00D201466346524135
:100360005B10104601D34042002B00D54942704734
:1003700063465B1000D3404201B50020C046C04632
:1003800002BD7047704770470346CA02400D10B562
:1003900010430A1504D00124E4072043002A05DB9A
:1003A0000A4CA21A04D4D040FF2A00DD002010BD60
:1003B0004A00002B01D0012000E00020101801228B
:1003C0005205D042F2D8C817C04310BD1E04000029
:1003D0001F22030C02D10F22000402D0030E03D00F
:1003E00004E00020014670470002083A030F01D1E3
:1003F0000001121F830F01D18000921E002801DB33
:100400004000521E120551184205C01241181046F4
:100410007047C10FC90700D0404201229207114323
:10042000D6E701218907D3E7F0B58B4C0F092546A4
:1004300089B0BD437BD01D092646AE43FAD00E4697
:100440005E402740F60F3E43254071D024012142F3
:10045000FBD0FF24AD19A4042D1B039501252D0508
:10046000DB02DB0AC9022B43C90A29431E01090129
:10047000040F130F050121431701880B82039143D9
:100480002D098C46A90B1E438A039543B30B9A038F
:1004900096433F09BA0B9403A74302962E467E4328
:1004A0000497B6464E19D7190C4601965443059742
:1004B0007E43371B7646BF1B3601B646BE0B361948
:1004C00000967646BC043719009C01D3641C009446
:1004D0006400002F01D001263443029E049F75431F
:1004E00066467E430496760034196E0034190094F3
:1004F000029C019E1C196643751BAE460694654618
:100500004519059C05956C43594375460891691A30
:100510000191049E01465143A41B0491611A009C61
:100520000791E10605D061090122114302E072E062
:100530006EE06109089D00272C0A2D066918049DAC
:100540007C412A0A2D066918019D6241AC0DAD025D
:100550006D185441079A910D920255196141029A02
:10056000644658435443069B059A5A43121A131B78
:100570009A0E9B015B187A41010B0005C31851418B
:10058000220A200644195A419A4200D2491C0120ED
:100590004002814203D315230226F64302E01423CE
:1005A0000326F6432020C51AA9401746AF40DA407B
:1005B0000A4320460399D8400914731819055118A5
:1005C000039A3843D2075140AC4009D001229440ED
:1005D00006D30022401C5141002C01D140084000AC
:1005E0001E4A934212D3012203989206904207DBDF
:1005F0000520400709181A480143C012414004E091
:10060000032040070818C10FC907002009B0F0BD3A
:100610000020F107FAE705180C464C4111486D42DD
:10062000A04115D394181A465A410E48644290418D
:100630000ED301204A004005824209D35A0082426B
:1006400006D35940C90F084AC90700201143DDE706
:1006500000200649DAE700000000FF07FE0700005F
:10066000FFFFFF7F0000E0FF0000F07F0000F87F49
:10067000754600F025F8AE46050069465346C008A9
:10068000C000854618B020B5FFF78AFD60BC002782
:100690004908B6460026C0C5C0C5C0C5C0C5C0C54E
:1006A000C0C5C0C5C0C5403D49008D46704710B5A6
:1006B0000446C046C0462046FFF747FD10BD000077
:1006C00000487047B80B002001491820ABBEFEE778
:1006D000260002007047000003B40148019001BDEC
:1006E0007900002003B40148019001BD01020020FF
:1006F00003B40148019001BD3903002042690A4357
:1007000042617047002904D0426801231A434260C5
:1007100003E042685208520042607047002904D04A
:10072000826804231A43826003E0826804239A43A8
:1007300082607047002A03D083680B43836002E025
:1007400083688B438360704710B502460020506871
:10075000C00BC0030C684B6823431843506090687B
:10076000044B18400C694B6923438C68234318439E
:10077000906010BD800000FF70B5144600224268F2
:100780000F26B6021546B5432A469D022A4342600B
:10079000202905DAC56801268E403543C5600CE086
:1007A000FF2904D1C568054E3543C56005E0FA2927
:1007B00003D1C5682D0C2D04C56070BDFFCF0000AE
:1007C00000206449486164480078C007C00F0028D1
:1007D00048D161480078C006C00F0028F8D15E48B3
:1007E00000780007C00F0028F2D101205B49887211
:1007F00000205B49C87157484079022832D008462A
:10080000007804218843564908700846007808217A
:10081000884353490870012048704E4840790428A5
:1008200021D04C48407905281DD04E48807840089A
:100830004000401C4B4988704948007840084000FF
:10084000401C474908700020474988834748007882
:1008500002218843454908700846007804218843EE
:100860004249087075E03C4800788006C00F0028B7
:1008700018D03B48007840084000401C38490870B8
:100880000020394988833A48007FF021884320308E
:100890003749087733484078402188434030314910
:1008A000487056E03348007C142825DA2F484078F9
:1008B000012821D02B48407904218843001D294973
:1008C00048712B48007FF021884310302849087771
:1008D00002202649487008460078042188432349AD
:1008E00008701F48007840084000401C1C490870F0
:1008F00000201D4988832CE000201749C871087228
:10090000487201201C494870002018490884084694
:10091000407801281DD00846007802218843801CB9
:10092000124908700846C07802218843801C0F498C
:10093000C8700120487000204860072008770848E8
:10094000007840084000401C054908700020064916
:1009500088837047040B0020F20A0020A50A0020BB
:100960007A04002082040020260A0020580A002071
:10097000800A0020840B0020E80A00201948007833
:10098000C007C00F00282BD116480078C006C00F42
:10099000002825D1134800780007C00F00281FD178
:1009A00011480078C006C00F00280DD00E4800780E
:1009B0000821884308300C49087008460078042153
:1009C0008843094908700BE00748007808218843EC
:1009D00005490870084600780421884302490870D8
:1009E00070470000F20A00207A0400201E480078B8
:1009F000C007C00F002835D11B480078C006C00FC3
:100A000000282FD1184800788006C00F002829D16F
:100A1000154800788007C00F002823D112480078BD
:100A20000007C00F00281DD11048407902280DD0C2
:100A30000F48007804218843001D0D4908700846BE
:100A40000078082188430A4908700BE008480078BC
:100A50000421884306490870084600780821884325
:100A60000349087070470000F20A0020040B0020C0
:100A70007A04002000B5FB4800781021884310302C
:100A8000F8490870F8480078C007C00F00284AD11C
:100A9000F5480078C006C00F0028F8D10846007855
:100AA0000007C00F00287DD00020F0498861486110
:100AB0000120EF4988720020EA49C871EB4840796B
:100AC000042831D0E948407905282DD0E94800783C
:100AD00002218843E74908700846007804218843CA
:100AE000E449087000204860087702204870E24816
:100AF000807840084000401CDF498870DB4840791E
:100B0000022806D0DD48007FF02188434030DB49D1
:100B10000877D448007840084000401CD14908704C
:100B20000020D7498883C8E1CF4800788006C00FED
:100B3000002818D0CB48007840084000401CC94924
:100B400008700020CE498883CB48407840218843F4
:100B50004030C9494870C948007FF021884320309F
:100B6000C6490877A9E1C748007C142827DAC1489C
:100B70004078012823D0C048C07910218843103024
:100B8000BD49C871BD48007FF02188431030BB4982
:100B900008770220B7494870084600780221884348
:100BA000B44900E03EE10870AE48007840084000DB
:100BB000401CAC4908700020B14988837DE10020C9
:100BC000A949C871087248720120AF494870A94804
:100BD00000788007C00F002828D1A648407F002851
:100BE00024D1A448807F002820D1A2480078022187
:100BF0008843801C9F490870012048700020487776
:100C0000887748618861486008770846C078022183
:100C100088439849C8709348007840084000401CB9
:100C20009049087000209649888346E10020914948
:100C300008840846407803280BD00846407F0028E7
:100C400003D10846807F002840D08A48007F0928C9
:100C50003CD18848007F072807D187488079202128
:100C6000884320308449887122E0012083494876F6
:100C7000854948707F48C078022188437D49C87003
:100C80000846407F0B2805D10020087708464069B8
:100C9000486006E07748807F764908770846806993
:100CA0004860754840794021884340307249487116
:100CB0000120704948706B48007840084000401C93
:100CC0006849087000206E498883F6E06948007F13
:100CD000002833D16748C078022188436549C8702D
:100CE0000B2048770846406848610846807F002806
:100CF00006DD0846806948600846807F087704E082
:100D000000205C494860012008775648007802219D
:100D10008843801C53490870574880788021884355
:100D20008030554988704F48007840084000401C8A
:100D30004C490870002052498883BEE04D48007F2E
:100D4000062828DA4B48007F4A49887708464068D9
:100D500088610846C078022188434649C870084621
:100D60000078022188434349087000204860092028
:100D70000877414840792021884320303E49487116
:100D80003848007840084000401C36490870002070
:100D90003B49888391E03748007F072821D13548B7
:100DA000C078022188433349C87008460078022180
:100DB000884330490870FA204860092008772E4897
:100DC00080794021884340302B498871254800783C
:100DD00040084000401C23490870002028498883AF
:100DE0006BE02448C078022188432249C870002063
:100DF0008877487748618861FA2048600920087739
:100E00001D48C0782021884320301B49C8701548F0
:100E1000007840084000401C124908700020184922
:100E200088834AE00F4800784007C00F002844D06C
:100E300000200E498861486101200D4988720B48E5
:100E4000407904282FD00948407905282BD005483F
:100E5000C07802281ADA0348C078401C0149C870DB
:100E600017E000007A040020F20A0020040B0020A2
:100E7000A50A0020580A002082040020800A0020D1
:100E8000260A0020840B0020E80A002000203949AF
:100E9000C8700020374988803748407DF821884352
:100EA0000830354948753348007840084000401CF8
:100EB0003049087000203149888331480079012881
:100EC0003AD12D48407DC008012835D12948808875
:100ED000401C80B2274988802A49884239DD002099
:100EE000244988802448407DF82188432249487558
:100EF0002048C0781F4988700846C078002807D16C
:100F0000214840781021884310301F49487020E064
:100F10001848C078012807D11B4880794008400054
:100F2000401C1949887114E01748407820218843F3
:100F30002030154948700CE011480079012805D08F
:100F40000D48407DF82188430B4948750020094928
:100F500088800120074948700846007804218843AA
:100F60000449087008460078082188430149087040
:100F700000BD00007A040020800A0020260A00201C
:100F8000040B0020C40900008204002070B5044650
:100F9000204607F032FF0546012D02D0052D06D16F
:100FA00002E0FFF7EBFC03E0FFF70AFC00E000BF04
:100FB00000BF70BD70B50446204607F01EFF054611
:100FC000012D02D1FFF712FD00E000BF00BF70BD90
:100FD00070B50446204607F010FF0546072D02D1E4
:100FE000FFF748FD00E000BF00BF70BD10B58C00EA
:100FF000034610331A5110BD70B50446E0688047AF
:101000000546E0784007400F002806DD2088824929
:10101000884202DA2088401C20806089A84209D0DA
:101020002079401CC0B220710F2805DB65810020AB
:10103000207101E000202071E0784007400F03009C
:1010400007F038FD06042661B0E7D0E76089218902
:10105000884217DB6089E188884213DCA078F021A0
:101060008843A0702069002802D020462169884763
:1010700000202080A07800090001401CA070012001
:10108000E07004E0A078F0218843A030A070C0E0B8
:1010900060892189884203DB6089E18888420FDD0D
:1010A000A078F02188431030A0706069002802D039
:1010B000204661698847002020800220E07021E0FE
:1010C00020885649884210DDA078F02188435030AE
:1010D000A070606A002802D02046616A8847606A72
:1010E00000280FD00520E0700CE020880A2809DDD8
:1010F000A078F02188437030A070E06A002801D009
:101100000520E07085E060892189884221DB6089C3
:10111000E18888421DDCA0780007000F0F2808DA5C
:10112000A07800090001A178491C0907090F0843AC
:10113000A070A078F02188432030A070A06900281A
:1011400002D02046A1698847002020800320E0705B
:1011500027E02088FF212D31884222DDA07800077A
:10116000000F01280BD1A078F02188433030A07007
:10117000E069002813D02046E16988470FE0A07895
:101180000007000F02280AD1A078F02188434030E0
:10119000A070206A002802D02046216A88470020DB
:1011A000E07036E060892189884203DB6089E1884C
:1011B000884216DDA078F02188431030A070606965
:1011C000002802D02046616988472088FF212D3100
:1011D000884204DA002020800220E07001E0002034
:1011E000E07016E06089218988420FDB6089E18820
:1011F00088420BDCA078F02188437030A070E06A50
:10120000002805D02046E16A884701E00020E07010
:1012100000BF00BF70BD0000FAFF0000B80B000067
:10122000F8B504460D4616461F4638212046FEF7FF
:10123000F9FFA078F0218843A030A070E560E06855
:10124000804760812681E780F8BD0000014609489B
:10125000026805E08A4202D10020C0437047526B09
:10126000002AF7D103480068486302480160002063
:10127000F4E700005004002010B50548046803E0BE
:101280002046FFF7B9FE646B002CF9D110BD0000B9
:101290005004002008B50120000503F003FC0028DD
:1012A00028D00120000503F0F7FB102000F086FB9A
:1012B00001281FD100202649086000220B21254863
:1012C00003F0FFFD0121C9026846018003218170FE
:1012D0001021C17069461F4803F084FD0121C90235
:1012E0001C4803F01BFE1C48007840218843403016
:1012F000194908700120C00403F0D4FB002826D04F
:101300000120C00403F0C8FB0C2000F057FB0128AB
:101310001DD1002011490860072201210D4803F06A
:10132000D0FD022168460180032181701021C17027
:101330006946084803F056FD0221064803F0EEFD19
:101340000748007804218843001D0549087008BD3E
:101350004000004000040048F00900204004004024
:10136000D809002010B50246002A01D1104812E029
:10137000042A02D10E48001D0DE0082A02D10C48B3
:101380000C3008E00C2A02D10948083803E0102A82
:1013900001D10748001F002904D00368012423431A
:1013A000036003E003685B085B00036010BD00009E
:1013B000083C01400021024A821811607047000079
:1013C000003C014010B501460020002901D10F4A20
:1013D00012E0042902D10D4A121D0DE0082902D1A4
:1013E0000A4A0C3208E00C2902D1084A083A03E004
:1013F000102901D1054A121F13680124A4072340B4
:10140000002B01D0204600E0002010BD083C014028
:1014100030B502460023002A01D1224812E0042AF6
:1014200002D12048001D0DE0082A02D11D480C30D1
:1014300008E00C2A02D11B48083803E0102A01D129
:101440001848001F0C2A0ED0102A0CD00368164C26
:101450002340CD688C682C430D692C434D692C4387
:10146000234303601CE00C68302C07D10D4C083C72
:10147000A46910252C430B4D083DAC6103680A4C50
:1014800023404D680C682C438D682C43CD682C4359
:101490008D692C430D692C434D692C432343036014
:1014A00030BD0000083C01400240E03F4A8BE12390
:1014B000DB009A4209DA4278002A03DD4278521EA4
:1014C00042700CE00022027009E04278521CD2B255
:1014D0004270142A03DD1422427001220270704708
:1014E0007FB505460E4614467078C007C00F002829
:1014F00024D1012003F088FB288B8B4988420CDA29
:10150000A088642802DAA088401CA080E088002817
:101510000FDDE088401EE0800BE0E088642802DAFE
:10152000E088401CE080A088002802DDA088401EE2
:10153000A0807078022188437070F4E07078800792
:10154000C00F002810D1012003F05EFBA088E188C5
:10155000884203DDE1200001A08401E0288BA08403
:101560000020A080E080D9E0A08CFEF75AFF6F4AEF
:101570006F4B01910090FEF757FF03910290FEF729
:1015800003FF6083A08CFEF74CFF6A4A6A4B01910F
:101590000090FEF749FF03910290FEF7F5FEE0820E
:1015A000608BE084A08CFEF73CFF624A634B0191A4
:1015B0000090FEF739FF03910290FEF7E5FEA0834D
:1015C000A08C5F49884203DAA08CC830E08302E037
:1015D0005B48C830E083A08CC82803DDA08CC838E5
:1015E000208401E000202084288B618B88421EDD4E
:1015F000002060822089401C80B22081282812DDD2
:10160000607800280BDD208A401C80B220827D217A
:10161000C900884205DD00206070208201E00020C2
:101620006070282020810020E080A08036E0288B98
:10163000A18B88421FDD00202082E088401C80B200
:10164000E080282813DD607801280CDD608A401CCA
:1016500080B260827D21C900884206DD0120607071
:101660000020608201E0012060702820E0800020DE
:101670002081A08012E0002020826082A088401C8F
:1016800080B2A080282806DD6078042801D00220DE
:1016900060702820A08000202081E0802078C00792
:1016A000C00F002824D1288B1921490188421DDA56
:1016B0006089401C608160892249884209DD0220DE
:1016C0006070207840084000401C2070002060813D
:1016D0000EE06089401C80B260811B49884202DDB7
:1016E0000420607004E00220607001E0002060814E
:1016F000288BE18B88420FDA288B218C88420BDD06
:10170000A089401C80B2A0811049884206DD288B48
:10171000A0840846A08101E00020A0817078022109
:101720008843801C70707FBD480D0000F6285C8FD8
:10173000C2F5E83F9A9999999999E93F9999D93FC2
:10174000370F000088130000C4090000DC0500000A
:101750000B789B07DB0F002B02D11423CB7001E029
:101760003223CB7083795B1CDBB28371052B10DDD8
:101770000378DB07DB0F002B04DD03785B085B00DD
:10178000037004E003785B085B005B1C03700023BC
:101790008371704770B504460D4616462078C00721
:1017A000C00F002858D1E079401CC0B2E071022877
:1017B00012DDE079052806DA002003F047FA01205F
:1017C00003F056FA4FE0002003F040FA002003F047
:1017D0004FFA0620E07146E0012003F037FA0020BE
:1017E00003F046FAE07901283DDD3089F082308946
:1017F00019214901884215DA207A401CC0B22072B2
:10180000E97888420BDD28788007C00F002802D0D5
:101810000020207201E00120E070E87820720020B2
:10182000607220E03089104988420CDD607A401CEB
:10183000C0B26072142803DD0220E070E8786072A4
:10184000002020720FE0002060722072E0780228F1
:1018500009D00020E07006E00020E07103F0F6F906
:10186000002003F005FA70BDAC0D000010B5044671
:1018700005F06AFE01280DD16078401CC0B260708E
:10188000142812DD14206070207840084000401CAD
:1018900020700AE06078002803DD607840106070F6
:1018A00003E0207840084000207010BD02789207C5
:1018B000D20F002A13D08A8B5D23DB009A420BDD06
:1018C0004279D22A0DDA4279521C42714279C82AF1
:1018D00007D10222427004E00022427101E000229E
:1018E0004271704700B589B00121480405F002FC3F
:1018F0000121880405F0FEFB402168460184002197
:1019000008A8C1700321817008A90920C00603F04E
:1019100069FA042168460184002108A8C1700321E6
:10192000817008A9244803F05DFA0121C80305F07D
:1019300001FC0C20FFF73EFD30200190FF2001301C
:10194000029000200390049001204004059008209C
:101950000690C003079001A90C20FFF759FD102045
:10196000FFF728FD30200190802002900020039096
:10197000049001204004059008200690C0030790C1
:1019800001A91020FFF744FD0821202006F02CF9C2
:101990000120000503F080F80120C00403F07CF86A
:1019A00003F052F801210C20FFF7DCFC012110208C
:1019B000FFF7D8FC09B000BD0004004870B504462C
:1019C00002252046FFF7FEFC002801D1002500E09B
:1019D0000125284670BD000010B5264A2649274833
:1019E000FFF77EFD24488079030007F063F80504C3
:1019F0000C112A3435002248FFF738FF1F492148CF
:101A0000FFF754FD29E001F0D7FC02F0EBFF24E0E2
:101A100003F0A2F81C491D4800F0B3F917491C480F
:101A200000F044F81B4800F04FF91B4B184A1B49C3
:101A30001B4800F0C1F9184A1A491B4800F0DEFAA9
:101A40000BE00E4A0B491548FFF782FE0B4913487D
:101A5000FFF72CFF01E000E000BF00BF06488079DF
:101A6000401CC0B204498871042801DD002088713F
:101A700010BD0000C00A0020240B0020380B0020FD
:101A80006C0400206E040020B00A002070040020C6
:101A9000F009002072040020040B0020E80A002056
:101AA000D8090020820400201C0A002038B5044612
:101AB0000D462078C007C00F002874D0207840065B
:101AC000C00F00286FD120788006C00F0028F9D100
:101AD00020780007C00F0028F4D12078C006C00F7E
:101AE0000028EFD1FF219131206A884207D2206A75
:101AF000642804D9698A606A401860621FE0FF2187
:101B00009131206A88421AD3606A002815D0E88B88
:101B1000FF222D325043616A81420ED22078800725
:101B2000C00F002809D120784007C00F002804D139
:101B30002078202188432030207000206062688A4D
:101B4000298C884237DDE088401C80B2E080C828BC
:101B500006DD0020E08020780821884308302070CE
:101B6000688A698C884222DD2089401C80B22081ED
:101B7000322806DD002020812078082188430830A3
:101B80002070688AA98C88420EDD6089401C80B272
:101B90006081052818DD00206081207808218843B5
:101BA0000830207010E02BE0002060810CE0002065
:101BB0002081608108E0E088002802DDE088401E86
:101BC000E080002020816081206932306169884294
:101BD00003D220693230206109E0616920698842BE
:101BE00003D22069401C206101E060692061FF216F
:101BF0009131206A884209D2206A401C206205E0A7
:101C0000002060622062E080A08020612920005DC9
:101C1000401CC1B229200155C82906DD0021282019
:101C200001552A2001552920015520784006C00F72
:101C3000002834D02820005D401CC1B22820015566
:101C40000A292FDD20784021884320700021282098
:101C500001550121C902684601801821C170012186
:101C600081706946164803F0BDF80121C902144885
:101C700003F054F902220B21114803F022F92A2023
:101C8000005D401CC1B22A20015505290ADD002152
:101C900001552078102188431030207002E0002187
:101CA000282001554B2149012069884204D3084668
:101CB00020610449086002E002492069086038BDDB
:101CC000000400484000004010B504462078C007DA
:101CD000C00F00284ED020788007C00F002849D0C0
:101CE00020784007C00F002844D120780007C00F9B
:101CF000002806DD06F060F820780821884320706F
:101D00003EE006F049F805F0A3FA002822D1E08869
:101D100000281CDDE088032802DD0020A08016E0FA
:101D2000E088012811DDA088401C80B2A080142822
:101D30000DDD207804218843001D207020784008A4
:101D4000400020701420A08001E00020A08000202E
:101D5000E08009E0E088401C80B2E080FF212D3166
:101D6000884201DD0846E080207808218843083059
:101D7000207005E000206080E080A08006F00CF874
:101D800010BD0278D207D20F002A04D08A7A120935
:101D900012018A720FE002789207D20F002A05D052
:101DA0008A7A12091201921C8A7204E08A7A120954
:101DB0001201521C8A727047F8B504460D46164649
:101DC0001F4620788007C00F002878D12078400770
:101DD000C00F0028F9D12078C007C00F00286ED0AE
:101DE000FF219131306A884202D27888002866DD6E
:101DF00028788007C00F00280ED1208A401C80B2AE
:101E0000208219214901884206DD28780221884371
:101E1000801C2870002020826878022801D10020D0
:101E200060706078002806D001281FD0022838D0C2
:101E300003285DD151E0A07800280AD0E088400056
:101E4000674940184078A060E0884000085CE06086
:101E50000BE0E0884000624940184078401EA060D6
:101E6000E0884000085C401EE0604CE0E07800281C
:101E70000AD0E08840005B4940184078A060E088C4
:101E80004000085CE0600BE0E088400055494018E5
:101E90004078401EA060E0884000085C401EE06082
:101EA00031E0207900280BD0E08840004E494018EE
:101EB0004078A060E0884000085CE0600CE023E02F
:101EC000E0884000484940184078401EA060E08803
:101ED0004000085C401EE06015E0E0884000434997
:101EE00040184078A060E0884000085CE0600AE0AC
:101EF000E08840003A4940184078A060E0884000FF
:101F0000085CE06000BF11E00020A060E0884000B5
:101F10003349085CE060002020822078C007C00FB1
:101F2000002803D12878022188432870E07C401CD7
:101F3000C0B2E074C82803DD0020A0742075E074EE
:101F400020784007C00F00282DD0A07C401CC0B2D4
:101F5000A0740A2829DD20780421884320700020FD
:101F6000A0740221684601801821C170012181708E
:101F700069461F4802F036FF02211D4802F0CEFFDD
:101F8000012211461A4802F09CFF207D401CC0B27D
:101F90002075052809DD002020752078022188435E
:101FA000801C207001E00020A074E068052804D2A5
:101FB0007D2000010F49C86205E00F48E168FEF787
:101FC00033F90C49C8620B4AA168D26A51430846EA
:101FD0006421FEF729F980B2064940310860F8BD56
:101FE000248F00084A8F0008708F0008968F000821
:101FF00000040048000400401027000070B50446AB
:102000000D4616462078C007C00F002873D02078F0
:102010008007C00F00286ED1012002F03BFE0A208D
:10202000E0802089002809DD2089401E20810020D1
:1020300005F0E4FE002005F0F1FE1CE06088454953
:10204000884206DC012005F0D9FE002005F0E6FEFE
:1020500011E060883F49891C884206DC002005F0B9
:10206000CDFE002005F0DAFE05E0002005F0C6FEFA
:10207000012005F0D3FE05F079FA002811D160782F
:10208000401CC0B26070642811DD207802218843B2
:10209000801C207020784008400020706420607010
:1020A00005E06078002802DD60784010607060888C
:1020B000401C80B26080284988420ADD0020608090
:1020C000207808218843083020702078400840009C
:1020D0002070608864280FD17079052805D0A87910
:1020E00004218843001DA8711AE0A87902218843C1
:1020F000801CA87114E018E060881649884205D158
:10210000A879082188430830A87109E0608812493D
:102110006439884204D1A879102188431030A8710D
:1021200060880D49081AA08012E00A202081002052
:1021300005F064FE002005F071FEE088002805DD52
:10214000E088401EE080002002F0A4FD00206070C6
:1021500070BD0000DC050000B80B000001494860BC
:102160007047000000000240002904D002680123EB
:102170001A43026003E0026852085200026070478E
:1021800001684908490001600021016041608160E7
:10219000C1602149884208D11F49083949680F2286
:1021A00011431D4A083A516035E01B4914318842F9
:1021B00008D1194908394968F0221143164A083AEA
:1021C000516028E014492831884209D11249083960
:1021D00049680F22120211430F4A083A51601AE06F
:1021E0000D493C31884209D10B49083949680F2211
:1021F00012031143084A083A51600CE00649503175
:10220000884208D10449083949680F221204114351
:10221000014A083A516070470800024010B5002298
:1022200002680D4B1A400C6A8B6823430C692343E8
:102230004C6923438C692343CC6923434C6A234371
:102240008C6A23431A430260CB6843600B68836047
:102250004B68C36010BD00000F80FFFF10B5F94848
:10226000007804218843001DF6490870F64800787C
:1022700002218843F449087000208882F34948808D
:102280000846007802218843F0490870F0484078F9
:10229000012873D1EF480078C007C00F0028F8D19B
:1022A000EC4800780007C00F0028F2D1E948007818
:1022B0008007C00F0028ECD1E74840780128E8D11A
:1022C000E4480078C006C00F0028E2D1E049486227
:1022D000886008464068E149884204D2DC4840688A
:1022E000401CDB494860DA48007F030006F0E2FB4F
:1022F0000A0660BAF5F3F2F1F0EFEEED0120D449F1
:102300008870D74800780007C00F002814D008460E
:10231000807F002806DD0846806948600846807F87
:10232000087704E00020CA494860012008770020AF
:10233000C7494861487737E0C5484068C94988427D
:102340001DD20020C8494870C84805F0EBFCBD48C4
:1023500005F00EFDC44805F07EFDC54805F042FDC0
:10236000BF4805F072FDBE484088B94949688842B7
:102370001AD0B7488088BA49488015E01DE3B448B0
:10238000807F002807DDB2488069B149486008466F
:10239000807F087704E00020AD494860012008777D
:1023A0000020AB49486148770020AA49487003E300
:1023B000A74840687D210901884244D2A44840686A
:1023C0000A282DD1A24800784007C00F00280CD160
:1023D0009F4800780821884308309D4908700846C6
:1023E0000078102188439A490870A2480078800735
:1023F000C00F002807D1A048807880218843803012
:102400009D49887005E09B480078022188439949DE
:1024100008709948C07840084000401C9649C87030
:10242000032091494870914805F07CFC854805F0EF
:1024300095FC8D4805F014FD8D4805F0D3FC8848C7
:1024400005F0FEFC04E00020814948600220087786
:102450007F4840688949081A7D49086100207D4904
:102460004870A9E27A4840687D21C90088421DD29F
:1024700077484068012806D17F48C0780221884308
:10248000801C7D49C870002077494870774805F066
:102490003BFC6C4805F062FC734805F0DCFC7448BA
:1024A00005F0A0FC6E4805F0CBFC04E00020684974
:1024B000486003200877664840687149081A6449F3
:1024C000086100206349487076E274E21DE2B8E1D9
:1024D0002CE1F5E07BE03FE0FFE75D4840687D21CF
:1024E000090188421DD25A4840680A2806D162482C
:1024F000C07804218843001D5F49C87003205A49F1
:1025000048705A4805F00EFC4E4805F027FC564826
:1025100005F0A6FC564805F065FC514805F090FC16
:102520000FE000204A4948605648008B4649C98C54
:10253000884203DD05204649087702E0042044492B
:102540000877434840687D218901081A404908619D
:102550000020404948702FE23D4840684A4988427F
:102560001DD23B4840680A2806D14348C07808215C
:10257000884308304049C87000203B4948700846ED
:1025800005F069FC394805F0BFFB2E4805F0E6FB75
:10259000374805F027FC324805F052FC0DE036487C
:1025A000C0781021884310303349C8700020284972
:1025B0008870062008770020486025484068324926
:1025C000081A23490861002022494870F4E1204894
:1025D0004068244988421DD21D4840680A2806D117
:1025E0002548C0780821884308302349C870002056
:1025F0001D494870084605F02EFC1C4805F084FB78
:10260000104805F0ABFB1A4805F0ECFB144805F048
:1026100017FC4BE00E4840681B49884236D2002028
:1026200011494870084605F016FC104805F06CFB8F
:10263000044805F093FB0E4805F0D4FB084805F06C
:10264000FFFB33E0F0090020C00A0020040B00204B
:10265000580A0020F20A0020E80A002090230B000C
:102660001C0A0020B80B0000D809002070040020CC
:10267000720400207A04002082040020F82A00005E
:1026800028230000380B002070170000FE48C07897
:10269000102188431030FC49C8700020FB49887025
:1026A000062008770020486088618877F7484068EE
:1026B000F749081AF54908610020F64948707BE19E
:1026C0000020F5494870084605F0C5FBF34805F0C1
:1026D00029FBF34805F04CFBF24805F083FBF24878
:1026E00005F0AEFBF020EB494870E84840684B210C
:1026F000C90088420ED2E5484068C82812D1E24895
:10270000C078402188434030DF49C8700220E74943
:10271000887607E00120E54988760720DB490877BD
:10272000002048600020D949086145E1D748C078B9
:102730008007C00F002840D1D4484068DC49884257
:1027400027D2D24840680A2806D1CF488079202174
:1027500088432030CC498871CC484068FF212D3116
:10276000884203D20020CE49488002E00120CC49B3
:102770004880CB4805F005FBCA4805F038FBC74840
:1027800005F0D0FAC44805F066FBC74805F058FBD1
:1027900004E00820BD49087700204860BB48406835
:1027A000C349884205D2B9484068081AB749086148
:1027B00043E00020B54908613FE0B4484068BD49A6
:1027C000884227D2B14840680A2806D1AE488079AD
:1027D000202188432030AC498871AC484068FF21F3
:1027E0002D31884203D20020AD49488002E001200B
:1027F000AB494880AA4805F0C4FAAA4805F0F7FAA0
:10280000A64805F08FFAA44805F025FBA64805F078
:1028100017FB04E008209D490877002048609B488A
:102820004068A449884205D298484068081A9749E8
:10283000086102E000209549086100209549487030
:10284000BAE0914880798021884380308E49887130
:10285000924805F067FA924805F08AFA8E4805F02A
:10286000FAFA904805F0BEFA8F4805F0E9FA874871
:10287000407F002815DD8548407F0B2803D10020CC
:102880008249087703E08148407F804908777F4884
:10289000007802218843801C7C490870032048701E
:1028A00018E00020794948600877022048700846FF
:1028B000007808218843754908700846007810217F
:1028C0008843103071490870084600780221884317
:1028D0006E4908700020704948706C4800780821E3
:1028E00088436A49087008460078102188431030F0
:1028F0006649087004207049487163488078102147
:10290000884310306049887056E000206149487063
:102910005E484068FA280CD200205F49487008469B
:1029200005F099FA5D4805F0EFF95D4805F016FAF3
:102930003AE05648407F002803D15448807F002861
:1029400009D05248007802218843801C4F49087002
:102950000320487018E000204C49486008770220A6
:10296000487008460078082188434849087008469E
:1029700000781021884310304449087008460078D8
:102980000221884341490870404800780421884367
:102990003E4908700420484948713B48807810211E
:1029A00088431030384988703E4805F01BFA3E488D
:1029B00005F046FA00E000BF96E03448407803286E
:1029C00036D13248406A401C304948623B4988420F
:1029D0002ED90420384948712B488078102188432B
:1029E00010302949887000202849486208844860CE
:1029F00008774861487788618877022048700846E0
:102A00000078082188432149087008460078102181
:102A1000884310301D490870084600780221884319
:102A20001A4908700846007804218843174908703D
:102A300018480078C007C00F002805D11548007855
:102A4000C006C00F00283DD0002010494862022077
:102A500048700020486008770846007808218843BD
:102A60000A49087008460078102188431030074949
:102A70000870084600780221884304490870084617
:102A80000078042188431BE082040020580A0020BB
:102A900070170000F20A0020D809002070040020FE
:102AA000F0090020720400201C0A0020800A002087
:102AB00080FC0A00407E0500040B002030750000F9
:102AC0000A49087000200A4948700A4805F02AF9A6
:102AD000094805F04DF9064805F0BDF9074805F02D
:102AE00081F9074805F0ACF910BD0000580A002034
:102AF000D809002070040020F00900207204002092
:102B00001C0A002070B505460C4620788007C00FCF
:102B1000002819D1A069A84203D34B20400160616D
:102B200008E04B225201A169514308462946FDF7AE
:102B30007BFB60616088002833D11A496069884254
:102B40002FD2084660612CE0608801280CD116481D
:102B5000854203D84B204001606122E0294613489A
:102B6000FDF762FB60611CE0608802280CD1104810
:102B7000854203D84B204001606112E029460D4890
:102B8000FDF752FB60610CE07D204001854203D8D7
:102B90004B204001606104E029460748FDF744FBF3
:102BA000606170BD14050000B80B000000DD6D0011
:102BB000AC0D0000802C8000007C920010B53D48D8
:102BC0000078022188433B490870002088823A49F6
:102BD00048703A49488008460078C006C00F00286F
:102BE0000BD008460078082188433449087008460D
:102BF000007810218843314908700020304948800E
:102C000030494862304805F08DF8304805F0B0F89A
:102C10002F4805F020F92F4805F0E4F8274805F083
:102C20000FF92848407803282DD12648008C401CF5
:102C300080B2244908842849884227DD00202149A0
:102C4000088448600877486148778861887702205F
:102C5000487008460078082188431A4908700846D9
:102C60000078102188431030164908700846007813
:102C700002218843134908700846007804218843DC
:102C80001049087002E000200E4908840D480078C1
:102C90008007C00F002805D10A4800784007C00F00
:102CA000002806D007484078012802D105200449B1
:102CB000487110BDC00A0020F20A00201C0A002042
:102CC000040B0020580A002070040020F0090020A6
:102CD000D8090020720400203075000010B56E483D
:102CE0000078042188436C4908706C480078022100
:102CF00088436A4908700020888269494870694998
:102D0000488008460078C006C00F00280BD008464F
:102D1000007808218843634908700846007810212C
:102D20008843604908706048C06800280AD00020C5
:102D30005D49C86008468068022803D2084680685A
:102D4000401C886000205849486048618861487785
:102D50008877087702204870084600780821884361
:102D600051490870084600781021884310304E49B8
:102D7000087008460078022188434B4908700846CD
:102D80000078042188434849087043480078800748
:102D9000C00F002864D042480078C007C00F002848
:102DA00011D13F4800780007C00F00280BD13C48E4
:102DB00000788007C00F002805D139480078C00688
:102DC000C00F002806D034480078022188433249D9
:102DD000087060E030484088FF212D3188422EDAAB
:102DE0003248007C00282ADD3048807C0A2826D022
:102DF0002F480078C007C00F002820D126484088FF
:102E0000401C254948802A4804F07EFF2948007864
:102E1000C007C00F002808D02648006AFF21913162
:102E2000884202D2244805F016F8224804F0A0FF98
:102E3000224804F0D7FF1B4805F002F82BE0204899
:102E4000807840084000401C1D49887000201249CD
:102E5000488008460078022188430F4908701AE02C
:102E60000020154948700F480078082188430D4913
:102E700008700020084948800D4804F053FF0D48B1
:102E800004F076FF0C4804F0E6FF0C4804F0AAFFBB
:102E9000044804F0D5FF10BD040B0020C00A002038
:102EA000F20A00201C0A0020580A0020840B00208F
:102EB00070040020F0090020D809002072040020CE
:102EC00082040020C0484079052875D1BF48007DA4
:102ED000012872D1BE48008800283FD10120BC499A
:102EE0000880BC480078C007C00F0028F5D1B94859
:102EF0000078C006C00F0028EFD1B6480078000760
:102F0000C00F0028E9D1B448007F002827D1B2487B
:102F1000C07802218843B049C8700B204877084622
:102F2000406848610020486009200877AB48007875
:102F300002218843801CA9490870A94840792021B2
:102F400088432030A6494871A448007840084000D2
:102F5000401CA24908700020A249888378E09E485E
:102F6000007F06282ADA9C48007F9B49887708461C
:102F7000406888610846C078022188439649C87035
:102F80000846007802218843934908700020486071
:102F900009200877924840792021884320309049C1
:102FA00048718E48007840084000401C8B490870EA
:102FB00000208C4988834BE08CE046E08648007F07
:102FC000072821D18448C078022188438249C870EB
:102FD00008460078022188437F490870FA2048603B
:102FE000092008777E4880794021884340307C4919
:102FF00088717A48007840084000401C7749087082
:1030000000207849888323E07348C07802218843F0
:103010007149C87000208877487748618861FA2034
:103020004860092008776E48C07820218843203006
:103030006B49C8706948007840084000401C6749E7
:10304000087000206749888302E0002060490880FA
:103050005E48C07B022805D063480078C007C00FD7
:10306000002816D158480089401C80B25649088172
:10307000142804DD022048710871002008815B4893
:103080000078022188435949087000204E49C881C0
:103090001CE000204C490881544800788007C00F8C
:1030A000002810D10846C089401C80B2C881282859
:1030B00009DD4E48007802218843801C4B49087086
:1030C00000204149C88105203F49087100203E4940
:1030D000888169E03C480078C007C00F00280FD005
:1030E0003A48C07B022805D13748007840084000A4
:1030F000354908700220344908710020888153E066
:103100003248C07B052803D02F480079052814D108
:1031100035480078C007C00F002803D004202A4992
:10312000087106E02848007840084000401C264905
:10313000087000202449888136E02448C07B042898
:103140000BD129480078C007C00F002805D0042003
:103150001D4908710020888126E01C48C07B022898
:1031600006D01A48C07B18490871002088811BE0EE
:1031700015480079042812D113488089401C80B278
:103180001149888114280FDD0020888108460078C5
:1031900040084000401C08700220487104E00020F4
:1031A00009498881022008710848007D012802D160
:1031B0000020054988610548407D00020349897D5A
:1031C00040180B4908817047040B0020840B002035
:1031D00092040020F20A0020580A00207A040020FD
:1031E00082040020260A00206E04002072040020C1
:1031F0002E0B002010B500206349486048618861AB
:1032000048778877087702204870084600780821B8
:1032100088435D49087008460078102188431030C3
:1032200059490870084600780221884356490870B9
:1032300008460078042188435349087053480078B1
:103240000221884351490870002088825049487003
:1032500050480078C007C00F00287DD0084600788D
:10326000C007C00F002811D1084600780007C00F22
:1032700000280BD1084600788007C00F002805D130
:1032800008460078C006C00F00280FD0424804F05E
:1032900049FD424804F06CFD414804F0DCFD414822
:1032A00004F0A0FD404804F0CBFD69E03F48807881
:1032B000012833D13E48007C00282FDD3C48807C2B
:1032C0000A282BD0384800780007C00F00280FD0FC
:1032D000314804F027FD314804F04AFD304804F03D
:1032E000BAFD304804F07EFD2F4804F0A9FD47E008
:1032F000294804F017FD294804F03AFD284804F055
:10330000AAFD284804F06EFD27480078C007C00FCA
:10331000002835D1244804F098FD31E02248007897
:10332000C006C00F00280BD01F4800780821884332
:103330001D49087008460078102188431A49087012
:103340001B48007C002808DD1948807C0A2804D02E
:10335000114804F0E7FC03E00FE00F4804F0E2FC42
:103360000E4804F005FD0E4804F075FD0D4804F00C
:1033700039FD0D4804F064FD02E001200D4948715B
:1033800000200749487010BD580A0020C00A0020DC
:10339000F20A00206C04002070040020F0090020D4
:1033A000D8090020720400201C0A00207A040020A2
:1033B000840B0020040B00207D484078C007C00F1C
:1033C00000287DD07B4800797A494979884278D0B5
:1033D00078480079012808D176484079032804D13B
:1033E000002074498871088295E072488079401CF9
:1033F000C0B2704988710228F6DD00204882084674
:103400000079012825D108460078C007C00F0028A0
:103410001BD16948007840084000401C664908708C
:1034200000206649888364498870C870FA20614921
:10343000488263480078C007C00F002802D10120ED
:10344000487102E003205B49487100205949088215
:1034500059E05848007902281DD15648407904287F
:1034600013D05848407880218843803055494870AF
:10347000002051498870C870084600784008400014
:10348000401C087000204D4988830220494948713A
:103490000020088237E047480079042833D14A48A1
:1034A0000078C007C00F00282DD042484079052879
:1034B00029D04048008A401C80B23E49088201E081
:1034C00070E024E00A281EDD3E4880781021884301
:1034D00010303C4988703D480078C007C00F002874
:1034E0000CD13B48008B3949C98A884206DA3548F5
:1034F000C07940084000401C3249C87104202D4961
:1035000048710020088200202A49887103E00020C9
:103510002849088288712748408A00280FDD2548FD
:10352000408A401E234948820846408A322806D1F4
:10353000244840781021884310302249487025489B
:103540000078C007C00F00282DD123480078C0079D
:10355000C00F002827D121480078C007C00F0028DD
:1035600021D11F480078C007C00F00281BD0114888
:103570004079012803D00F484079032813D10D4822
:103580004069401C0B494861164988420ED9022007
:10359000084948710846007840084000401C0870FF
:1035A0000020486102E000200249486170470000A5
:1035B000240B0020040B00207A040020260A00209F
:1035C0006C040020820400206E040020C00A002049
:1035D000380B0020F0090020720400201C0A002093
:1035E000700400203075000010B50020FC494870C0
:1035F000FC48007804218843FA4908700220FA49FF
:10360000487000204877486188778861087748606B
:103610000846007802218843F3490870084600787C
:1036200004218843F0490870F0480078C007C00FB3
:10363000002873D1EA480078C007C00F002811D1D4
:10364000E74800780007C00F00280BD1E448007855
:103650008007C00F002805D1E1480078C006C00FE0
:10366000002817D0E248007802218843E04908701A
:1036700000208882DF4804F055FBDA4804F078FB2C
:10368000DD4804F0E8FBDD4804F0ACFBDC4804F066
:10369000D7FB30E2DB48007C0028FADDD948807C8B
:1036A0000A28F6D0D848807800287DD1D7480078FD
:1036B0008007C00F002803D10320CF49487040E0A5
:1036C000CB484078002812D1CB48407800280AD057
:1036D000C9488078002803D00020C749887002E0DC
:1036E0000120C54988700020C349487029E0C048BE
:1036F0004078012813D1C048407801280AD0BE483C
:10370000C078002803D00020BB49C87002E0012027
:10371000B949C8700120B849487012E07AE1B6484A
:10372000407802280AD0B4480079002803D000204D
:10373000B149087102E00120AF4908710220AE4989
:103740004870AC4804F0E0FAA64804F007FBAA4829
:1037500004F086FBA94804F045FBA94804F070FB7F
:10376000AB48007804218843001DA9490870084629
:10377000007802218843801CA54908709C48007885
:103780008007C00F002814D19948808A401C80B25D
:10379000974988824B21C90088420ADD9448007805
:1037A00002218843801C00E019E091490870002044
:1037B000888201208C49C86091480078C006C00FFB
:1037C00000280BD08E480078082188438C49087067
:1037D000084600781021884389490870FBE08A4830
:1037E000807802284ED1002083494870814804F037
:1037F000A7FA7C4804F0B2FA7F4804F02CFB7F481B
:1038000004F0F0FA7E4804F01BFB814800780221A6
:103810008843801C7E49087008460078042188434C
:10382000001D7B490870724800788007C00F00288F
:1038300012D16F48808A401C80B26D4988824B212A
:10384000C900884208DD6A48007802218843801C4C
:10385000674908700020888201206349C860684871
:103860000078C006C00F0028B8D06548007808214D
:1038700088436349087008460078102188436049EE
:103880000870A8E05E4800780007C00F00287DD0CF
:103890005E4800788007C00F002803D103205649F6
:1038A00048703FE052484078002812D15248407892
:1038B00000280AD050488078002803D000204E49C4
:1038C000887002E001204C49887000204A49487005
:1038D00028E047484078012812D14748407801281D
:1038E0000AD04548C078002803D000204249C8705B
:1038F00002E001204049C87001203F49487011E0B2
:103900003D48407802280AD03B480079002803D07F
:1039100000203949087102E001203749087102206E
:1039200035494870334804F0EFF92E4804F016FA90
:10393000314804F095FA314804F054FA304804F064
:103940007FFA2B4800788007C00F002812D1284842
:10395000808A401C80B2264988824B21C900884257
:1039600008DD2348007802218843801C2049087024
:103970000020888201201C49C86025480078022167
:103980008843801C22490870084600E006E0007861
:1039900004218843001D1E4908701CE0144800786B
:1039A000022188431249087000208882114804F0DF
:1039B000B9F90C4804F0DCF90F4804F04CFA0F4850
:1039C00004F010FA0E480078C007C00F002802D19A
:1039D0000B4804F03AFA00200D4948808BE00000C3
:1039E000F20A0020F0090020580A00206C04002090
:1039F000C00A002070040020D809002072040020B2
:103A00001C0A0020840B00207A040020E80A002011
:103A1000040B00203848007802218843364908709A
:103A200000208882354800788007C00F00285DD0CC
:103A300033480078C007C00F002811D13048007803
:103A40000007C00F00280BD12D4800788007C00F59
:103A5000002805D12A480078C006C00F002806D0EB
:103A600026480078022188432449087043E023480F
:103A70004088FF212D3188422CDA224880780128A5
:103A800028D02148007C002824DD1F48807C0A289B
:103A900020D01A484088401C184948801B4804F030
:103AA00033F91B480078C007C00F002808D0184819
:103AB000006AFF219131884202D2164804F0CBF906
:103AC000134804F055F9144804F08CF9134804F035
:103AD000B7F910E0002009494880032048710846E2
:103AE0000078022188430549087004E0002003495A
:103AF00048800320487110BDC00A0020040B00203C
:103B0000F20A00207A040020840B002070040020B8
:103B1000F0090020D8090020720400201C0A0020AF
:103B2000374A904202D20022CA8067E0354A90426A
:103B300002D20122CA8061E0334A904202D20222BC
:103B4000CA805BE0314A904202D20322CA8055E02B
:103B50002F4A904202D20422CA804FE02D4A90425E
:103B600002D20522CA8049E0294A904202D20622A6
:103B7000CA8043E0284A904202D20722CA803DE030
:103B8000264A904202D20822CA8037E0244A904254
:103B900002D20922CA8031E0224A904202D20A228D
:103BA000CA802BE0204A904202D20B22CA8025E034
:103BB0001E4A904202D20C22CA801FE01C4A904248
:103BC00002D20D22CA8019E01A4A904202D20E2275
:103BD000CA8013E0184A904202D20F22CA800DE038
:103BE000164A904202D21022CA8007E0144A90423C
:103BF00002D21122CA8001E01222CA80704700005E
:103C000074400000684200005C4400005046000020
:103C100044480000384A0000204E000014500000C4
:103C200008520000FC530000F0550000E45700006B
:103C3000D8590000CC5B0000C05D0000B45F0000FC
:103C4000A8610000F8B505460C46254804F08EFD35
:103C5000A1886854A0880F2802DAA088401CA080A0
:103C60002878AC2803D00020A080287036E0A088F7
:103C7000022807D16878052830D00020A08028705D
:103C800068702BE0A088032807D1A8780A2825D0DF
:103C90000020A0802870687020E0A0880F281DD127
:103CA0000027012604E0A85DC01987B2701CC6B2C7
:103CB0000D2EF8D3687B0002A97B401880B20090DB
:103CC0000098874208D1284604F069FD00206080F2
:103CD00020784008400020700020A080F8BD00003F
:103CE00000380140F8B505460C46254804F03EFD75
:103CF000E1886854E0880F2802DAE088401CE08000
:103D00002878AC2803D00020E080287036E0E088D6
:103D1000022807D16878012830D00020E080287080
:103D200068702BE0E088032807D1A8780A2825D0FE
:103D30000020E0802870687020E0E0880F281DD106
:103D40000027012604E0A85DC01987B2701CC6B226
:103D50000D2EF8D3687B0002A97B401880B200903A
:103D60000098874208D1284604F004FD20784008D6
:103D700040002070002060800020E080F8BD00003E
:103D80000044004010B5FC484078C007C00F002830
:103D900010D1FA480078C007C00F002805D00420D1
:103DA000F7490872F749087104E00320F4490872E2
:103DB000F4490871F3480079F349C872EE48007875
:103DC000C009002815D0EC48007880218843EA49D2
:103DD0000870EC484088002814DDEB48807A000920
:103DE000012807DCE848807AF02188431030E64952
:103DF000887201E1E448807AF02188432030E2496A
:103E00008872F9E0DF48007901287DD1DD484079EA
:103E100001287AD1DB484088002812DDDA48807A10
:103E200000090028E5DDD848807AF0218843D6498A
:103E3000897A49090901F02211400843D249887260
:103E4000DAE0D2488078002877D0D148407804283A
:103E500039D0CF48407800280BDDCB48807A000964
:103E6000002806D1C848807AF02188431030C6491E
:103E70008872C548807A0009C549497888420DDAB8
:103E8000C148807AF0218843BF49897A09094901EC
:103E9000F02211400843BC498872ADE0BA48807AEC
:103EA0000009BB4949788842A3DDB748807AF021F0
:103EB0008843B549897A49090901F022114008432C
:103EC000B149887298E0B248407800280BDDAE48CE
:103ED000807A0009002806D1AB48807AF021884317
:103EE0001030A9498872A848807A0009022810DA9F
:103EF000A548807AF0218843A349897A09094901B4
:103F0000F0221140084301E064E050E09E498872CD
:103F100072E09D48807A000902286DDD9A48807A17
:103F2000F02188439849897A49090901F022114012
:103F30000843954988725FE0FFE79548407800287C
:103F40000BDD9148807A0009002806D18E48807ADE
:103F5000F021884310308C4988728B48807A0009A0
:103F60008B49497888420DDA8748807AF021884366
:103F70008549897A09094901F0221140084382499B
:103F8000887239E08048807A0009814949788842FE
:103F900032DD7D48807AF02188437B49897A49095E
:103FA0000901F022114008437749887224E07648DD
:103FB000807A000900281FDD7348807AF021884349
:103FC0007149897A49090901F022114008436E4973
:103FD000887211E06B480079052807D16A48807A19
:103FE000F021884320306849887205E06648807A6D
:103FF000F0218843644988726248007960490872F8
:104000006448007D48720846807A01280BD15F48D9
:10401000C079401CC0B25D49C871642806DD022029
:104020005749887202E000205849C8715748C07843
:10403000002807D15848407DC008C000401C5649A0
:10404000487512E05148C078012807D15248407D98
:10405000C008C000001D5049487506E04E48407D2C
:10406000C008C000801C4C4948754A48007C4A4939
:10407000887544480079022842D142484088002887
:104080002DD1404800788007C00F002827D13D4837
:10409000808B002812DD3B48808B401E3949888385
:1040A0003D48007E3021884310303B490876084661
:1040B000007EC008C000401C08761DE03648007E27
:1040C000302188432030344908760846007EC008F5
:1040D000C000801C087600202A4988830CE02E4806
:1040E000007E3021884310302B4908760846007E38
:1040F000C008C000401C087600202249886178E092
:104100000020204988832448007EC008C0004979E7
:104110004907490F0843204908761A4800790428BE
:104120003ED10846807D64281AD116488069401C1B
:1041300014498861194988420AD908461149886199
:104140001548007E3021884320301349087650E01E
:104150001148007E3021884310300F49087648E02E
:104160000020084988610C48007E302188431030C7
:10417000094908763DE00000240B00206E04002071
:10418000A50A0020040B0020B00A00207A040020B9
:10419000C00A0020840B0020800A00207017000055
:1041A000FC48007903281AD1FA488069401CF94973
:1041B0008861F94988420AD90846F6498861F74872
:1041C000007E302188432030F449087611E0F3481E
:1041D000007E302188431030F049087609E0002045
:1041E000EC498861ED48007E302188431030EB496E
:1041F0000876EB480078C007C00F002807D1E748D1
:10420000007EC02188438030E449087606E0E34818
:10421000007EC02188434030E0490876DD4840797F
:10422000052817D1DF48007F00280BDDDD48007F1F
:10423000072807DAD948007F00090001401CD74948
:1042400008770EE0D548007F00090001801CD349A3
:10425000087706E0D148007F00090001801CCF49A3
:104260000877CE48007F0009002813DDCE4800887B
:10427000401C80B2CC490880FF21F53188420CDD1A
:10428000C648007FF0218843C44908770020C6490A
:10429000088002E00020C4490880C4480078C007B4
:1042A000C00F002803D1BF48007F072819D1BB48A1
:1042B000407F00090001B949497FFC2211400907EC
:1042C000090F0843B54948770846407F00090001B7
:1042D000497F012211430907090F0843AF49487775
:1042E00018E0AE48407F00090001AC49497FFC223C
:1042F00011400907090F0843A84948770846407F3D
:1043000000090001497F022211430907090F0843F0
:10431000A2494877A348C0788007C00F00280DD174
:104320009E48407F000900019C49497FF3221140CB
:104330000907090F08439949487718E09748407FD3
:10434000000900019549497FF32211400907090F2F
:104350000843924948770846407F00090001497F99
:10436000042211430907090F08438C4948779048F4
:104370000078C007C00F002807D18A48007F0028B6
:104380000BD184484079052807D18448407FF0212B
:10439000884310308149487706E08048407FF0210B
:1043A000884320307D4948777E4908696421FBF7BE
:1043B0003BFF0004000E794988777A490869642137
:1043C000FBF732FF7549C87700217448203001702F
:1043D000774988886421FBF731FF0446C017000E37
:1043E000001900120002201AC1B26C48203041703E
:1043F0006C4908696421FBF717FF0004010E674848
:1044000020308170674908696421FBF70DFFC1B254
:1044100062482030C17067484078002809D15F4861
:104420002030007900090001401C5C4920310871EE
:1044300016E060484078012809D1584820300079BA
:1044400000090001801C55492031087108E05348DB
:104450002030007900090001001D50492031087109
:1044600054480078C007C00F00280DD05248C07BC8
:10447000012809DA494820300079F02188432030AA
:1044800046492031087108E0444820300079F02185
:10449000884310304149203108714848807F000925
:1044A0000001401C454988770846807FF0218843F9
:1044B0003030424988770846C07F000900013549FD
:1044C00009790907090F08433C49C8773C488078B7
:1044D000002807D10846C07FF021884310303749B3
:1044E000C87712E036488078012807D13348C07F6A
:1044F000F021884320303149C87706E02F48C07F3B
:10450000F021884340302D49C8772E48417D2B4803
:10451000203001702B48817D284820304170294887
:10452000017C2648203081702648807C002805DDEB
:104530002448817C21482030C1705AE02248C07C48
:10454000002805DD2048C17C1C482030C17050E0A7
:104550001E480078C006C00F002804D00821174864
:104560002030C17045E01A4800788007C00F00284D
:1045700004D0092111482030C1703AE01548007874
:10458000C007C00F002827D022210C482030C1705E
:104590002FE00000040B002070170000800A0020AC
:1045A0006C040020580A00204E04002072040020F1
:1045B0001C0A0020C00A0020F20A0020AC080020DB
:1045C0007A040020840B00209D0B0020F0090020BD
:1045D000D8090020960800206F480078C007C00F57
:1045E000002803D00D216D48C17002E000216B4806
:1045F000C1706B48C078002807D16848007900096D
:104600000001401C6549087116E06548C078022821
:1046100007D16248007900090001801C5F490871D8
:104620000AE05F48C078012806D15C48007900099B
:104630000001C01C5949087158480079F02188438D
:10464000574949780901F02211400843534908713C
:10465000544800788006C00F002803D002214F483C
:1046600041710CE04F4800780007C00F002803D0CC
:1046700003214A48417102E00121484841714A48FA
:10468000407905280DD1494800784007C00F00281F
:1046900003D004214148817106E001213F48817126
:1046A00002E002213D48817141480078C007C00FF7
:1046B000002807D03948C079F021884310303749A5
:1046C000C87106E03548C079F0218843203033496D
:1046D000C87138480078C007C00F002807D02F489D
:1046E000C07900090001401C2C49C87106E02B4824
:1046F000C07900090001801C2849C8712E488088B3
:10470000FF21090208400112244801722A48017958
:10471000224841722848408AFF21090208400112BC
:104720001E4881722448817C1C48C172224800883E
:10473000FF21090208400112184801731E48017840
:10474000164841731C48C08AFF2109020840011223
:10475000124881731848817D1048C1731648008B38
:10476000FF210902084001120C4801741248017E21
:104770000A4841741148C17B084881740F48017C84
:104780000648C1740D48417C044801750B48817C82
:104790000248417510BD0000A0080020CC08002090
:1047A000E80A0020F0090020040B0020580A00202D
:1047B000720400201C0A0020380B00209D0B0020F2
:1047C00010B5FFF7DFFA7D4804F02DF87C4803F0C0
:1047D000FFFF7C4804F0BBF87B4804F043F87B48BB
:1047E00001F0D3F87A4801F0BFF8794801F0DEF81B
:1047F00078484078C007C00F00287DD07448407AC0
:10480000401CC0B272494872052863DB0020487220
:104810000221714803F034FF6F4840686C49887288
:10482000002202216C4803F059FF00206849887279
:1048300001204003FDF792FC654800788007C00F17
:10484000002814D10A235E4A6349644800F0ECFF53
:104850005F48007802218843801C5D490870084643
:10486000007804218843001D5949087025E0584804
:1048700000784007C00F00280CD01E23514A56492B
:10488000564800F0D1FF524800780421884350492F
:10489000087012E015234C4A4F49504800F0C4FFFD
:1048A0004B4800780221884349490870084600783F
:1048B00004218843001D4649087001220221464810
:1048C00003F0EEFE454800F0D4FF012202214248E9
:1048D00003F004FF3D48007A401CC0B23B49087217
:1048E000052869DB0020087288712020FDF736FC5E
:1048F0000823324A3A4900E00DE03848283800F0F1
:1049000093FF01220221364803F0CAFE33482838BB
:1049100000F0AFFF50E02E48407A401CC0B22C4956
:104920004872052848DB0020487202212A4803F01B
:10493000A7FE29484068264988720022022126489D
:1049400003F0CCFE00202249887201204003FDF7CD
:1049500005FC1F4800784007C00F00280CD01E231C
:10496000184A1D491D4800F05FFF194800780421CE
:1049700088431749087012E01523134A164917484F
:1049800000F052FF12480078022188431049087055
:104990000846007804218843001D0D490870012253
:1049A00002210D4803F07CFE0C4800F062FF01225A
:1049B0000221094803F092FE10BD0000A50A002064
:1049C000B00A0020AC080020800A002096080020D1
:1049D000A0080020240B00200044004044000240B6
:1049E0000038014010B5104800897D21C900884277
:1049F00019DB0E484079030004F05CF80613040A42
:104A0000070D1013FEF7F0FD0CE0FEF7F3FB09E0D5
:104A1000FEF764F906E0FEF7D1F803E0FDF71EFCAF
:104A200000E000BF00BF10BD240B0020040B0020DD
:104A300005E0044900E0491E0029FCD1401E002881
:104A4000F7D17047781E00000EB50121084602F02C
:104A500071FB0120000501900021684601720821C8
:104A600041720121817201A800F030F80120C004D8
:104A70000190002168460172082141720121817272
:104A800001A800F023F81821684601700121417047
:104A9000817000F0F5FE0EBD0149486170470000CD
:104AA00000040140014600200022074B1B680B4018
:104AB0001A46054B5B690B40002B03D0002A01D03E
:104AC000012000E00020704700040140002121493E
:104AD0008279002A35D00A46126803689A430B4649
:104AE0001A600A46526803689A430B465A60027974
:104AF00051180A6803681A430A60164A92680368E4
:104B00009A43144B9A601A46D26803689A43114B31
:104B1000DA604279102A0CD11A46926803681A4367
:104B20000C4B9A601A46D26803681A43094BDA6044
:104B30000EE00849427951180A6803681A430A606E
:104B400006E00449027951180A6803689A430A602A
:104B5000704700000004014010B522484079012848
:104B60000BD121488078022803D120482049886150
:104B700006E01E481E49886102E01C481C49886105
:104B80001C4800891C49096840181B4908601B48DB
:104B90000078401CC0B219490870082813DB0020B7
:104BA000087015480068C008134908601449124885
:104BB0000068FEF7B5FF0E490F480068FDF7A2FF39
:104BC00000200D4908602B200E49C883F820088476
:104BD000FF2037304884FF20F1308884FF203730B1
:104BE000C88410BD040B00207A040020DC460000BD
:104BF000F00900202E0B00208C04002090040020DF
:104C0000D8090020380B002010B50446002C05DD23
:104C100010210920C00600F083F904E010210920CA
:104C2000C00600F07BF910BD10B50446002C05DD70
:104C300001214902044800F073F904E0012149020E
:104C4000014800F06BF910BD0004004810B504469F
:104C5000002C05DD01218903044800F061F904E01E
:104C600001218903014800F059F910BD00080048EE
:104C700010B50446002C05DD0121C903044800F0ED
:104C80004FF904E00121C903014800F047F910BDC4
:104C90000008004810B50446002C05DD80210920DD
:104CA000C00600F03DF904E080210920C00600F0B4
:104CB00035F910BD70B505460424104800F07CF8A5
:104CC0000446042C18D10E480069022108430C49FF
:104CD00008610846456100694021084308490861A8
:104CE000064800F069F80446012C05D00448006924
:104CF0000449084002490861204670BDFF0F0000CA
:104D000000200240FD1F000004200D49C968C907AA
:104D1000C90F002901D0012010E00949C968042207
:104D20001140002901D0022008E00549C96810227D
:104D30001140002901D0032000E00420704700004A
:104D400000200240034800698021084301490861AE
:104D5000704700000020024070B505460E4604244E
:104D60000F2000F029F80446042C12D10A480069EB
:104D700001210843084908612E800F2000F01CF82B
:104D80000446012C05D00448006904490840024942
:104D90000861204670BD000000200240FE1F000098
:104DA000024803494860034848607047230167454B
:104DB00000200240AB89EFCD70B504460425FFF713
:104DC000A3FF054605E004F00BF8FFF79DFF05463D
:104DD000641E012D01D1002CF5D1002C00D1052538
:104DE000284670BDFCB5024600250026019600202D
:104DF000002300240096CE7835072D0FCE7810279B
:104E00003E40002E01D08E7835430E78002E27D0FC
:104E10001468002021E00126864033460E881E409B
:104E20000196019E9E4217D183000F269E40009658
:104E30002746009EB7433C462E469E403443CE78DC
:104E4000282E03D101268640566105E0CE78482EF3
:104E500002D1012686401661401C0828DBD314606D
:104E60000E88FF2E2CDD5468002026E0064608360A
:104E70000127B7403B460E881E400196019E9E4288
:104E80001AD183000F269E4000962746009EB74306
:104E90003C462E469E403443CE78282E04D106460A
:104EA00008360127B7405761CE78482E04D1064610
:104EB00008360127B7401761401C0828D6D3546034
:104EC000FCBDF0B5002300244D07EE0E1546B5409D
:104ED0002B46CD10002D0BD1056A4E07F70E0F267D
:104EE000BE40B5430562056A1D432C4604620AE0D4
:104EF000456A4E07F70E0F26BE40B5434562456A28
:104F00001D432C464462F0BD0246002093680B40CE
:104F1000002B01D0012000E0002070474161704764
:104F20000161704708B501210F20400402F0E2F84A
:104F3000902168460180032181701021C17069466B
:104F40000920C006FFF74EFF2D4968460180032166
:104F500081701021C17069462A48FFF743FF07217D
:104F6000490368460180032181701021C1706946A0
:104F70002548FFF737FF80216846018003218170B3
:104F80001021C17069462148FFF72CFF204968466F
:104F90000180032181704821C17069460920C00643
:104FA000FFF720FF0121C9026846018003218170BB
:104FB0000421C17069460920C006FFF713FFFF21D5
:104FC000023168460180032181704821C170694621
:104FD0000C48FFF707FF042206210A48FFF771FF7C
:104FE000042207210748FFF76CFF0020FFF71CFE93
:104FF0000120FFF709FE10210248FFF791FF08BDCD
:10500000D20600000004004800080048000C0048D8
:105010006211000010B5832136488171364800784E
:10502000400840003449087008460078022188434F
:105030003149087008460078042188432E490870D9
:1050400008460078102188432B49087008464078AC
:1050500040084000487000208870C870087188714E
:10506000C87108812549C873C87408758874887523
:10507000487548740874C875087621480078082176
:1050800088431F49087008460078042188431C495A
:1050900008701C4817494039888200201A498880C6
:1050A000C88008460078022188431749087000200C
:1050B000888201201549487015481649088016480D
:1050C0000078042188431449087000201349C885DA
:1050D0000886134802F026FE124802F049FE1248E4
:1050E00002F0B9FE114802F07DFE114802F0A8FE60
:1050F00010BD0000780B0020240B0020840B002042
:105100007A040020FF0F0000C00A0020E80A0020F7
:1051100055AA000094040020040B0020260A002059
:1051200070040020F0090020D8090020720400203B
:105130001C0A002010B500222349244803F00CFE6D
:10514000234A0121214803F0DCFC214A06211F48A3
:1051500003F0D7FC1E4A08211C4803F0D2FC1B4870
:1051600003F01AFE7D23DB0000221A491A48FCF7DF
:1051700057F81A4B1A4A17491A48FCF751F81A4BB4
:10518000164A14491948FCF74BF8194A01211248EC
:10519000FBF72CFF164A05210F48FBF727FF154A9E
:1051A00001211048FBF722FF134A07210F48FBF7A4
:1051B0001DFF0E48FCF74AF80A48FCF747F8064876
:1051C000FCF744F810BD0000158F0008A40900206A
:1051D000D18A0008098F0008FC080020D80E0000C2
:1051E000C409000034090020031000006C090020ED
:1051F0008D0F0008B50F0008D10F000801202949C4
:10520000887200202849C871284948618861284867
:105210000078C007C00F002842D108464079032813
:1052200007D008464079042803D008464079022870
:1052300036D12048C07C002803DD00201D49C874F9
:1052400002E001201B49C8741A48C07C01280BD118
:105250001948007910218843103017490871154802
:10526000807D1449C87511E01348007920218843D6
:105270002030114908710F48C07D0E4988750846D5
:10528000807D0E49C88001200D49087006480078CD
:1052900040084000401C04490870002005498883EC
:1052A00070470000A50A00207A040020040B0020AB
:1052B000F20A0020260A0020820400209404002024
:1052C0009408002001208E49887200208D49C87101
:1052D0008D49486188618D480078C007C00F00285B
:1052E00070D18B48C07C00286DDD8948C07D0128C5
:1052F00005DA8748C07D401C8549C87502E000205A
:105300008349C8758248C07D002807D1814800784C
:1053100002218843801C7F490870DFE07C48C07D03
:10532000012807D17B48007804218843001D794972
:105330000870D3E07648C07D022807D17548007810
:1053400008218843083073490870C7E07048C07D61
:10535000032807D16F4800781021884310306D4929
:105360000870BBE06A48C07D042807D1694800780E
:1053700020218843203067490870AFE06448C07D31
:10538000052807D1634800784021884340306149AF
:105390000870A3E05E48C07D062807D15D4800780C
:1053A0008021884380305B49087097E05848C07D71
:1053B000072809D15748407840084000401C55490B
:1053C00048708BE09BE023E05148C07D082807D15E
:1053D0005048407802218843801C4E4948707DE047
:1053E0004B48C07D092807D14A48407804218843AA
:1053F000001D4849487071E04548C07D0A286DD1BC
:10540000444840780821884308304249487065E0A4
:105410003F48007E032805DA3D48007E401C3C4999
:10542000087602E000203A4908763948007E0028D4
:1054300007D13848007902218843801C354908711A
:1054400022E03348007E012807D132480079042148
:105450008843001D2F49087116E02D48007E022860
:1054600007D12C4800790821884308302949087160
:105470000AE02748007E032806D126480079400824
:105480004000401C234908712148007E03280DD1AB
:105490001920C0431E4948810020888108460078B1
:1054A00004218843001D1A49087017E01848007E3F
:1054B00000280DD11220C043154948810020888161
:1054C0000846007804218843001D1149087005E052
:1054D0000F480078042188430D4908700C48007E6D
:1054E0000D49088101200D490870064800784008E0
:1054F0004000401C0349087000200549888370471C
:10550000A50A00207A040020040B0020F20A0020E3
:10551000260A002082040020940400209408002021
:105520000548C07C012805D100200349C8740846FD
:10553000807DC87570470000260A002070B50546BA
:105540000C468F480078002859D18E4800784100D9
:1055500020461E30405A8C490880084600788B4906
:1055600008808948008800128749088087480078A9
:105570000006000C85490880834800880988084394
:1055800081490880102082490870002081490870F4
:105590008149087081480078182808DA012002F053
:1055A00035FB7E480078401C7C49087014E07B483D
:1055B0000078362810DA002002F028FB77480078BF
:1055C000401C7649087008460078362804DB002025
:1055D000087001206A49087020784007C00F002831
:1055E0000DD120896188884209D0E08D002801D141
:1055F0000120E085208E002801D10120208660480E
:105600000078012844D163480078082818D16248FE
:105610000078002814D1012002F0F8FA012002F0ED
:1056200005FB5E480078401CC0B25C4908701E282B
:1056300053DD0420524908700020584908704CE09E
:10564000002002F0E3FA50480078C007C00F00289D
:1056500003D0012002F0EAFA02E0002002F0E6FAAC
:10566000494800884010484908804A48007848491D
:105670000978884208DA47480078401C4549087094
:1056800002203F49087028E005203D49087024E0C9
:105690003B480078022803D039480078032806D117
:1056A000012002F0B3FA01203549087015E03448B2
:1056B0000078042811D1002002F0A8FA37480078B9
:1056C000401CC0B2354908701E2806DD0020087055
:1056D00001202B49087030490870294800780528B6
:1056E0004CD1012002F092FA012002F09FFA2B48DF
:1056F0000078401CC0B2294908700C283EDD00200B
:1057000008701F490870A08D1E490978884205DD80
:105710001C480078401C1B4908702FE06089A18953
:10572000884221D16088262804D11D48608100204C
:10573000A0810BE06088292808D120788007C00F5D
:10574000002803D0164860810020A08100206080DE
:10575000608820810020A080E080607D207528780E
:1057600040084000287006E020780421884320701B
:1057700000206081A08100200249087070BD0000F7
:105780005B0400205C0400205E0400206004002014
:1057900059040020580400205D0400205A04002011
:1057A000A55A000010B51E20FFF742F9FFF7BAFB1B
:1057B0004B214901012002F013FC7D21090114480D
:1057C00002F084FCFAF788FFFAF78CFF7D20C00016
:1057D00002F0AAFB4B20C00102F054FE4B20C00196
:1057E00002F0DCFE0A230B4A0B490C4800F01CF8BF
:1057F00008230B4A0B490948283800F015F8FCF734
:1058000071F8FFF797FCFFF705FC01F02BFD10BDC9
:10581000BF120000B00A00200044004044000240D3
:10582000A50A002000380140F0B58BB007460C46B1
:1058300015461E460121084601F05CFC3846FCF77F
:105840009FFC009401951020029003960020049084
:10585000802005900020069007900890012000030A
:10586000099000200A9069463846FCF7D7FC0BB037
:10587000F0BD10B5044601212046FCF775FC10BDB3
:1058800000218278002A27D0184A03231B02D2184D
:1058900003789B109B00D15802789207D30EFF2209
:1058A0009A400B469343194642789207120E0378AA
:1058B0009B07DB0E9A4011430C4A03231B02D218AC
:1058C00003789B109B00D1500278D306DB0E012297
:1058D0009A40064B1A6007E00278D306DB0E0122DD
:1058E0009A40024B80331A607047000000E100E0EC
:1058F00010B5002819DA1A4A03071B0F083B9B084A
:105900009B00D2588307DC0EFF23A3409A438B07EA
:105910001B0E8407E40EA3401A43114B0407240F07
:10592000083CA408A4001A5118E00E4A03231B02E5
:10593000D21883089B00D2588307DC0EFF23A340B4
:105940009A438B071B0E8407E40EA3401A43054BB2
:10595000032424021B198408A4001A5110BD00005E
:105960001CED00E000E100E04188491C89B2418063
:10597000FF22F532914207DB00214180C18001788E
:1059800049084900491C017070474188491C89B287
:105990004180FF22F532914207DB00214180818066
:1059A000017849084900491C017070478188491CE9
:1059B00089B28180FF222D32914205DB0021818056
:1059C000017808229143017070470A21418000212B
:1059D00001817047102141800021018170472F21F2
:1059E000418081800021018170471C21418000217C
:1059F00001817047392141800021018170473A219E
:105A000041800021018170473B21418000210181BB
:105A100070473B2141802021818000210181704716
:105A20002A214180818000210181704735214180F8
:105A30000021018170472E21418081800021018158
:105A40007047012141800021018170471921418067
:105A50008180002101817047212141800021018145
:105A600070472321418081800021018170472021DE
:105A700041800021018170473321418081800021D4
:105A80000181704726214180002101817047322128
:105A900041800021018170471F2141800021018147
:105AA00070472221418081800021018170473C2183
:105AB0004180002101817047342141800021018112
:105AC00070470221418000210181704705214180FA
:105AD000002101817047042141800021018170472C
