:020000040800F2
:10000000B8110020590100088B0100088D0100087B
:100010008F01000891010008930100080000000012
:100020000000000000000000000000009501000832
:10003000970100080000000099010008316F0008D6
:100040009D0100089D0100089D0100089D01000818
:100050009D0100089D0100089D0100089D01000808
:100060009D0100089D0100089D0100089D010008F8
:100070009D0100089D0100089D0100089D010008E8
:100080009D0100089D0100089D0100089D010008D8
:10009000C90000209D0100089D0100089D01000885
:1000A000891200089D0100089D01000831750008B3
:1000B0004976000800F002F800F03EF80CA030C8C5
:1000C000083824182D18A246671EAB4654465D46D4
:1000D000AC4201D100F030F87E460F3E0FCCB64660
:1000E0000126334200D0FB1AA246AB4633431847E1
:1000F0007C7F0000AC7F0000103A02D378C878C142
:10010000FAD8520701D330C830C101D504680C6059
:10011000704700000023002400250026103A01D378
:1001200078C1FBD8520700D330C100D50B607047AF
:100130001FB51FBD10B510BD00F09AFA1146FFF7AC
:10014000F7FF07F0BDFE00F0B2FA03B4FFF7F2FFCD
:1001500003BC00F0B9FA0000144880F30888144882
:100160000168090E134A9142FFD1134813490160F7
:100170001348144901601448124901600E4813499C
:1001800001601348804713480047FEE7FEE7FEE79B
:10019000FEE7FEE7FEE7FEE7FEE7FEE7FEE700001C
:1001A0000D480E490E4A0F4B70470000B811002051
:1001B000040000001F0000001C10024000000004AA
:1001C00018680040120000001C6800400000000099
:1001D00031700008B5000008B80B0020B8110020ED
:1001E000B80D0020B80D002001E004C0091F04294B
:1001F000FBD28B0701D50280801CC90700D002709A
:10020000704700290BD0C30702D00270401C491E62
:10021000022904D3830702D50280801C891EE3E7EC
:100220000022EEE70022DFE7002203098B422CD3F5
:10023000030A8B4211D300239C464EE003460B4336
:100240003CD4002243088B4231D303098B421CD398
:10025000030A8B4201D394463FE0C3098B4201D38A
:10026000CB01C01A524183098B4201D38B01C01AC2
:10027000524143098B4201D34B01C01A5241030939
:100280008B4201D30B01C01A5241C3088B4201D3E8
:10029000CB00C01A524183088B4201D38B00C01A95
:1002A000524143088B4201D34B00C01A5241411ABC
:1002B00000D201465241104670475DE0CA0F00D09F
:1002C0004942031000D34042534000229C46030998
:1002D0008B422DD3030A8B4212D3FC22890112BA1E
:1002E000030A8B420CD3890192118B4208D38901F6
:1002F00092118B4204D389013AD0921100E089090E
:10030000C3098B4201D3CB01C01A524183098B42EE
:1003100001D38B01C01A524143098B4201D34B01D7
:10032000C01A524103098B4201D30B01C01A52413A
:10033000C3088B4201D3CB00C01A524183088B42C1
:1003400001D38B00C01A5241D9D243088B4201D34A
:100350004B00C01A5241411A00D201466346524135
:100360005B10104601D34042002B00D54942704734
:1003700063465B1000D3404201B50020C046C04632
:1003800002BD7047704770470346CA02400D10B562
:1003900010430A1504D00124E4072043002A05DB9A
:1003A0000A4CA21A04D4D040FF2A00DD002010BD60
:1003B0004A00002B01D0012000E00020101801228B
:1003C0005205D042F2D8C817C04310BD1E04000029
:1003D0001F22030C02D10F22000402D0030E03D00F
:1003E00004E00020014670470002083A030F01D1E3
:1003F0000001121F830F01D18000921E002801DB33
:100400004000521E120551184205C01241181046F4
:100410007047C10FC90700D0404201229207114323
:10042000D6E701218907D3E7F0B58B4C0F092546A4
:1004300089B0BD437BD01D092646AE43FAD00E4697
:100440005E402740F60F3E43254071D024012142F3
:10045000FBD0FF24AD19A4042D1B039501252D0508
:10046000DB02DB0AC9022B43C90A29431E01090129
:10047000040F130F050121431701880B82039143D9
:100480002D098C46A90B1E438A039543B30B9A038F
:1004900096433F09BA0B9403A74302962E467E4328
:1004A0000497B6464E19D7190C4601965443059742
:1004B0007E43371B7646BF1B3601B646BE0B361948
:1004C00000967646BC043719009C01D3641C009446
:1004D0006400002F01D001263443029E049F75431F
:1004E00066467E430496760034196E0034190094F3
:1004F000029C019E1C196643751BAE460694654618
:100500004519059C05956C43594375460891691A30
:100510000191049E01465143A41B0491611A009C61
:100520000791E10605D061090122114302E072E062
:100530006EE06109089D00272C0A2D066918049DAC
:100540007C412A0A2D066918019D6241AC0DAD025D
:100550006D185441079A910D920255196141029A02
:10056000644658435443069B059A5A43121A131B78
:100570009A0E9B015B187A41010B0005C31851418B
:10058000220A200644195A419A4200D2491C0120ED
:100590004002814203D315230226F64302E01423CE
:1005A0000326F6432020C51AA9401746AF40DA407B
:1005B0000A4320460399D8400914731819055118A5
:1005C000039A3843D2075140AC4009D001229440ED
:1005D00006D30022401C5141002C01D140084000AC
:1005E0001E4A934212D3012203989206904207DBDF
:1005F0000520400709181A480143C012414004E091
:10060000032040070818C10FC907002009B0F0BD3A
:100610000020F107FAE705180C464C4111486D42DD
:10062000A04115D394181A465A410E48644290418D
:100630000ED301204A004005824209D35A0082426B
:1006400006D35940C90F084AC90700201143DDE706
:1006500000200649DAE700000000FF07FE0700005F
:10066000FFFFFF7F0000E0FF0000F07F0000F87F49
:10067000754600F025F8AE46050069465346C008A9
:10068000C000854618B020B5FFF78AFD60BC002782
:100690004908B6460026C0C5C0C5C0C5C0C5C0C54E
:1006A000C0C5C0C5C0C5403D49008D46704710B5A6
:1006B0000446C046C0462046FFF747FD10BD000077
:1006C00000487047540B002001491820ABBEFEE7DC
:1006D000260002007047000003B40148019001BDEC
:1006E0007900002003B40148019001BDD50100202C
:1006F00003B40148019001BD0103002042690A438F
:1007000042617047002904D0426801231A434260C5
:1007100003E042685208520042607047002904D04A
:10072000826804231A43826003E0826804239A43A8
:1007300082607047002A03D083680B43836002E025
:1007400083688B438360704710B502460020506871
:10075000C00BC0030C684B6823431843506090687B
:10076000044B18400C694B6923438C68234318439E
:10077000906010BD800000FF70B5144600224268F2
:100780000F26B6021546B5432A469D022A4342600B
:10079000202905DAC56801268E403543C5600CE086
:1007A000FF2904D1C568054E3543C56005E0FA2927
:1007B00003D1C5682D0C2D04C56070BDFFCF0000AE
:1007C00000206449486164480078C007C00F0028D1
:1007D00048D161480078C006C00F0028F8D15E48B3
:1007E00000780007C00F0028F2D101205B49887211
:1007F00000205B49C8715748C078022832D00846AB
:10080000007804218843564908700846007808217A
:10081000884353490870012048704E48C078042826
:1008200021D04C48C07805281DD04E48807840081B
:100830004000401C4B4988704948007840084000FF
:10084000401C474908700020474988834748007882
:1008500002218843454908700846007804218843EE
:100860004249087075E03C4800788006C00F0028B7
:1008700018D03B48007840084000401C38490870B8
:100880000020394988833A48007FF021884320308E
:100890003749087733484078402188434030314910
:1008A000487056E03348007C142825DA2F484078F9
:1008B000012821D02B48407904218843001D294973
:1008C00048712B48007FF021884310302849087771
:1008D00002202649487008460078042188432349AD
:1008E00008701F48007840084000401C1C490870F0
:1008F00000201D4988832CE000201749C871087228
:10090000487201201C494870002018490883084695
:10091000407801281DD00846007802218843801CB9
:10092000124908700846807802218843801C0F49CC
:10093000887001204870002048600720087508482A
:10094000007840084000401C054908700020064916
:1009500088837047A40A0020940A00204D0A0020D2
:100960003E04002046040020D8090020080A002088
:10097000280A0020200B00208A0A0020194800784D
:10098000C007C00F00282BD116480078C006C00F42
:10099000002825D1134800780007C00F00281FD178
:1009A00011480078C006C00F00280DD00E4800780E
:1009B0000821884308300C49087008460078042153
:1009C0008843094908700BE00748007808218843EC
:1009D00005490870084600780421884302490870D8
:1009E00070470000940A00203E0400201E48007852
:1009F000C007C00F002835D11B480078C006C00FC3
:100A000000282FD1184800788006C00F002829D16F
:100A1000154800788007C00F002823D112480078BD
:100A20000007C00F00281DD11048C07802280DD043
:100A30000F48007804218843001D0D4908700846BE
:100A40000078082188430A4908700BE008480078BC
:100A50000421884306490870084600780821884325
:100A60000349087070470000940A0020A40A00207F
:100A70003E04002000B5F94800781021884310306A
:100A8000F6490870F6480078C007C00F00284AD120
:100A9000F3480078C006C00F0028F8D10846007857
:100AA0000007C00F00287DD00020EE498861486112
:100AB0000120ED4988720020E849C871E948C078F2
:100AC000042831D0E748C07805282DD0E7480078C1
:100AD00002218843E54908700846007804218843CC
:100AE000E249087000204860087502204870E0481C
:100AF000807840084000401CDD498870D948C078A3
:100B0000022806D0DB48007FF02188434030D949D5
:100B10000877D248007840084000401CCF49087050
:100B20000020D5498883C4E1CD4800788006C00FF5
:100B3000002818D0C948007840084000401CC74928
:100B400008700020CC498883C948407840218843F8
:100B50004030C7494870C748007FF02188432030A3
:100B6000C4490877A5E1C548007C142827DABF48A6
:100B70004078012823D0BE48C07910218843103026
:100B8000BB49C871BB48007FF02188431030B94988
:100B900008770220B549487008460078022188434A
:100BA000B24900E03EE10870AC48007840084000DF
:100BB000401CAA4908700020AF49888379E10020D1
:100BC000A749C871087248720120AD494870A7480A
:100BD00000788007C00F002828D1A448407D002855
:100BE00024D1A248807D002820D1A048007802218D
:100BF0008843801C9D49087001204870002048757A
:100C00008875C860086148600875084680780221C8
:100C10008843964988709148007840084000401CFD
:100C20008E49087000209449888342E100208F4952
:100C300008830846407803280BD00846407D0028EA
:100C400003D10846807D002840D08848007D0928CF
:100C50003CD18648007D072807D18548807920212E
:100C6000884320308249887122E0012081494876FA
:100C7000834948707D488078022188437B49887089
:100C80000846407D0B2805D1002008750846C0683D
:100C9000486006E07548807D74490875084600691B
:100CA000486073484079402188434030704948711A
:100CB00001206E4948706948007840084000401C97
:100CC0006649087000206C498883F2E06748007D1F
:100CD000002833D1654880780221884363498870B1
:100CE0000B20487508464068C8600846807D00288B
:100CF00006DD0846006948600846807D087504E006
:100D000000205A49486001200875544800780221A3
:100D10008843801C51490870554880788021884359
:100D20008030534988704D48007840084000401C8E
:100D30004A490870002050498883BAE04B48007D3A
:100D4000062828DA4948007D4849887508464068E1
:100D50000861084680780221884344498870084623
:100D6000007802218843414908700020486009202A
:100D700008753F4840792021884320303C4948711C
:100D80003648007840084000401C34490870002074
:100D9000394988838DE03548007D072821D13348C3
:100DA0008078022188433149887008460078022102
:100DB00088432E490870FA204860092008752C489D
:100DC0008079402188434030294988712348007840
:100DD00040084000401C21490870002026498883B3
:100DE00067E02248807802218843204988700020EB
:100DF00088754875C8600861FA2048600920087540
:100E00001B48C0782021884320301949C8701348F6
:100E1000007840084000401C104908700020164926
:100E2000888346E00D4800784007C00F002840D076
:100E300000200C49886148610846C07804282ED0FB
:100E40000846C07805282AD00448C078022819DA54
:100E50000248C078401C0149C87016E03E040020DA
:100E6000940A0020A40A00204D0A0020080A00204D
:100E700046040020280A0020D8090020200B00206A
:100E80008A0A002000203949C8700020374988802C
:100E90003748407DF8218843083035494875334844
:100EA000007840084000401C30490870002031495B
:100EB00088833148807801283BD12D48407DC00887
:100EC000012836D129488088401C80B22749888073
:100ED0007D214901884239DD002024498880244849
:100EE000407DF8218843224948752048C0781F4931
:100EF00088700846C078002807D120484078102123
:100F0000884310301D49487020E01848C0780128F7
:100F100007D11A48807940084000401C1749887161
:100F200014E0164840782021884320301349487047
:100F30000CE011488078012805D00D48407DF8214B
:100F400088430B49487500200849888001200749DB
:100F50004870084600780421884304490870084610
:100F60000078082188430149087000BD3E04002034
:100F7000280A0020D8090020A40A002046040020E6
:100F800070B50446204606F092FF0546012D02D0BA
:100F9000052D06D102E0FFF7F1FC03E0FFF710FC9E
:100FA00000E000BF00BF70BD70B50446204606F0EB
:100FB0007EFF0546012D02D1FFF718FD00E000BFBE
:100FC00000BF70BD70B50446204606F070FF0546B0
:100FD000072D02D1FFF74EFD00E000BF00BF70BD3E
:100FE00010B58C00034610331A5110BD70B504467D
:100FF000E06880470546E0784007400F002806DD9E
:1010000020888249884202DA2088401C208060893A
:10101000A84209D02079401CC0B220710F2805DBFE
:1010200065810020207101E000202071E0784007F8
:10103000400F030006F098FD06042661B0E7D0E7F4
:1010400060892189884217DB6089E188884213DC46
:10105000A078F0218843A0702069002802D02046A3
:101060002169884700202080A07800090001401CE9
:10107000A0700120E07004E0A078F0218843A03047
:10108000A070C0E060892189884203DB6089E18823
:1010900088420FDDA078F02188431030A07060698D
:1010A000002802D020466169884700202080022065
:1010B000E07021E020885649884210DDA078F021B8
:1010C00088435030A070606A002802D02046616AD0
:1010D0008847606A00280FD00520E0700CE0208867
:1010E0000A2809DDA078F02188437030A070E06AFA
:1010F000002801D00520E07085E0608921898842C0
:1011000021DB6089E18888421DDCA0780007000FA0
:101110000F2808DAA07800090001A178491C090706
:10112000090F0843A070A078F02188432030A070F8
:10113000A069002802D02046A169884700202080AD
:101140000320E07027E02088FF212D31884222DD36
:10115000A0780007000F01280BD1A078F021884368
:101160003030A070E069002813D02046E16988473C
:101170000FE0A0780007000F02280AD1A078F02124
:1011800088434030A070206A002802D02046216A9F
:1011900088470020E07036E060892189884203DBBF
:1011A0006089E188884216DDA078F02188431030FC
:1011B000A0706069002802D02046616988472088B5
:1011C000FF212D31884204DA002020800220E070C7
:1011D00001E00020E07016E06089218988420FDB81
:1011E0006089E18888420BDCA078F0218843703068
:1011F000A070E06A002805D02046E16A884701E037
:101200000020E07000BF00BF70BD0000FAFF0000CA
:10121000B80B0000F8B504460D4616461F463821A7
:101220002046FEF7FFFFA078F0218843A030A07091
:10123000E560E068804760812681E780F8BD0000B6
:1012400001460948026805E08A4202D10020C043F5
:101250007047526B002AF7D1034800684863024880
:1012600001600020F4E700001804002010B50548D4
:10127000046803E02046FFF7B9FE646B002CF9D147
:1012800010BD00001804002008B50120000503F07F
:10129000D1F8002828D00120000503F0C5F810205F
:1012A00000F034FB01281FD10020264908600022ED
:1012B0000B21254803F0CFFA0121C90268460180BD
:1012C000032181701021C17069461F4803F054FA50
:1012D0000121C9021C4803F0EBFA1C4800782021C8
:1012E00088432030194908700120C00403F0A2F897
:1012F000002826D00120C00403F096F80C2000F04E
:1013000005FB01281DD10020114908600722012199
:101310000D4803F0A0FA0221684601800321817084
:101320001021C1706946084803F026FA02210648D8
:1013300003F0BEFA0748007804218843001D0549E0
:10134000087008BD4000004000040048B0090020BB
:10135000400400409C09002010B50246002A01D13B
:10136000104812E0042A02D10E48001D0DE0082AA0
:1013700002D10C480C3008E00C2A02D10948083888
:1013800003E0102A01D10748001F002904D0036898
:1013900001242343036003E003685B085B000360F0
:1013A00010BD0000083C01400021024A8218116073
:1013B00070470000003C014010B5014600200029A4
:1013C00001D10F4A12E0042902D10D4A121D0DE08D
:1013D000082902D10A4A0C3208E00C2902D1084A35
:1013E000083A03E0102901D1054A121F13680124AD
:1013F000A4072340002B01D0204600E0002010BDB0
:10140000083C014030B502460023002A01D12248A1
:1014100012E0042A02D12048001D0DE0082A02D162
:101420001D480C3008E00C2A02D11B48083803E0A4
:10143000102A01D11848001F0C2A0ED0102A0CD0F7
:101440000368164C2340CD688C682C430D692C43EF
:101450004D692C43234303601CE00C68302C07D1FA
:101460000D4C083CA46910252C430B4D083DAC6184
:1014700003680A4C23404D680C682C438D682C434C
:10148000CD682C438D692C430D692C434D692C4349
:101490002343036030BD0000083C01400240E03FB0
:1014A00010B5044605F0F4FA002809D16078002848
:1014B00003DD6078401E60700CE00020207009E0C1
:1014C0006078401CC0B26070142803DD1420607086
:1014D0000120207010BD00007FB505460E46144661
:1014E0003078C009002822D1012003F057F8288B5A
:1014F0006C4988420CDAA088642802DAA088401C73
:10150000A080E08800280FDDE088401EE0800BE02E
:10151000E088642802DAE088401CE080A088002887
:1015200002DDA088401EA08000207070B8E07078B6
:10153000C007C00F002810D1012003F02FF8A088A9
:10154000E188884203DDE1200001E08301E0288B8F
:10155000E0830020A080E080A0E0E08BFEF761FF48
:10156000514A524B01910090FEF75EFF03910290A9
:10157000FEF70AFFA082E08BFEF753FF4C4A4D4B6B
:1015800001910090FEF750FF03910290FEF7FCFEE0
:101590002082A08A2084E08BFEF743FF444A464B1A
:1015A00001910090FEF740FF03910290FEF7ECFEE0
:1015B000E082E08B4149884203DAE08BC830208327
:1015C00002E03E48C8302083E08BC82803DDE08B72
:1015D000C838608301E000206083288BA18A88429C
:1015E0000DDD2089401C80B22081642803DD0020AD
:1015F0006070642020810020E080A0801EE0288BA5
:10160000E18A88420DDDE088401C80B2E0806428D9
:1016100003DD012060706420E08000202081A08034
:101620000CE0A088401C80B2A080642803DD02206A
:1016300060706420A08000202081E0802078C007B6
:10164000C00F002813D1288B1921490188420CDAD8
:101650006089401C80B260817D21C900884206DD1E
:10166000012020700020608101E000206081288B33
:10167000218B884210DA288B618B88420CDDA0898F
:10168000401C80B2A081FF212D31884206DD288BCD
:10169000E0830846A08101E00020A0810120707055
:1016A0007FBD0000480D0000F6285C8FC2F5E83FC2
:1016B0009A9999999999E93F9999D93F370F0000DB
:1016C00083795B1CDBB28371052B10DD0378DB07AC
:1016D000DB0F002B04DD03785B085B00037004E084
:1016E00003785B085B005B1C037000238371704709
:1016F00070B504460E4615462078C007C00F002876
:101700004FD1E079401CC0B2E071022812DDE079CF
:10171000052806DA002002F063FF012002F072FFC4
:1017200046E0002002F05CFF002002F06BFF062084
:10173000E0713DE0012002F053FF002002F062FF63
:10174000E079012834DD2889E8822889C8280CDA64
:10175000207A401CC0B220720A2803DD0120E0700C
:101760000A2020720020607222E0288911498842F4
:101770000CDD607A401CC0B260720A2803DD0220D2
:10178000E0700A2060720020207211E00020607278
:101790002072207A00280BD1607A002808D1E070EE
:1017A00006E00020E07102F01BFF002002F02AFF9B
:1017B00070BD0000C409000010B5044605F040FAF1
:1017C00001280DD16078401CC0B26070142812DD71
:1017D00014206070207840084000401C20700AE00F
:1017E0006078002803DD60784010607003E02078A6
:1017F00040084000207010BD10B5044620788007D6
:10180000C00F002812D005F02DFA00280BDD6079FA
:101810006E280DDA6079401C60716079642807D108
:101820000220607004E00020607101E0002060711F
:1018300010BD000000B589B00121480405F07AF818
:101840000121880405F076F84021684601840021D2
:1018500008A8C1700321817008A90920C00602F000
:101860008BFF042168460184002108A8C170032170
:10187000817008A9244802F07FFF0121C80305F008
:1018800079F80C20FFF790FD30200190FF20013007
:10189000029000200390049001204004059008204D
:1018A0000690C003079001A90C20FFF7ABFD1020A4
:1018B000FFF77AFD302001908020029000200390F5
:1018C000049001204004059008200690C003079072
:1018D00001A91020FFF796FD0821202005F0E6F968
:1018E0000120000502F0A0FD0120C00402F09CFDD3
:1018F00002F072FD01210C20FFF72EFD01211020C6
:10190000FFF72AFD09B000BD0004004870B5044689
:1019100002252046FFF750FD002801D1002500E0F8
:101920000125284670BD000010B5244880790300C9
:1019300006F01AF905040B10283637002048FFF787
:101940003BFF2048FFF7ACFD2CE001F015FC02F056
:1019500011FD27E002F0C8FD1B491C4800F0E0F92A
:101960001B491C4800F046F81B4800F097F9194A3B
:101970001A491B4800F0F0F91A4A1B491B4800F0AD
:10198000D5FA0FE0124A1A491448FFF799FE184A8F
:101990000A490F48FFF7A0FD1048FFF72DFF01E0AF
:1019A00000E000BF00BF05488079401CC0B2034979
:1019B0008871042801DD0020887110BDC40A002050
:1019C0003004002032040020580A00203404002093
:1019D000D80A0020B0090020350400208A0A00201F
:1019E0009C090020A40A002046040020380400209E
:1019F000680A002038B504460D462078C007C00F9D
:101A000000286FD020788006C00F00286AD1207887
:101A1000C006C00F0028F9D120784007C00F002869
:101A2000F4D120780007C00F0028EFD1688A698BB5
:101A3000884220DA20788007C00F00281BD1FF21C0
:101A40002D31206A88420CD2A088401C80B2A08030
:101A5000642806DD0020A080207810218843103003
:101A60002070002020816081E08800284BDDE08824
:101A7000401EE08047E0688AA98B884239DDE08813
:101A8000401C80B2E080C82806DD0020E08020787D
:101A900004218843001D2070688AE98B884222DD7A
:101AA0002089401C80B22081322806DD0020208160
:101AB000207804218843001D2070688A298C884280
:101AC0000DDD6089401C80B2608105280EDD00209C
:101AD0006081207804218843001D207006E00020EA
:101AE000608103E076E00020208160810020A080FA
:101AF00009E0E088002802DDE088401EE080002048
:101B0000A0802081608120788007C00F002813D139
:101B1000206932306169884203D220693230206105
:101B20004FE061692069884203D22069401C20612E
:101B300047E06069206144E06088012816D120698F
:101B40003230FF216931884203D22069323020616E
:101B500037E0FF2169312069884203D22069401CA7
:101B600020612EE0FF20693020612AE06088022891
:101B700011D120693230F02803D22069323020613F
:101B80001FE02069F02803D22069401C206118E082
:101B9000F020206115E0206932304B21C9008842D5
:101BA00003D22069323020610BE04B21C90020694B
:101BB000884203D22069401C206102E04B20C00013
:101BC0002061FF212D31206A884208D2206A401C02
:101BD000206204E000202062E080A08020612520B7
:101BE000005D401CC1B225200155C82906DD002139
:101BF00024200155262001552520015520788006F6
:101C0000C00F002834D02420005D401CC1B2242025
:101C100001550A292FDD20782021884320700021DA
:101C2000242001550121C902684601801821C17094
:101C3000012181706946174802F09EFD0121C90209
:101C4000144802F035FE02220B21124802F003FE76
:101C50002620005D401CC1B22620015505290ADD61
:101C6000002101552078082188430830207002E0C7
:101C70000021242001554B2149012069884204D3C9
:101C8000084620610449086002E0034920690860B1
:101C900038BD0000000400484000004010B5044674
:101CA0002078C007C00F002835D020788007C00FEB
:101CB000002830D020784007C00F00282BD1207892
:101CC0000007C00F002806DD05F0D8F820780821AD
:101CD0008843207023E005F0C1F804F0E1FE0028FD
:101CE00011D16078401CC0B2607032280DDD2078C0
:101CF00004218843001D2070207840084000207097
:101D00003220607001E00020607020780821884354
:101D10000830207003E00020607005F09FF810BDCF
:101D20000278D207D20F002A04D08A7A120912014F
:101D30008A720FE002789207D20F002A05D08A7AC1
:101D400012091201921C8A7204E08A7A12091201A5
:101D5000521C8A7270470000F8B504460D461646BC
:101D600020788007C00F002865D120784007C00F79
:101D7000002860D12078C007C00F00285BD0FF2169
:101D80002D31306A884256D36878012853D128789B
:101D90008007C00F00280CD1A089401C80B2A08110
:101DA000884206DD287802218843801C28700020A4
:101DB000A0816078002806D001280FD0022818D012
:101DC00003282CD120E06088400051494018407819
:101DD000606060884000085CA0602BE06088400084
:101DE0004C4940184078606060884000085CA06002
:101DF00020E0608840004849401840786060608872
:101E00004000085CA06015E060884000434940182D
:101E10004078606060884000085CA0600AE06088EC
:101E200040003B4940184078606060884000085C92
:101E3000A06000BF11E0002060606088400034496D
:101E4000085CA0600020A0812078C007C00F002897
:101E500003D12878022188432870E07B401CC0B25F
:101E6000E073C82803DD0020A0732074E07320789D
:101E70004007C00F00282DD0A07B401CC0B2A0732B
:101E80000A2829DD20780421884320700020A073CF
:101E90000221684601801821C170012181706946C4
:101EA0001F4802F069FC02211D4802F001FD0122D9
:101EB00011461B4802F0CFFC207C401CC0B22074AD
:101EC000052809DD00202074207802218843801C29
:101ED000207001E00020A073A068052804D27D20B6
:101EE00000011049C86205E00F48A168FEF79CF99F
:101EF0000C49C8620B4A6168D26A514308466421A2
:101F0000FEF792F980B2074940310860F8BD000041
:101F1000D47F0008FA7F000820800008468000086F
:101F200000040048000400401027000070B504467B
:101F30000D4616462078C007C00F002873D02078C1
:101F40008007C00F00286ED1012002F06DFB2078C1
:101F50004007C00F002806D0012004F0B1FF002088
:101F600004F0BEFF05E0002004F0AAFF012004F009
:101F7000B7FF04F081FE002811D16078401CC0B288
:101F80006070642811DD207802218843801C207055
:101F900020784008400020706420607005E0607880
:101FA000002802DD6078401060706088401C80B2BC
:101FB00060802E4988420ADD002060802078082158
:101FC00088430830207020784008400020706088E6
:101FD00064280ED1F078052805D0A879042188431B
:101FE000001DA87119E0A87902218843801CA871FE
:101FF00013E060881E49884205D1A87908218843EA
:102000000830A87109E0608818496439884204D111
:10201000A879102188431030A87160881349081AE4
:10202000A08022E0FFE7002002F0FEFA00206070AE
:1020300004F02AFE012803D004F02EFE01280ED160
:1020400020784007C00F002804DD20780421884351
:10205000207004E0207804218843001D20700020B7
:1020600004F02EFF002004F03BFF70BDB80B000011
:10207000DC05000001494860704700000000024094
:10208000002904D0026801231A43026003E00268B9
:102090005208520002607047016849084900016017
:1020A0000021016041608160C1602149884208D1FE
:1020B0001F49083949680F2211431D4A083A5160E7
:1020C00035E01B491431884208D11949083949685B
:1020D000F0221143164A083A516028E01449283189
:1020E000884209D11249083949680F221202114366
:1020F0000F4A083A51601AE00D493C31884209D133
:102100000B49083949680F2212031143084A083A5B
:1021100051600CE006495031884208D10449083921
:1021200049680F2212041143014A083A516070476E
:102130000800024010B5002202680D4B1A400C6ADC
:102140008B6823430C6923434C6923438C692343E5
:10215000CC6923434C6A23438C6A23431A430260AD
:10216000CB6843600B6883604B68C36010BD0000A0
:102170000F80FFFF10B500240020FA494870084680
:10218000007802218843F7490870F7484078012811
:1021900070D1F6480078C007C00F0028F8D1F34886
:1021A00000780007C00F0028F2D1F04800788007BF
:1021B000C00F0028ECD1EE4840780128E8D1EB4868
:1021C0000078C006C00F0028E2D1E749C861084680
:1021D0004068E849884204D2E3484068401CE2492C
:1021E0004860E148007D030005F0BEFC0A065EB8C9
:1021F000F3F1F0EFEEEDECEBDF4800780007C00FF5
:10220000002815D0D848807D002807DDD648006911
:10221000D54948600846807D087504E00020D24911
:102220004860012008750020CF49C860487537E034
:10223000CD484068D14988421DD20020D04948701D
:10224000D04804F0D1FDD04804F0F4FDCC4804F0AF
:1022500064FECE4804F028FEC74804F058FEC64885
:102260004088C149496888421AD0BF488088C2491D
:10227000488015E01BE3BC48807D002807DDBA4894
:102280000069B94948600846807D087504E000206F
:10229000B5494860012008750020B349C8604875F9
:1022A0000020B249487001E3AF4840687D21090130
:1022B000884244D2AC4840680A282DD1AA48007808
:1022C0004007C00F00280CD1A74800780821884398
:1022D0000830A54908700846007810218843A249B3
:1022E0000870AB4800788007C00F002807D1A948C4
:1022F0008078802188438030A649887005E0A44812
:10230000007802218843A2490870A248C07840089A
:102310004000401C9F49C870032099494870994863
:1023200004F062FD984804F07BFD954804F0FAFD46
:10233000964804F0B9FD904804F0E4FD04E0002064
:102340008949486002200875874840689249081A00
:1023500085498860002085494870A7E28248406826
:102360007D21C90088421DD27F484068012806D1DE
:102370008848C07802218843801C8649C8700020A4
:102380007F4948707F4804F021FD7F4804F048FDF4
:102390007B4804F0C2FD7D4804F086FD764804F0D9
:1023A000B1FD04E0002070494860032008756E48C4
:1023B00040687A49081A6C49886000206B49487067
:1023C00074E272E21BE2B6E12AE1F3E077E03DE07D
:1023D000FFE765484068724988421DD262484068FC
:1023E0000A2806D16B48C07804218843001D69493A
:1023F000C870032062494870624804F0F5FC6248E6
:1024000004F00EFD5E4804F08DFD604804F04CFDC4
:10241000594804F077FD0FE00020534948606148B7
:10242000008B6149098C884203DD05204E490875FF
:1024300002E004204C4908754B4840685B49081A83
:10244000494988600020494948702FE24648406861
:10245000574988421DD2444840680A2806D14D4851
:10246000C0780821884308304A49C8700020444990
:102470004870084604F051FD424804F0A7FC424869
:1024800004F0CEFC414804F00FFD3B4804F03AFD57
:102490000BE04048C0781021884310303D49C87097
:1024A000062031490875002048602F48406840499F
:1024B000081A2D49886000202C494870F6E12A4806
:1024C00040682E4988421DD2274840680A2806D114
:1024D0003048C0780821884308302E49C870002051
:1024E00027494870084604F018FD264804F06EFCA1
:1024F000254804F095FC254804F0D6FC1E4804F05D
:1025000001FD25E0184840682949884212D2002080
:102510001B494870084604F000FD1A4804F056FCB8
:10252000194804F07DFC194804F0BEFC124804F080
:10253000E9FC0DE01748C078102188431030154998
:10254000C870062008490875002048600861887531
:10255000054840681649081A034988600020034965
:102560004870A3E1A40A0020080A0020940A002071
:102570008A0A002090230B0038040020B80B0000CA
:102580009C09002034040020B009002035040020FC
:102590003E040020460400200429000034210000ED
:1025A000DC050000D80A0020680A00204C1D00004D
:1025B000701700000020FE494870084604F0ADFC8A
:1025C000FC4804F011FCFC4804F034FCFB4804F027
:1025D0006BFCFB4804F096FCF020FA494870FA487E
:1025E0004068E121C90088420ED2F7484068C828F7
:1025F00012D1F648C078402188434030F349C87072
:102600000220F349887607E00120F1498876072007
:10261000ED490875002048600020EB49886045E1DD
:10262000E94880788007C00F002840D1E64840681C
:10263000E849884227D2E44840680A2806D1E3489E
:102640008079202188432030E0498871DE48406845
:10265000FF212D31884203D20020D749488002E073
:102660000120D5494880D44804F0EDFBD34804F05C
:1026700020FCD04804F0B8FBCD4804F04EFCD04814
:1026800004F040FC04E00820CF49087500204860B1
:10269000CD484068CF49884205D2CB484068081AE7
:1026A000C949886043E00020C74988603FE0C648C8
:1026B0004068C949884227D2C34840680A2806D1E1
:1026C000C2488079202188432030C0498871BE48A3
:1026D0004068FF212D31884203D20020B64948804E
:1026E00002E00120B4494880B34804F0ACFBB34891
:1026F00004F0DFFBAF4804F077FBAD4804F00DFCBD
:10270000AF4804F0FFFB04E00820AF490875002043
:102710004860AD484068B049884205D2AA48406840
:10272000081AA949886002E00020A74988600020B3
:10273000A4494870BAE0A548807980218843803058
:10274000A24988719B4804F04FFB9B4804F072FB40
:10275000974804F0E2FB994804F0A6FB984804F07F
:10276000D1FB9948407D002815DD9748407D0B2816
:1027700003D100209449087503E09348407D9249B5
:1027800008759148007802218843801C8E490870A2
:102790000320487018E000208B494860087502202B
:1027A0004870084600780821884387490870084621
:1027B000007810218843103083490870084600785B
:1027C00002218843804908700020794948707E487A
:1027D0000078082188437C49087008460078102159
:1027E000884310307849087004207C49C8707748C5
:1027F00080781021884310307449887056E000209A
:102800007049487070484068FA280CD20020684926
:102810004870084604F086FB664804F0D7FA66481C
:1028200004F0FEFA3AE06848407D002803D166488B
:10283000807D002809D06448007802218843801CEC
:10284000614908700320487018E000205E49486024
:1028500008750220487008460078082188435A49C4
:1028600008700846007810218843103056490870D7
:10287000084600780221884353490870524800787E
:10288000042188435049087004205449C8704F48B7
:1028900080781021884310304C498870474804F0F4
:1028A00003FB474804F02EFB00E000BF7FE04648F2
:1028B0004078032836D14448C069401C4249C86169
:1028C000474988422ED904204449C8703F4880783F
:1028D0001021884310303D49887000203A49C86172
:1028E000088348600875C8604875086188750220CB
:1028F0004870084600780821884333490870084624
:1029000000781021884310302F490870084600785D
:10291000022188432C490870084600780421884326
:102920002949087027480078C007C00F00280BD13C
:1029300024480078C006C00F002805D1214800783F
:102940000007C00F002820D000201F49C8610220C6
:1029500048700020486008750846007808218843C0
:10296000194908700846007810218843103016492C
:102970000870084600780221884313490870084609
:1029800000780421884310490870002008494870E5
:10299000084804F029FA084804F04CFA044804F006
:1029A000BCFA064804F080FA054804F0ABFA10BD02
:1029B0009C09002034040020B009002035040020C8
:1029C00038040020940A0020080A00204604002051
:1029D000280A002080FC0A00407E0500A40A00208E
:1029E0003075000070B505460C46A069A84203D3B7
:1029F0004B204001606108E04B225201A169514324
:102A000008462946FDF710FC60616088002805D162
:102A100003496069884201D20846606170BD0000C8
:102A20001405000010B50020394948703949488024
:102A300008460078C006C00F00280BD00846007872
:102A400008218843334908700846007810218843DC
:102A5000304908700020304948703049C86130481A
:102A600004F0C2F92F4804F0E5F92F4804F055FAB4
:102A70002E4804F019FA274804F044FA2748407811
:102A800003282DD12548008B401C80B223490883A0
:102A90002749884227DD00202049088348600875BF
:102AA000C86048750861887502204870084600783B
:102AB0000821884319490870084600781021884386
:102AC00010301649087008460078022188431349DF
:102AD000087008460078042188431049087002E015
:102AE00000200E4908830D4800788007C00F002899
:102AF00005D10A4800784007C00F002806D00748D3
:102B00004078012802D105200349C87010BD00009B
:102B1000940A002038040020A40A0020080A00209B
:102B200034040020B00900209C0900203504002056
:102B30003075000010B50020594948705949488047
:102B400008460078C006C00F00280BD00846007861
:102B500008218843534908700846007810218843AB
:102B60005049087000205049487050494860C8607A
:102B70000861487588750875022048700846007815
:102B80000821884349490870084600781021884385
:102B900010304649087008460078022188434349AE
:102BA000087008460078042188434049087040486E
:102BB00000788007C00F002859D039480078C00736
:102BC000C00F002811D1364800780007C00F002838
:102BD0000BD1334800788007C00F002805D130485A
:102BE0000078C006C00F002806D0314800780221C6
:102BF00088432F49087052E02D484078FA2825DA9A
:102C00002C48007C002821DD2A48807C0A281DD021
:102C100029480078C007C00F002817D12448407801
:102C2000401C2349487000201F494870224804F086
:102C3000CDF8224804F0FEF81B4804F073F9204850
:102C400004F032F9174804F05DF928E01D48807857
:102C500040084000401C1B498870002014494870FF
:102C600008460078022188431149087017E00D4892
:102C70000078082188430B49087000200C494870EF
:102C80000D4804F0B1F80D4804F0D4F8064804F0FB
:102C900044F90B4804F008F9024804F033F910BD78
:102CA000940A0020380400209C090020080A002013
:102CB000A40A0020200B002034040020B0090020CA
:102CC0003504002046040020B848C07805287DD18E
:102CD000B748007D01287AD1B648008800282DD158
:102CE0000120B4490880B448007D002827D1B248AB
:102CF000807802218843B04988700B2048750846C7
:102D00004068C8600020486009200875AB4800781A
:102D100002218843801CA9490870A94840792021D4
:102D200088432030A6494871A448007840084000F4
:102D3000401CA24908700020A249888379E09E487F
:102D4000007D062828DA9C48007D9B498875084646
:102D50004068086108468078022188439649887057
:102D60000846007802218843934908700020486093
:102D700009200875924840792021884320309049E5
:102D800048718E48007840084000401C8B4908700C
:102D900000208C4988834CE08748007D072824D197
:102DA00085488078022188438349887008460078E6
:102DB0000221884380490870FA204860092008757C
:102DC0007F48807940218843403001E073E02DE066
:102DD0007B4988717948007840084000401C774959
:102DE000087000207749888323E0734880780221A7
:102DF000884371498870002088754875C8600861EB
:102E0000FA204860092008756D48C0782021884361
:102E100020306B49C8706948007840084000401C69
:102E20006649087000206749888302E000206149F4
:102E300008805F48C07B022805D063480078C0073F
:102E4000C00F002816D15948C088401C80B257498D
:102E5000C880282804DD0220C87088700020C8803F
:102E60005A480078022188435849087000204F4989
:102E700088811CE000204D49C880544800788007B4
:102E8000C00F002810D108468089401C80B288817C
:102E9000282809DD4D48007802218843801C4B49D1
:102EA0000870002041498881052040498870002031
:102EB0003E49488169E03D480078C007C00F0028BE
:102EC0000FD03B48C07B022805D138480078400825
:102ED000400036490870022034498870002048813B
:102EE00053E03348C07B052803D03048807805285C
:102EF00014D135480078C007C00F002803D0042043
:102F00002A49887006E02948007840084000401CA3
:102F10002649087000202549488136E02448C07BB6
:102F200004280BD128480078C007C00F002805D01E
:102F300004201E4988700020488126E01C48C07B80
:102F4000022806D01A48C07B1849887000204881A2
:102F50001BE016488078042812D114484089401C90
:102F600080B21249488128280FDD00204881084698
:102F7000007840084000401C08700220C87004E03F
:102F800000200A494881022088700948007D0128F4
:102F900002D10020054988610548407D00020449AE
:102FA000897D40180A49088170470000A40A002062
:102FB000200B002056040020080A00203E040020B8
:102FC00046040020D80900203204002035040020E7
:102FD000CE0A002010B500205C494860C860086136
:102FE00048758875087502204870084600780821E1
:102FF00088435649087008460078102188431030ED
:103000005249087008460078022188434F490870E9
:1030100008460078042188434C49087000204C4938
:1030200048704C480078C007C00F00287DD0084683
:103030000078C007C00F002815D1084600780007A7
:10304000C00F002805D1084600788007C00F00286F
:1030500003D041488078012805D13D480078C0065A
:10306000C00F00280FD03D4803F0BEFE3C4803F0DF
:10307000E1FE3C4803F051FF3B4803F015FF3B489D
:1030800003F040FF5EE034488078012833D13848AF
:10309000007C00282FDD3648807C0A282BD033485E
:1030A00000780007C00F00280FD02C4803F08EFED8
:1030B0002B4803F0BFFE2B4803F02FFF2A4803F0F4
:1030C000F3FE2A4803F01EFF3CE0244803F08CFE88
:1030D000234803F0AFFE234803F01FFF224803F00C
:1030E000E3FE22480078C007C00F00282AD11F48FD
:1030F00003F00DFF26E01D480078C006C00F002831
:103100000BD01A48007808218843184908700846EF
:1031100000781021884315490870104803F056FEC6
:103120000F4803F087FE0F4800E008E003F0F5FECB
:103130000D4803F0B9FE0D4803F0E4FE02E0012063
:103140000C49C87000200749487010BD080A0020CB
:10315000940A0020300400203E04002034040020A3
:10316000B00900209C09002035040020380400200C
:10317000200B0020A40A002081480078C009002804
:103180007ED0804880787F49C978884279D07D4850
:103190008078012808D17B48C078032804D100201A
:1031A00078490871C88196E076480079401CC0B221
:1031B000744908710228F6DD0020088208468078EC
:1031C000012826D108460078C007C00F00281CD16E
:1031D0006D48007840084000401C6B490870002092
:1031E0006A49888368498870C870FF202D30654916
:1031F000088267480078C007C00F002802D101206C
:10320000C87002E003205F49C87000205D49C88192
:1032100059E05C48807802281DD15A48C0780428BB
:1032200013D05C48407880218843803059494870E9
:10323000002055498870C870084600784008400052
:10324000401C087000205149888302204D49C870F5
:103250000020C88137E04B488078042833D14E489D
:103260000078C007C00F00282DD04648C078052838
:1032700029D04448C089401C80B24249C88101E03D
:1032800078E024E00A281EDD424880781021884337
:1032900010304049887041480078C007C00F0028AE
:1032A0000CD13F48008B3D49098A884206DA3948EB
:1032B000C07940084000401C3649C871042031499B
:1032C000C8700020C88100202E49087103E000204A
:1032D0002C49C88108712B48008A00280FDD294835
:1032E000008A401E274908820846008A322806D1F3
:1032F00028484078102188431030264948702948D2
:103300000078C007C00F00281DD127480078C007EB
:10331000C00F002817D125480078C007C00F00282B
:1033200011D123480078C007C00F00280BD01548E2
:10333000C078022807D01348C078042803D0114869
:10334000C078052803D10F48C078032813D10D4851
:103350004069401C0B494861164988420ED9022039
:103360000849C8700846007840084000401C0870B2
:103370000020486102E000200249486170470000D7
:10338000C40A0020A40A00203E040020D80900201E
:10339000300400204604002032040020680A002087
:1033A000D80A0020B009002035040020380400208D
:1033B000340400203075000010B50020A04948708A
:1033C0000220A049487000204875C86088750861CF
:1033D00008754860084600780221884399490870BA
:1033E000084600780421884396490870964800787A
:1033F000C007C00F00287DD191480078C007C00FDA
:10340000002811D18E4800780007C00F00280BD18A
:103410008B4800788007C00F002805D188480078C5
:10342000C006C00F00280FD0884803F0DDFC884894
:1034300003F000FD874803F070FD874803F034FD7A
:10344000864803F05FFDF9E08548007C0028FADD3E
:103450008348807C0A28F6D08248807800282AD1C8
:103460007C494870794803F0B1FC794803F0D8FCF6
:10347000784803F057FD784803F016FD774803F0CD
:1034800041FD7948007802218843801C7649087004
:1034900072480078C006C00F002873D06F480078CB
:1034A000082188436D490870084600781021884338
:1034B0006A49087066E06B48807802282DD10020A8
:1034C00064494870614803F09DFC614803F0A8FC22
:1034D000604803F022FD604803F0E6FC5F4803F01B
:1034E00011FD6148007802218843801C5E49087004
:1034F0005A4800E04AE00078C006C00F002841D0DA
:1035000056480078082188435449087008460078D6
:10351000102188435149087034E050480078000772
:10352000C00F002819D000204A494870474803F0CE
:103530004DFC474803F074FC464803F0F3FC464852
:1035400003F0B2FC454803F0DDFC47480078022157
:103550008843801C4449087014E03C4803F044FC54
:103560003B4803F067FC3B4803F0D7FC3A4803F0C4
:103570009BFC3A480078C007C00F002802D13748AA
:1035800003F0C5FC00203849487057E03648007801
:103590008007C00F00284CD029480078C007C00F12
:1035A000002811D1264800780007C00F00280BD151
:1035B000234800788007C00F002805D120480078F4
:1035C000C006C00F002806D0274800780221884393
:1035D0002549087032E024484078FA2823DA214847
:1035E000807801281FD01E48007C00281BDD1C4865
:1035F000807C0A2817D01C484078401C1A49487023
:10360000002014494870114803F0E0FB104803F013
:1036100011FC104803F086FC0F4803F045FC0F48EE
:1036200003F070FC0AE000200F4948700320C870C6
:1036300004E000200C4948700320C87010BD000051
:10364000940A0020080A00203004002034040020DE
:10365000B00900209C090020350400203804002017
:10366000200B00203E040020A40A0020374A90428C
:1036700002D200224A8067E0354A904202D20122FB
:103680004A8061E0334A904202D202224A805BE0E3
:10369000314A904202D203224A8055E02F4A90429A
:1036A00002D204224A804FE02D4A904202D20522E3
:1036B0004A8049E0294A904202D206224A8043E0E9
:1036C000284A904202D207224A803DE0264A904290
:1036D00002D208224A8037E0244A904202D20922CC
:1036E0004A8031E0224A904202D20A224A802BE0EC
:1036F000204A904202D20B224A8025E01E4A904284
:1037000002D20C224A801FE01C4A904202D20D22B3
:103710004A8019E01A4A904202D20E224A8013E0EF
:10372000184A904202D20F224A800DE0164A904277
:1037300002D210224A8007E0144A904202D211229B
:103740004A8001E012224A80704700007440000065
:10375000684200005C4400005046000044480000FD
:10376000384A0000204E00001450000008520000AB
:10377000FC530000F0550000E4570000D859000049
:10378000CC5B0000C05D0000B45F0000A8610000D9
:10379000F8B505460C46254804F042F8A18868545F
:1037A000A0880F2802DAA088401CA0802878AC28C6
:1037B00003D00020A080287036E0A088022807D11E
:1037C0006878052830D00020A080287068702BE031
:1037D000A088032807D1A8780A2825D00020A08037
:1037E0002870687020E0A0880F281DD100270126CE
:1037F00004E0A85DC01987B2701CC6B20D2EF8D3C4
:10380000687B0002A97B401880B200900098874234
:1038100008D1284604F01DF8002060802078400878
:10382000400020700020A080F8BD0000003801405A
:10383000F8B505460C46254803F0F2FFE1886854C8
:10384000E0880F2802DAE088401CE0802878AC2865
:1038500003D00020E080287036E0E088022807D1FD
:103860006878012830D00020E080287068702BE054
:10387000E088032807D1A8780A2825D00020E08016
:103880002870687020E0E0880F281DD100270126ED
:1038900004E0A85DC01987B2701CC6B20D2EF8D323
:1038A000687B0002A97B401880B200900098874294
:1038B00008D1284603F0B8FF207840084000207067
:1038C000002060800020E080F8BD0000004400403F
:1038D00010B5F9480078C009002810D1F7480078E1
:1038E000C007C00F002805D00420F5490872F5492B
:1038F000887004E00120F2490872F2498870F148AA
:103900008078F149C872EF48807801282FD1ED48BE
:10391000C078012824D1EB484078002807DD08460C
:10392000807AF02188431030E749887226E0E74822
:10393000807802280CD0E448807AF0218843E4495A
:1039400049780901F02211400843DF49887215E0E7
:10395000DD48807AF02188432030DB4988720DE011
:10396000D948807AF0218843D749887206E0D64842
:10397000807AF02188431030D3498872D14880780A
:10398000CF490872D348007D48720846807A0128E2
:103990000BD1CE48C079401CC0B2CC49C871642854
:1039A00006DD0220C649887202E00020C749C871BE
:1039B000C648C078002807D1C748407DC008C0006D
:1039C000401CC549487512E0C048C078012807D19D
:1039D000C148407DC008C000001DBF49487506E0D1
:1039E000BD48407DC008C000801CBB494875B9482F
:1039F000007CB9498875B3488078022842D1B14823
:103A0000407800282DD1AF4800788007C00F0028EB
:103A100027D1AC48808B002812DDAA48808B401E3D
:103A2000A8498883AC48007E302188431030AA49D9
:103A300008760846007EC008C000401C08761DE0DD
:103A4000A548007E302188432030A34908760846E7
:103A5000007EC008C000801C087600209949888339
:103A60000CE09D48007E3021884310309A4908764A
:103A70000846007EC008C000401C0876002091491E
:103A8000886145E000208F4988839348007EC00804
:103A9000C000C9784907490F08438F49087689480B
:103AA000807804282AD10846807D64281BD1854867
:103AB0008069401C834988617D21C90088420AD9F8
:103AC0000846804988618448007E30218843203040
:103AD000814908761CE08048007E30218843103000
:103AE0007D49087614E00020764988617A48007E96
:103AF0003021884310307849087609E00020714968
:103B000088617548007E30218843103072490876FC
:103B100072480078C007C00F002807D16E48007EA9
:103B2000C021884380306C49087606E06A48007EF0
:103B3000C02188434030684908766248C07805282B
:103B400017D16748007D00280BDD6548007D0728F8
:103B500007DA6148007F00090001401C5E490877D0
:103B60000EE05D48007F00090001801C5A4908777B
:103B700006E05948007F00090001801C564908777B
:103B80005548007F0009002813DD56480088401C76
:103B900080B254490880FF21F53188420CDD4E483F
:103BA000007FF02188434C49087700204D49088068
:103BB00002E000204B4908804B480078C007C00F46
:103BC000002803D14648007D072819D14248407F8C
:103BD000000900014049497FFC2211400907090FF3
:103BE00008433D4948770846407F00090001497F66
:103BF000012211430907090F08433749487718E0A4
:103C00003548407F000900013349497FFC221140BB
:103C10000907090F0843304948770846407F0009E3
:103C20000001497F022211430907090F08432A496D
:103C300048772B4880788007C00F00280DD1264890
:103C4000407F000900012449497FF3221140090700
:103C5000090F08432049487718E01F48407F0009B2
:103C600000011D49497FF32211400907090F08434C
:103C7000194948770846407F00090001497F04221E
:103C800011430907090F084313494877174800787B
:103C9000C007C00F002807D11148007D002827D198
:103CA0000848C078052823D10B48407FF02188437D
:103CB00010300949487722E0C40A0020320400206D
:103CC0004D0A0020A40A0020580A00203E040020CB
:103CD000680A0020200B0020280A00203004002061
:103CE000080A0020160400203504002038040020B3
:103CF000F948407FF02188432030F7494877F74959
:103D000088686421FCF790FA0004000EF249887775
:103D1000F24988686421FCF787FAEF49C8770021E7
:103D2000ED4820300170EE4988886421FCF786FA5E
:103D30000446C017000E001900120002201AC1B27A
:103D4000E54820304170E54988686421FCF76CFA49
:103D50000004010EE04820308170E0498868642149
:103D6000FCF762FAC1B2DC482030C170DD4840780F
:103D7000002809D1D8482030007900090001401CF2
:103D8000D5492031087108E0D34820300079000976
:103D90000001801CD04920310871D2480078C0074A
:103DA000C00F00280DD0D048C07B012809DACA48CE
:103DB00020300079F02188432030C7492031087134
:103DC00008E0C54820300079F02188431030C2490E
:103DD00020310871C548807F00090001401CC3499B
:103DE00088770846807FF02188433030BF49887744
:103DF0000846C07F00090001BD4989780907090FFD
:103E00000843BA49C877BB488078002807D10846DC
:103E1000C07FF02188431030B449C87712E0B5481C
:103E20008078012807D1B148C07FF0218843203035
:103E3000AE49C87706E0AD48C07FF02188434030E6
:103E4000AA49C877AC48417DA84820300170AA48EB
:103E5000817DA64820304170A748017CA3482030CE
:103E60008170A548807C002805DDA348817C9F489F
:103E70002030C17039E0A148C07C002805DD9F4892
:103E8000C17C9A482030C1702FE09D48007800071F
:103E9000C00F002804D0082194482030C17024E0CD
:103EA000984800788007C00F002804D009218F4867
:103EB0002030C17019E094480078C007C00F002876
:103EC00004D0222189482030C1700EE08F4800784C
:103ED000C007C00F002804D00D2184482030C170D5
:103EE00003E0002181482030C1708948C078002853
:103EF00009D17E482030007900090001401C7B492F
:103F0000203108711AE08248C078022809D1774828
:103F10002030007900090001801C744920310871AB
:103F20000CE07B48C078012808D170482030007927
:103F300000090001C01C6D49203108716B48203018
:103F40000079F0218843724949780901F022114033
:103F5000084366492031087169480078C006C00FDF
:103F6000002804D002216148203041710EE06448ED
:103F700000784007C00F002804D003215B482030A0
:103F8000417103E001215948203041715848C078FF
:103F900005280FD1514800784007C00F002804D0F1
:103FA000042152482030817108E001214F4820301F
:103FB000817103E002214D4820308171554800781D
:103FC000C007C00F002809D048482030C079F02130
:103FD0008843103045492031C87108E043482030FB
:103FE000C079F0218843203040492031C8713C48D5
:103FF0000078C007C00F002809D03C482030C079A5
:1040000000090001401C39492031C87108E03748D7
:104010002030C07900090001801C34492031C8716A
:104020003D488088FF210902084001122F482030B6
:104030000172394801792D48203041723648408A52
:10404000FF210902084001122848203081723248BD
:10405000817C26482030C1722F480088FF21090248
:10406000084001122148203001732B4801781F4875
:10407000203041732848C08AFF21090208400112FC
:104080001A48203081732448817D18482030C1733C
:104090002148008BFF2109020840011213482030FB
:1040A00001741D48017E1148203041741348C17BC2
:1040B0000E48203081741148017C0C482030C174B6
:1040C0000E48417C0948203001750C48817C074826
:1040D0002030417510BD0000280A0020080A002089
:1040E00038040020680A0020940A0020700800208C
:1040F000A40A00203E040020200B0020390B0020E1
:10410000B00900209C0900205A0800206408002003
:104110008A0A002035040020D80A002010B5FFF7D5
:10412000D7FB8A4803F0D9FB894803F0ABFB8948E9
:1041300003F067FC884803F0EFFB884801F0B5F80E
:10414000874801F0A1F8864801F0C0F8854800785A
:10415000C00900287ED08248407A401CC0B2804905
:104160004872052863DB0020487202217E4803F074
:10417000E1FA7D4840687A498872002202217A4833
:1041800003F006FB00207649887201204003FDF70A
:1041900071FF734800788007C00F002814D10A23EC
:1041A0006B4A7149714800F0CFFF6D4800780221D9
:1041B0008843801C6A4908700846007804218843B7
:1041C000001D6749087025E0654800784007C00F6A
:1041D00000280CD01E235F4A6349644800F0B4FFF6
:1041E0005F480078042188435D49087012E0152378
:1041F000594A5D495D4800F0A7FF594800780221FF
:104200008843574908700846007804218843001DF8
:104210005349087001220221534803F09BFA534886
:1042200000F0B7FF012202214F4803F0B1FA4B48DA
:10423000007A401CC0B249490872052817DB0020EB
:10424000087288712020FDF715FF08233F4A48496E
:10425000464800E00CE0283800F076FF01220221F9
:10426000434803F077FA4148283800F092FF6BE0AA
:104270003B48407A401CC0B239494872052863DB8C
:10428000002048720221384803F054FA364840684A
:104290003349887200220221334803F079FA002062
:1042A0002F49887201204003FDF7E4FE2C48007876
:1042B0008007C00F002814D10A23254A2A492B4819
:1042C00000F042FF2648007802218843801C2449E0
:1042D00008700846007804218843001D20490870B2
:1042E00025E01F4800784007C00F00280CD01E238F
:1042F000184A1D491D4800F027FF1948007804217D
:1043000088431749087012E01523134A16491748C5
:1043100000F01AFF12480078022188431049087003
:104320000846007804218843001D0D4908700122C9
:1043300002210D4803F00EFA0C4800F02AFF01227A
:104340000221094803F024FA10BD00004D0A0020A4
:10435000580A002070080020280A00205A0800206F
:1043600064080020C40A00200044004044000240C9
:104370000038014010B5104800897D21C9008842ED
:1043800019DB0E48C078030003F0EEFB0613040AA5
:10439000070D1013FFF710F80CE0FEF71BFE09E005
:1043A000FEF7C8FB06E0FEF73DFB03E0FDF7E2FE8B
:1043B00000E000BF00BF10BDC40A0020A40A002016
:1043C00005E0044900E0491E0029FCD1401E0028F8
:1043D000F7D17047781E00000EB50121084602F0A3
:1043E000C9FA0120000501900021684601720821E8
:1043F00041720121817201A800F030F80120C0044F
:1044000001900021684601720821417201218172E8
:1044100001A800F023F818216846017001214170BD
:10442000817000F0BDFE0EBD01494861704700007B
:1044300000040140014600200022074B1B680B408E
:104440001A46054B5B690B40002B03D0002A01D0B4
:10445000012000E0002070470004014000212149B4
:104460008279002A35D00A46126803689A430B46BF
:104470001A600A46526803689A430B465A600279EA
:1044800051180A6803681A430A60164A926803685A
:104490009A43144B9A601A46D26803689A43114BA8
:1044A000DA604279102A0CD11A46926803681A43DE
:1044B0000C4B9A601A46D26803681A43094BDA60BB
:1044C0000EE00849427951180A6803681A430A60E5
:1044D00006E00449027951180A6803689A430A60A1
:1044E000704700000004014010B52248C078012840
:1044F0000BD121488078022803D1204820498861C7
:1045000006E020481E49886102E01E481C49886177
:104510001D4800891D49096840181C4908601C484D
:104520000078401CC0B21A490870082813DB00202C
:10453000087016480068C0081449086015491348F7
:104540000068FFF793F80E4910480068FEF74AFA32
:1045500000200E49086031200F494883F8208883E5
:10456000FF203730C883FF20F1300884FF20373028
:10457000488410BDA40A00203E0400204C5E0000C8
:10458000B0090020DC460000CE0A002050040020C4
:10459000540400209C090020D80A002010B50446CD
:1045A000002C05DD10210920C00600F083F904E08D
:1045B00010210920C00600F07BF910BD10B504469B
:1045C000002C05DD01214902044800F073F904E0E4
:1045D00001214902014800F06BF910BD00040048B8
:1045E00010B50446002C05DD01218903044800F0C4
:1045F00061F904E001218903014800F059F910BD77
:104600000008004810B50446002C05DD0121C9034F
:10461000044800F04FF904E00121C903014800F00B
:1046200047F910BD0008004810B50446002C05DD10
:1046300080210920C00600F03DF904E08021092016
:10464000C00600F035F910BD70B5054604241048C9
:1046500000F07CF80446042C18D10E4800690221B1
:1046600008430C4908610846456100694021084338
:1046700008490861064800F069F80446012C05D095
:10468000044800690449084002490861204670BD99
:10469000FF0F000000200240FD1F000004200D4914
:1046A000C968C907C90F002901D0012010E00949D4
:1046B000C96804221140002901D0022008E0054900
:1046C000C96810221140002901D0032000E0042015
:1046D0007047000000200240034800698021084321
:1046E00001490861704700000020024070B505468E
:1046F0000E4604240F2000F029F80446042C12D1A1
:104700000A48006901210843084908612E800F20EA
:1047100000F01CF80446012C05D004480069044947
:10472000084002490861204670BD00000020024098
:10473000FE1F000002480349486003484860704774
:104740002301674500200240AB89EFCD70B50446D8
:104750000425FFF7A3FF054605E003F09BFBFFF7E9
:104760009DFF0546641E012D01D1002CF5D1002CC2
:1047700000D10525284670BDFCB50246002500265F
:1047800001960020002300240096CE7835072D0FD7
:10479000CE7810273E40002E01D08E7835430E781B
:1047A000002E27D01468002021E0012686403346E1
:1047B0000E881E400196019E9E4217D183000F264F
:1047C0009E4000962746009EB7433C462E469E409C
:1047D0003443CE78282E03D101268640566105E069
:1047E000CE78482E02D1012686401661401C08284A
:1047F000DBD314600E88FF2E2CDD5468002026E0E9
:10480000064608360127B7403B460E881E400196F3
:10481000019E9E421AD183000F269E400096274695
:10482000009EB7433C462E469E403443CE78282E09
:1048300004D1064608360127B7405761CE78482E86
:1048400004D1064608360127B7401761401C0828E6
:10485000D6D35460FCBDF0B5002300244D07EE0E06
:104860001546B5402B46CD10002D0BD1056A4E07DD
:10487000F70E0F26BE40B5430562056A1D432C4660
:1048800004620AE0456A4E07F70E0F26BE40B543A4
:104890004562456A1D432C464462F0BD0246002035
:1048A00093680B40002B01D0012000E000207047EE
:1048B000416170470161704708B501210F20400434
:1048C00002F038F8902168460180032181701021A0
:1048D000C17069460920C006FFF74EFF24496846AB
:1048E0000180032181701021C17069462148FFF7C2
:1048F00043FF07214903684601800321817010218D
:10490000C17069461C48FFF737FF80216846018067
:10491000032181701021C17069461848FFF72CFFF0
:10492000174968460180032181704821C17069469A
:104930000920C006FFF720FF1249684601800321C5
:1049400081704821C17069460A48FFF715FF0422AB
:1049500006210848FFF77FFF042207210548FFF7DB
:104960007AFF0120FFF72AFE0120FFF717FE08BD9E
:10497000C20600000004004800080048000C00487F
:10498000621900000111000010B583212D488170CB
:104990002D480078400840002B49087008460078F0
:1049A000022188432849087008460078042188437A
:1049B000254908700846007810218843224908706C
:1049C00008460078802188431F49087000208870BD
:1049D000C87008718871C87108811C49C873C8748F
:1049E000087588748875487548740874C8750876A1
:1049F0001748007808218843154908700846007850
:104A0000042188431249087012480E4940398882AF
:104A1000002011498880C880012010494870104842
:104A200010490880104802F0DFF9104802F002FA3D
:104A30000F4802F072FA0F4802F036FA0E4802F000
:104A400061FA10BD180B0020C40A0020200B0020C2
:104A50003E040020FF0F0000680A00208A0A0020A0
:104A600055AA00005804002034040020B00900209A
:104A70009C090020350400203804002010B50022D5
:104A80002349244803F0C2F9234A0121214803F0B5
:104A900092F8214A06211F4803F08DF81E4A08218A
:104AA0001C4803F088F81B4803F0D0F97D23DB0095
:104AB00000221A491A48FCF7ADFB1A4B1A4A17494B
:104AC0001A48FCF7A7FB1A4B164A14491948FCF779
:104AD000A1FB194A01211248FCF782FA164A052166
:104AE0000F48FCF77DFA154A01211048FCF778FAC7
:104AF000134A07210F48FCF773FA0E48FCF7A0FB96
:104B00000A48FCF79DFB0648FCF79AFB10BD000025
:104B1000C57F000868090020857B0008B97F000870
:104B2000C0080020D80E0000C4090000F8080020CA
:104B30000310000030090020810F0008A90F0008B1
:104B4000C50F000801202949887200202849C87132
:104B500028494861886128480078C007C00F0028AC
:104B600042D10846C078032807D00846C0780428F8
:104B700003D00846C078022836D12048C07C0028DF
:104B800003DD00201D49C87402E001201B49C874E0
:104B90001A48C07C01280BD119480079102188439C
:104BA0001030174908711548807D1449C87511E007
:104BB00013480079202188432030114908710F489B
:104BC000C07D0E4988750846807D0E49C880012049
:104BD0000D4908700648007840084000401C044910
:104BE0000870002005498883704700004D0A0020A6
:104BF0003E040020A40A0020940A0020D8090020C6
:104C000046040020580400205808002001208E4946
:104C1000887200208D49C8718D49486188618D482E
:104C20000078C007C00F002870D18B48C07C0028D6
:104C30006DDD8948C07D012805DA8748C07D401CAC
:104C40008549C87502E000208349C8758248C07D47
:104C5000002807D18148007802218843801C7F49C1
:104C60000870DFE07C48C07D012807D17B480078D0
:104C700004218843001D79490870D3E07648C07D3F
:104C8000022807D175480078082188430830734905
:104C90000870C7E07048C07D032807D16F480078CE
:104CA0001021884310306D490870BBE06A48C07D10
:104CB000042807D1694800782021884320306749BB
:104CC0000870AFE06448C07D052807D163480078CC
:104CD00040218843403061490870A3E05E48C07DB0
:104CE000062807D15D4800788021884380305B49E1
:104CF000087097E05848C07D072809D15748407888
:104D000040084000401C554948708BE09BE023E080
:104D10005148C07D082807D1504840780221884377
:104D2000801C4E4948707DE04B48C07D092807D162
:104D30004A48407804218843001D4849487071E082
:104D40004548C07D0A286DD14448407808218843F1
:104D500008304249487065E03F48007E032805DA84
:104D60003D48007E401C3C49087602E000203A495C
:104D700008763948007E002807D13848007902219A
:104D80008843801C3549087122E03348007E0128A1
:104D900007D13248007904218843001D2F4908714A
:104DA00016E02D48007E022807D12C480079082102
:104DB00088430830294908710AE02748007E032803
:104DC00006D12648007940084000401C234908715C
:104DD0002148007E03280DD11520C0431E4948817B
:104DE000002088810846007804218843001D1A4964
:104DF000087017E01848007E00280DD11020C0432D
:104E0000154948810020888108460078042188439C
:104E1000001D1149087005E00F48007804218843FF
:104E20000D4908700C48007E0D49088101200D498C
:104E300008700648007840084000401C034908708C
:104E400000200549888370474D0A00203E04002059
:104E5000A40A0020940A0020D8090020460400205B
:104E600058040020580800200548C07C012805D1BE
:104E700000200349C8740846807DC875704700004B
:104E8000D809002070B505460C46854800780028F2
:104E900046D184480078410020461E30405A82495D
:104EA000088008460078814908807F480088001201
:104EB0007D4908807D4800780006000C7B49088009
:104EC0007948008809880843774908801020784984
:104ED0000870002077490870774908707748007893
:104EE000182808DA012001F0F3FE74480078401C0D
:104EF0007249087014E071480078242810DA002004
:104F000001F0E6FE6D480078401C6C4908700846C8
:104F10000078242804D1002008700120604908701E
:104F20005F480078012844D162480078082818D1E9
:104F300061480078002814D1012001F0C9FE012049
:104F400001F0D6FE5D480078401CC0B25B49087095
:104F50000C2853DD0420524908700020574908707E
:104F60004CE0002001F0B4FE4F480078C007C00FAD
:104F7000002803D0012001F0BBFE02E0002001F078
:104F8000B7FE4948008840104749088049480078E2
:104F900047490978884208DA46480078401C454964
:104FA000087002203E49087028E005203C4908703E
:104FB00024E03B480078022803D0394800780328D1
:104FC00006D1012001F084FE01203549087015E06A
:104FD00033480078042811D1002001F079FE3748C9
:104FE0000078401CC0B2354908700C2806DD00204E
:104FF000087001202A4908702F4908702848007855
:1050000005284CD1012001F063FE012001F070FE63
:105010002A480078401CC0B2284908700C283EDDA0
:10502000002008701E490870A08D1E49097888422A
:1050300005DD1C480078401C1A4908702FE0608983
:10504000A189884221D16088262804D11C4860812A
:105050000020A0810BE06088292808D120788007F3
:10506000C00F002803D0164860810020A0810020D6
:105070006080608820810020A080E080607D2075B5
:10508000287840084000287006E0207804218843F2
:10509000207000206081A08100200249087070BD4E
:1050A00023040020240400202604002028040020DB
:1050B00021040020200400202504002022040020D8
:1050C000A55A000010B51E20FFF77AF9FFF7F4FB90
:1050D0004B214901012001F0DDFF7D210901144828
:1050E00002F04EF8FBF7F8FAFBF7FCFA7D20C0005F
:1050F00001F074FF4B20C00102F01EFA4B20C001EA
:1051000002F0A6FA0A230B4A0B490C4800F01CF8DF
:1051100008230B4A0B490948283800F015F8FCF71A
:1051200089FBFFF7ABFCFFF72FFC01F0C3FC10BDC0
:10513000BF120000580A0020004400404400024012
:105140004D0A002000380140F0B58BB007460C46F0
:1051500015461E460121084601F0ECFB3846FCF7D7
:105160009BFF00940195102002900396002004906C
:1051700080200590002006900790089001200003F1
:10518000099000200A9069463846FCF7D3FF0BB01F
:10519000F0BD10B5044601212046FCF771FF10BD9B
:1051A00000218278002A27D0184A03231B02D21834
:1051B00003789B109B00D15802789207D30EFF22F0
:1051C0009A400B469343194642789207120E037891
:1051D0009B07DB0E9A4011430C4A03231B02D21893
:1051E00003789B109B00D1500278D306DB0E01227E
:1051F0009A40064B1A6007E00278D306DB0E0122C4
:105200009A40024B80331A607047000000E100E0D2
:1052100010B5002819DA1A4A03071B0F083B9B0830
:105220009B00D2588307DC0EFF23A3409A438B07D1
:105230001B0E8407E40EA3401A43114B0407240FEE
:10524000083CA408A4001A5118E00E4A03231B02CC
:10525000D21883089B00D2588307DC0EFF23A3409B
:105260009A438B071B0E8407E40EA3401A43054B99
:10527000032424021B198408A4001A5110BD000045
:105280001CED00E000E100E04188491C89B241804A
:10529000FF22F532914207DB00214180C180017875
:1052A00049084900491C017070474188491C89B26E
:1052B0004180FF22F532914207DB0021418081804D
:1052C000017849084900491C017070478188491CD0
:1052D00089B28180FF222D32914205DB002181803D
:1052E000017808229143017070470A214180002112
:1052F00001817047102141800021018170472F21D9
:10530000418081800021018170471C214180002162
:1053100001817047392141800021018170473A2184
:1053200041800021018170473B21418000210181A2
:1053300070473B21418020218180002101817047FD
:105340002A214180818000210181704735214180DF
:105350000021018170472E2141808180002101813F
:10536000704701214180002101817047192141804E
:10537000818000210181704721214180002101812C
:1053800070472321418081800021018170472021C5
:1053900041800021018170473321418081800021BB
:1053A000018170472621418000210181704732210F
:1053B00041800021018170471F214180002101812E
:1053C00070472221418081800021018170473C216A
:1053D00041800021018170473421418000210181F9
:1053E00070470221418000210181704705214180E1
:1053F0000021018170470421418000210181704713
:10540000032141800021018170470B21418000214F
:10541000018170471E2141800021018170470621D2
:1054200041800021018170470821418000210181D4
:105430007047092141800021018170472921418065
:105440000021018170471521418081800021018167
:105450007047152141801A21818000210181704708
:105460001621418081800021018170471A214180ED
:10547000002101817047302141808180002101811C
:105480007047262141800021018170472D214180F4
:1054900081800021018170472B2141808180002182
:1054A000018170472721418000210181704713212C
:1054B00041800021018170471721418081800021B6
:1054C000018170471421418000210181704707212B
:1054D00041800021018170473821418000210181F4
:1054E000704737214180002101817047362141807A
:1054F00000210181704731214180002101817047E5
:10550000282141800021018170472C214180818028
:105510000021018170472C214180222181800021BE
:1055200001817047122141800021018170471821BB
:1055300041800021018170471B21418000210181B0
:1055400070471B2141801C2181800021018170470F
:105550001B214180352181800021018170471D215F
:10556000418000210181704711214180002101818A
:10557000704725214180002101817047242141800D
:10558000002101817047000000B5F948C078022869
:1055900020D0F8480078C007C00F002816D0F64881
:1055A000C07B01281BDAF54880788006C00F0028F0
:1055B00015D1F2488078202188432030EF49887047
:1055C000ED48C07B401CEC49C87308E00020EA4964
:1055D000C87304E00020E849C873E6490870E6484B
:1055E0000078C007C00F00287ED1E148C0780428A9
:1055F0002ED1E348007840084000E14908700020BF
:105600004880E048807C102813D1DF480078C0072C
:10561000C00F00280DD0DD480078C007C00F00285B
:105620003DD0D5480078202188432030D2490870E9
:1056300035E0D148007820218843CF490870D3480D
:10564000007840084000D14908700020488026E0DA
:10565000C948007820218843C7490870C8480078A5
:10566000C007C00F00280AD00D20C949C875C2481C
:105670000078102188431030BF4908700FE0C348FC
:105680000078C007C00F002809D02220C049C87583
:10569000B9480078102188431030B7490870B948DC
:1056A000807C0B2821D1B448007840084000401C81
:1056B000B1490870B14840790007C00F00280FD1E8
:1056C0000846807902280BDAAC48407908218843E3
:1056D0000830AA494871A8488079401CA6498871B9
:1056E0000B20AB49C87503E045E20020A249887150
:1056F000A848407802286ED1A7484078012807D0F2
:105700009B48C07801282CD1A4488078022828D052
:10571000A148007D00280BDD9F48007D062807DAA0
:105720009D48007D9C49887508464068086103E0F3
:1057300000209949887508610B2097494875002019
:10574000C860087548608C48C079002802D10120E3
:105750008949C87190484078012802D103208E49B8
:1057600048708548C079002862DD8348C0790228E6
:1057700032DA824800794006C00F002823D17E48E3
:10578000C079401C7C49C8717C480079402188431D
:1057900040307A49087102207D49487606207649D2
:1057A000087100207E4948807148807801280BD11B
:1057B0007A488078012807D108460078102188436C
:1057C0001030774908705DE07548007808218843FB
:1057D0007349087056E03FE067480079002805DD0E
:1057E00065480079401E6449087106E06048C07849
:1057F000052802D00120664948765D48C078012816
:1058000007D16648807800283CD064488078012819
:1058100038D001205F4948705548C078012831D000
:105820005348C07805282DD001205949487629E0F1
:1058300051480079002805DD4F480079401E4E4947
:1058400008711FE04A48C07805281BD00120504944
:1058500048765049487015E047480079002805DD32
:1058600045480079401E4449087108E04048C07826
:10587000052804D001204649487646494870002052
:105880003D49C8713A48C078022870D03848C0787D
:105890000428FAD03648C078052803D13E48007D58
:1058A000072823D03B48C078022820D1324800780E
:1058B00002218843801C30490870022034498876D0
:1058C00035484078012803D02948807801280DD137
:1058D0002948007A002802D10120274908722E4861
:1058E0004078012802D103202B494870ABE02948B9
:1058F000C078012856D120484078002803D11E489E
:105900004088002812D01C484078002804DD1A483E
:105910004078401E1849487017484088002804DD28
:1059200015484088401E144948808CE01248007891
:1059300002218843801C104908700320144988768E
:1059400015484078012803D00948807801287AD189
:105950000948407A002802D10120074948720E48C0
:10596000407801286FD103200B4948706BE067E055
:10597000A40A0020680A0020940A0020460400209F
:1059800064080020200B0020320400205A08002068
:10599000280A00208A0A0020080A00203E0400206D
:1059A00038040020CE48407E012827D1CD48007819
:1059B000C007C00F002821D1CA4800780007C00FD7
:1059C00000281BD1C7480078C006C00F002815D199
:1059D000C5484078032811D1C348007D07280AD064
:1059E0000120BF494876C1494870BF4880780221EC
:1059F0008843BD4988700120BB494870B948007A86
:105A0000022802DB0020B7490872B648407A022813
:105A100002DB0020B3494872B2484078F02805D034
:105A20000020B04948700120AD4988760020AD497A
:105A300048800846007802218843AA49087002E09D
:105A40000120A7498876A748007A00282FDDA848BA
:105A5000C078042827D0A648C078022823D0A548BB
:105A60004079C007C00F002851D19E48007A032812
:105A70004DDA9C48007A401C9A490872F020488010
:105A80009C48C0792021884320309A49C8719848A1
:105A9000C07805283BD19348007A032837D10020ED
:105AA0009049087233E000208E4908722FE08D483B
:105AB000407A00282BDD8E48C078042824D08C48FA
:105AC000C078022820D08B480079C00900281ED158
:105AD0008448407A02281ADA8248407A401C814978
