:020000040800F2
:10000000A8110020590100088B0100088D0100088B
:100010008F01000891010008930100080000000012
:100020000000000000000000000000009501000832
:10003000970100080000000099010008AD6A00085F
:100040009D0100089D0100089D0100089D01000818
:100050009D0100089D0100089D0100089D01000808
:100060009D0100089D0100089D0100089D010008F8
:100070009D0100089D0100089D0100089D010008E8
:100080009D0100089D0100089D0100089D010008D8
:10009000C90000209D0100089D0100089D01000885
:1000A000F11100089D0100089D010008AD700008D5
:1000B000C571000800F002F800F03EF80CA030C84E
:1000C000083824182D18A246671EAB4654465D46D4
:1000D000AC4201D100F030F87E460F3E0FCCB64660
:1000E0000126334200D0FB1AA246AB4633431847E1
:1000F000EC7A00001C7B0000103A02D378C878C16B
:10010000FAD8520701D330C830C101D504680C6059
:10011000704700000023002400250026103A01D378
:1001200078C1FBD8520700D330C100D50B607047AF
:100130001FB51FBD10B510BD00F09AFA1146FFF7AC
:10014000F7FF07F07BFC00F0B2FA03B4FFF7F2FF11
:1001500003BC00F0B9FA0000144880F30888144882
:100160000168090E134A9142FFD1134813490160F7
:100170001348144901601448124901600E4813499C
:1001800001601348804713480047FEE7FEE7FEE79B
:10019000FEE7FEE7FEE7FEE7FEE7FEE7FEE700001C
:1001A0000D480E490E4A0F4B70470000A811002061
:1001B000040000001F0000001C10024000000004AA
:1001C00018680040120000001C6800400000000099
:1001D000AD6B0008B5000008A80B0020A811002096
:1001E000A80D0020A80D002001E004C0091F04296B
:1001F000FBD28B0701D50280801CC90700D002709A
:10020000704700290BD0C30702D00270401C491E62
:10021000022904D3830702D50280801C891EE3E7EC
:100220000022EEE70022DFE7002203098B422CD3F5
:10023000030A8B4211D300239C464EE003460B4336
:100240003CD4002243088B4231D303098B421CD398
:10025000030A8B4201D394463FE0C3098B4201D38A
:10026000CB01C01A524183098B4201D38B01C01AC2
:10027000524143098B4201D34B01C01A5241030939
:100280008B4201D30B01C01A5241C3088B4201D3E8
:10029000CB00C01A524183088B4201D38B00C01A95
:1002A000524143088B4201D34B00C01A5241411ABC
:1002B00000D201465241104670475DE0CA0F00D09F
:1002C0004942031000D34042534000229C46030998
:1002D0008B422DD3030A8B4212D3FC22890112BA1E
:1002E000030A8B420CD3890192118B4208D38901F6
:1002F00092118B4204D389013AD0921100E089090E
:10030000C3098B4201D3CB01C01A524183098B42EE
:1003100001D38B01C01A524143098B4201D34B01D7
:10032000C01A524103098B4201D30B01C01A52413A
:10033000C3088B4201D3CB00C01A524183088B42C1
:1003400001D38B00C01A5241D9D243088B4201D34A
:100350004B00C01A5241411A00D201466346524135
:100360005B10104601D34042002B00D54942704734
:1003700063465B1000D3404201B50020C046C04632
:1003800002BD7047704770470346CA02400D10B562
:1003900010430A1504D00124E4072043002A05DB9A
:1003A0000A4CA21A04D4D040FF2A00DD002010BD60
:1003B0004A00002B01D0012000E00020101801228B
:1003C0005205D042F2D8C817C04310BD1E04000029
:1003D0001F22030C02D10F22000402D0030E03D00F
:1003E00004E00020014670470002083A030F01D1E3
:1003F0000001121F830F01D18000921E002801DB33
:100400004000521E120551184205C01241181046F4
:100410007047C10FC90700D0404201229207114323
:10042000D6E701218907D3E7F0B58B4C0F092546A4
:1004300089B0BD437BD01D092646AE43FAD00E4697
:100440005E402740F60F3E43254071D024012142F3
:10045000FBD0FF24AD19A4042D1B039501252D0508
:10046000DB02DB0AC9022B43C90A29431E01090129
:10047000040F130F050121431701880B82039143D9
:100480002D098C46A90B1E438A039543B30B9A038F
:1004900096433F09BA0B9403A74302962E467E4328
:1004A0000497B6464E19D7190C4601965443059742
:1004B0007E43371B7646BF1B3601B646BE0B361948
:1004C00000967646BC043719009C01D3641C009446
:1004D0006400002F01D001263443029E049F75431F
:1004E00066467E430496760034196E0034190094F3
:1004F000029C019E1C196643751BAE460694654618
:100500004519059C05956C43594375460891691A30
:100510000191049E01465143A41B0491611A009C61
:100520000791E10605D061090122114302E072E062
:100530006EE06109089D00272C0A2D066918049DAC
:100540007C412A0A2D066918019D6241AC0DAD025D
:100550006D185441079A910D920255196141029A02
:10056000644658435443069B059A5A43121A131B78
:100570009A0E9B015B187A41010B0005C31851418B
:10058000220A200644195A419A4200D2491C0120ED
:100590004002814203D315230226F64302E01423CE
:1005A0000326F6432020C51AA9401746AF40DA407B
:1005B0000A4320460399D8400914731819055118A5
:1005C000039A3843D2075140AC4009D001229440ED
:1005D00006D30022401C5141002C01D140084000AC
:1005E0001E4A934212D3012203989206904207DBDF
:1005F0000520400709181A480143C012414004E091
:10060000032040070818C10FC907002009B0F0BD3A
:100610000020F107FAE705180C464C4111486D42DD
:10062000A04115D394181A465A410E48644290418D
:100630000ED301204A004005824209D35A0082426B
:1006400006D35940C90F084AC90700201143DDE706
:1006500000200649DAE700000000FF07FE0700005F
:10066000FFFFFF7F0000E0FF0000F07F0000F87F49
:10067000754600F025F8AE46050069465346C008A9
:10068000C000854618B020B5FFF78AFD60BC002782
:100690004908B6460026C0C5C0C5C0C5C0C5C0C54E
:1006A000C0C5C0C5C0C5403D49008D46704710B5A6
:1006B0000446C046C0462046FFF747FD10BD000077
:1006C00000487047440B002001491820ABBEFEE7EC
:1006D000260002007047000003B40148019001BDEC
:1006E0007900002003B40148019001BDD50100202C
:1006F00003B40148019001BD0103002042690A438F
:1007000042617047002904D0426801231A434260C5
:1007100003E042685208520042607047002904D04A
:10072000826804231A43826003E0826804239A43A8
:1007300082607047002A03D083680B43836002E025
:1007400083688B438360704710B502460020506871
:10075000C00BC0030C684B6823431843506090687B
:10076000044B18400C694B6923438C68234318439E
:10077000906010BD800000FF70B5144600224268F2
:100780000F26B6021546B5432A469D022A4342600B
:10079000202905DAC56801268E403543C5600CE086
:1007A000FF2904D1C568054E3543C56005E0FA2927
:1007B00003D1C5682D0C2D04C56070BDFFCF0000AE
:1007C00000205D49C8605D480078C007C00F002860
:1007D00048D15A480078C006C00F0028F8D15748C1
:1007E00000780007C00F0028F2D101205449887218
:1007F00000205449C8715048C078022832D00846B9
:100800000078042188434F49087008460078082181
:1008100088434C490870012048704748C078042834
:1008200021D04548C07805281DD047488078400829
:100830004000401C4449887042480078400840000D
:10084000401C4049087000204049488340480078D7
:10085000022188433E4908700846007804218843F5
:100860003B49087067E0354800788006C00F0028D3
:1008700011D03448007840084000401C31490870CD
:100880000020324948833048407840218843403036
:100890002D4948704FE02F48007C14281EDA2C4860
:1008A000407801281AD02848407904218843001D47
:1008B00025494871022026494870084600780421DD
:1008C0008843234908701F48007840084000401CB6
:1008D0001C49087000201D4948832CE0002017495E
:1008E000C8710872487201201B49487000201849DD
:1008F00008830846407801281DD008460078022168
:100900008843801C12490870084680780221884379
:10091000801C0F4988700120487000204860072023
:1009200008750848007840084000401C05490870D8
:100930000020064948837047A00A0020900A002042
:10094000490A00203E04002046040020D809002067
:10095000040A0020100B0020860A002019480078A5
:10096000C007C00F00282BD116480078C006C00F62
:10097000002825D1134800780007C00F00281FD198
:1009800011480078C006C00F00280DD00E4800782E
:100990000821884308300C49087008460078042173
:1009A0008843094908700BE007480078082188430C
:1009B00005490870084600780421884302490870F8
:1009C00070470000900A00203E0400201E48007876
:1009D000C007C00F002835D11B480078C006C00FE3
:1009E00000282FD1184800788006C00F002829D190
:1009F000154800788007C00F002823D112480078DE
:100A00000007C00F00281DD11048C07802280DD063
:100A10000F48007804218843001D0D4908700846DE
:100A20000078082188430A4908700BE008480078DC
:100A30000421884306490870084600780821884345
:100A40000349087070470000900A0020A00A0020A7
:100A50003E04002000B5FC48007810218843103087
:100A6000F9490870F9480078C007C00F00283FD145
:100A7000F6480078C006C00F0028F8D10846007874
:100A80000007C00F00286FD00020F1490861C8603E
:100A90000120F04988720020EB49C871EC48C07809
:100AA000042826D0EA48C078052822D0EA480078F1
:100AB00002218843E84908700846007804218843E9
:100AC000E549087000204860087502204870E34836
:100AD000807840084000401CE0498870DA4800787F
:100AE00040084000401CD84908700020DC49488379
:100AF0007EE1D64800788006C00F002811D0D24889
:100B0000007840084000401CCF4908700020D449BC
:100B10004883D2484078402188434030CF494870CC
:100B200066E1D048007C14281FDACB4840780128C1
:100B30001BD0CA48C079102188431030C749C871FA
:100B40000220C54948700846007802218843C249FE
:100B50000870BD48007840084000401CBA49087041
:100B60000020BF49488343E10FE10020B749C87125
:100B7000087248720120BC494870B7480078800765
:100B8000C00F002803D0B448007D092820D1B24806
:100B9000007802218843801CAF490870012048700A
:100BA000002048758875C860086148600875084667
:100BB000807802218843A8498870A34800784008BB
:100BC0004000401CA04908700020A54948830FE15F
:100BD0000020A149088308464078032826D108460A
:100BE000007D072807D19D48807920218843203047
:100BF0009A4988710CE09848807802218843964988
:100C00008870964840794021884340309349487124
:100C10000120914948708C48007840084000401CF1
:100C20008949087000208E494883E1E08A48007DA8
:100C3000002833D18848807802218843864988700B
:100C40000B20487508464068C8600846807D00282B
:100C500006DD0846006948600846807D087504E0A6
:100C600000207D49486001200875774800780221FE
:100C70008843801C744908707848807880218843B4
:100C80008030764988707048007840084000401CE9
:100C90006D490870002072494883A9E06E48007DC4
:100CA000072828DA6C48007D6B498875084640683B
:100CB00008610846807802218843674988700846A1
:100CC00000780221884364490870002048600920A8
:100CD0000875624840792021884320305F49487177
:100CE0005948007840084000401C574908700020CF
:100CF0005B4948837CE05848007D072821D156484D
:100D0000807802218843544988700846007802217F
:100D1000884351490870FA204860092008754F48F7
:100D200080794021884340304C498871464800789A
:100D300040084000401C444908700020484948834E
:100D400056E04548007D092852DA43488078022160
:100D5000884341498870002088754875C8600861DB
:100D60004860092008753D48C0782021884320301C
:100D70003A49C8703448007840084000401C324965
:100D8000087000203649488332E02F480078400739
:100D9000C00F00282CD000202D490861C8600846EB
:100DA000C07804281AD00846C078052816D02648EE
:100DB000C078022805DA2448C078401C2249C8704F
:100DC00002E000202049C87000201F498880274881
:100DD000407DF82188430830244948751A48007836
:100DE00040084000401C1849087000201C494883F6
:100DF00017488078012851D11C48407DC00801283F
:100E00004CD111488088401C80B20F498880184915
:100E1000884250DD00200C4988801448407DF8212C
:100E20008843124948750848C078074988700846C1
:100E3000C07800281ED1094840781021884310301E
:100E40000649487037E000003E040020900A002068
:100E5000A00A0020490A0020040A002046040020BD
:100E6000D8090020100B0020860A0020240A002048
:100E7000B80B00001848C078012807D117488079BE
:100E800040084000401C1549887114E01348407820
:100E9000202188432030114948700CE010488078A8
:100EA000012805D00F48407DF82188430D49487539
:100EB00000200949888001200749487008460078C9
:100EC00004218843044908700846007808218843B3
:100ED0000149087000BD00003E04002046040020C7
:100EE000A00A0020240A002070B50446204606F01F
:100EF0009CFD0546012D02D0052D06D102E0FFF72D
:100F00002DFD03E0FFF75CFC00E000BF00BF70BDFB
:100F100070B50446204606F088FD0546012D02D135
:100F2000FFF754FD00E000BF00BF70BD70B5044680
:100F3000204606F07AFD0546072D02D1FFF78AFD0F
:100F400000E000BF00BF70BD10B58C000346103339
:100F50001A5110BD70B50446E06880470546E07838
:100F60004007400F002806DD20888249884202DAC7
:100F70002088401C20806089A84209D02079401C2C
:100F8000C0B220710F2805DB65810020207101E0CF
:100F900000202071E0784007400F030006F0A2FB1C
:100FA00006042661B0E7D0E760892189884217DB13
:100FB0006089E188884213DCA078F0218843A07022
:100FC0002069002802D0204621698847002020801F
:100FD000A07800090001401CA0700120E07004E02E
:100FE000A078F0218843A030A070C0E060892189FA
:100FF000884203DB6089E18888420FDDA078F02118
:1010000088431030A0706069002802D020466169D2
:101010008847002020800220E07021E02088564987
:10102000884210DDA078F02188435030A070606ABB
:10103000002802D02046616A8847606A00280FD0E5
:101040000520E0700CE020880A2809DDA078F02156
:1010500088437030A070E06A002801D00520E0705D
:1010600085E060892189884221DB6089E1888842A6
:101070001DDCA0780007000F0F2808DAA07800090F
:101080000001A178491C0907090F0843A070A07846
:10109000F02188432030A070A069002802D02046AB
:1010A000A1698847002020800320E07027E0208885
:1010B000FF212D31884222DDA0780007000F012892
:1010C0000BD1A078F02188433030A070E06900286F
:1010D00013D02046E16988470FE0A0780007000F91
:1010E00002280AD1A078F02188434030A070206AFD
:1010F000002802D02046216A88470020E07036E0B0
:1011000060892189884203DB6089E188884216DD95
:10111000A078F02188431030A0706069002802D0C8
:101120002046616988472088FF212D31884204DAF2
:10113000002020800220E07001E00020E07016E036
:101140006089218988420FDB6089E18888420BDC55
:10115000A078F02188437030A070E06A002805D0A4
:101160002046E16A884701E00020E07000BF00BF30
:1011700070BD0000FAFF0000B80B0000F8B504468F
:101180000D4616461F4638212046FFF74BF8A0783B
:10119000F0218843A030A070E560E068804760815E
:1011A0002681E780F8BD000001460948026805E095
:1011B0008A4202D10020C0437047526B002AF7D107
:1011C000034800684863024801600020F4E700001B
:1011D0001804002010B50548046803E02046FFF716
:1011E000B9FE646B002CF9D110BD0000180400207A
:1011F00008B50120000502F039FF002828D00120A1
:10120000000502F02DFF102000F034FB01281FD153
:1012100000202649086000220B21254803F03BF9F5
:101220000121C90268460180032181701021C1702B
:1012300069461F4803F0C0F80121C9021C4803F0A9
:1012400057F91C480078202188432030194908703C
:101250000120C00402F00AFF002826D00120C004AB
:1012600002F0FEFE0C2000F005FB01281DD100203D
:1012700011490860072201210D4803F00CF90221F1
:1012800068460180032181701021C17069460848B9
:1012900003F092F80221064803F02AF90748007883
:1012A00004218843001D0549087008BD4000004026
:1012B00000040048B0090020400400409C090020C0
:1012C00010B50246002A01D1104812E0042A02D1CA
:1012D0000E48001D0DE0082A02D10C480C3008E031
:1012E0000C2A02D10948083803E0102A01D1074826
:1012F000001F002904D0036801242343036003E096
:1013000003685B085B00036010BD0000083C0140FF
:101310000021024A8218116070470000003C014021
:1013200010B501460020002901D10F4A12E004291E
:1013300002D10D4A121D0DE0082902D10A4A0C32D1
:1013400008E00C2902D1084A083A03E0102901D12B
:10135000054A121F13680124A4072340002B01D063
:10136000204600E0002010BD083C014030B5024698
:101370000023002A01D1224812E0042A02D1204889
:10138000001D0DE0082A02D11D480C3008E00C2A8F
:1013900002D11B48083803E0102A01D11848001F69
:1013A0000C2A0ED0102A0CD00368164C2340CD68AE
:1013B0008C682C430D692C434D692C4323430360F7
:1013C0001CE00C68302C07D10D4C083CA46910259A
:1013D0002C430B4D083DAC6103680A4C23404D681B
:1013E0000C682C438D682C43CD682C438D692C43AD
:1013F0000D692C434D692C432343036030BD00002D
:10140000083C01400240E03F10B5044605F0FEF8FC
:10141000002809D16078002803DD6078401E6070E4
:101420000CE00020207009E06078401CC0B26070C1
:10143000142803DD142060700120207010BD00000E
:101440007FB505460E4614463078C009002822D1E3
:10145000012002F0C3FE288B6C4988420CDAA08878
:10146000642802DAA088401CA080E08800280FDDF4
:10147000E088401EE0800BE0E088642802DAE08823
:10148000401CE080A088002802DDA088401EA080CB
:1014900000207070B8E07078C007C00F002810D12D
:1014A000012002F09BFEA088E188884203DDE12054
:1014B0000001E08301E0288BE0830020A080E08031
:1014C000A0E0E08BFEF7ADFF514A524B0191009036
:1014D000FEF7AAFF03910290FEF756FFA082E08B71
:1014E000FEF79FFF4C4A4D4B01910090FEF79CFF89
:1014F00003910290FEF748FF2082A08A2084E08BAF
:10150000FEF78FFF444A464B01910090FEF78CFF97
:1015100003910290FEF738FFE082E08B4149884258
:1015200003DAE08BC830208302E03E48C8302083D5
:10153000E08BC82803DDE08BC838608301E0002021
:101540006083288BA18A88420DDD2089401C80B2EF
:101550002081642803DD0020607064202081002049
:10156000E080A0801EE0288BE18A88420DDDE088C3
:10157000401C80B2E080642803DD0120607064209C
:10158000E08000202081A0800CE0A088401C80B278
:10159000A080642803DD022060706420A080002009
:1015A0002081E0802078C007C00F002813D1288B4D
:1015B0001921490188420CDA6089401C80B260819F
:1015C0007D21C900884206DD012020700020608155
:1015D00001E000206081288B218B884210DA288B63
:1015E000618B88420CDDA089401C80B2A081FF2164
:1015F0002D31884206DD288BE0830846A08101E07A
:101600000020A081012070707FBD0000480D000007
:10161000F6285C8FC2F5E83F9A9999999999E93F24
:101620009999D93F370F000083795B1CDBB2837136
:10163000052B10DD0378DB07DB0F002B04DD0378BF
:101640005B085B00037004E003785B085B005B1CD5
:10165000037000238371704770B504460E4615462B
:101660002078C007C00F00284FD1E079401CC0B2DD
:10167000E071022812DDE079052806DA002002F088
:10168000CFFD012002F0DEFD46E0002002F0C8FDA3
:10169000002002F0D7FD0620E0713DE0012002F0BD
:1016A000BFFD002002F0CEFDE079012834DD28895D
:1016B000E8822889C8280CDA207A401CC0B220723F
:1016C0000A2803DD0120E0700A20207200206072E9
:1016D00022E02889114988420CDD607A401CC0B2A2
:1016E00060720A2803DD0220E0700A206072002088
:1016F000207211E0002060722072207A00280BD145
:10170000607A002808D1E07006E00020E07102F065
:1017100087FD002002F096FD70BD0000C4090000A6
:1017200010B5044605F04AF801280DD16078401C38
:10173000C0B26070142812DD142060702078400858
:101740004000401C20700AE06078002803DD6078CB
:101750004010607003E0207840084000207010BD09
:1017600010B5044620788007C00F002812D005F07D
:1017700037F800280BDD60796E280DDA6079401C9F
:1017800060716079642807D10220607004E0002055
:10179000607101E00020607110BD000000B589B0EB
:1017A0000121480404F084FE0121880404F080FE35
:1017B000402168460184002108A8C170032181707E
:1017C00008A90920C00602F0F7FD0421684601843B
:1017D000002108A8C1700321817008A9244802F0E3
:1017E000EBFD0121C80304F083FE0C20FFF790FD00
:1017F00030200190FF2001300290002003900490DF
:1018000001204004059008200690C003079001A91C
:101810000C20FFF7ABFD1020FFF77AFD3020019080
:101820008020029000200390049001204004059045
:1018300008200690C003079001A91020FFF796FD2D
:101840000821202004F0F0FF0120000502F008FC30
:101850000120C00402F004FC02F0DAFB01210C209C
:10186000FFF72EFD01211020FFF72AFD09B000BD72
:101870000004004870B5044602252046FFF750FDDD
:10188000002801D1002500E00125284670BD000098
:1018900010B524488079030005F024FF05040B10DF
:1018A000283637002048FFF73BFF2048FFF7ACFD04
:1018B0002CE001F053FB02F079FB27E002F030FC52
:1018C0001B491C4800F0DBF91B491C4800F046F896
:1018D0001B4800F097F9194A1A491B4800F0EAF929
:1018E0001A4A1B491B4800F0CFFA0FE0124A1A4966
:1018F0001448FFF799FE184A0A490F48FFF7A0FD60
:101900001048FFF72DFF01E000E000BF00BF0548D1
:101910008079401CC0B203498871042801DD002091
:10192000887110BDB40A0020300400203204002069
:10193000540A002034040020C80A0020B009002006
:1019400035040020860A00209C090020A00A0020FF
:101950004604002038040020640A002038B50446FC
:101960000D462078C007C00F00286FD02078800671
:10197000C00F00286AD12078C006C00F0028F9D116
:1019800020784007C00F0028F4D120780007C00F4E
:101990000028EFD1688A698B884220DA2078800796
:1019A000C00F00281BD1FF212D31206A88420CD2A4
:1019B000A088401C80B2A080642806DD0020A080A2
:1019C0002078102188431030207000202081608111
:1019D000E08800284BDDE088401EE08047E0688A10
:1019E000A98B884239DDE088401C80B2E080C8289D
:1019F00006DD0020E080207804218843001D20704F
:101A0000688AE98B884222DD2089401C80B22081CF
:101A1000322806DD00202081207804218843001D23
:101A20002070688A298C88420DDD6089401C80B254
:101A3000608105280EDD0020608120780421884324
:101A4000001D207006E00020608103E076E00020A9
:101A5000208160810020A08009E0E088002802DD6C
:101A6000E088401EE0800020A080208160812078F6
:101A70008007C00F002813D1206932306169884285
:101A800003D22069323020614FE0616920698842C9
:101A900003D22069401C206147E06069206144E076
:101AA0006088012816D120693230FF2169318842CF
:101AB00003D220693230206137E0FF21693120698B
:101AC000884203D22069401C20612EE0FF2069304B
:101AD00020612AE06088022811D120693230F02884
:101AE00003D22069323020611FE02069F02803D240
:101AF0002069401C206118E0F020206115E0206979
:101B000032304B21C900884203D220693230206133
:101B10000BE04B21C9002069884203D22069401C98
:101B2000206102E04B20C0002061FF212D31206A9E
:101B3000884208D2206A401C206204E00020206213
:101B4000E080A08020612520005D401CC1B22520DE
:101B50000155C82906DD0021242001552620015504
:101B60002520015520788006C00F002834D024207D
:101B7000005D401CC1B2242001550A292FDD2078C8
:101B80002021884320700021242001550121C90211
:101B9000684601801821C17001218170694617488B
:101BA00002F00AFC0121C902144802F0A1FC022241
:101BB0000B21124802F06FFC2620005D401CC1B2D0
:101BC0002620015505290ADD00210155207808212C
:101BD00088430830207002E00021242001554B2169
:101BE00049012069884204D30846206104490860FD
:101BF00002E003492069086038BD00000004004885
:101C00004000004010B504462078C007C00F0028EF
:101C100030D020788007C00F00282BD120784007D3
:101C2000C00F002806DD04F0E7FE20780421884379
:101C3000207023E004F0D0FE04F0F0FC002811D165
:101C40006078401CC0B2607032280DDD207802211F
:101C50008843801C2070207840084000207032208B
:101C6000607001E000206070207804218843001D2E
:101C7000207003E00020607004F0AEFE10BD02781A
:101C8000D207D20F002A04D08A7A120912018A726E
:101C90000FE002789207D20F002A05D08A7A120943
:101CA0001201921C8A7204E08A7A12091201521CF3
:101CB0008A727047F8B504460D46164620788007AC
:101CC000C00F002865D120784007C00F002860D1E0
:101CD0002078C007C00F00285BD0FF212D31306A6B
:101CE000884256D36878012853D128788007C00FDE
:101CF00000280CD1A089401C80B2A081884206DD5A
:101D0000287802218843801C28700020A0816078F8
:101D1000002806D001280FD0022818D003282CD183
:101D200020E0608840005149401840786060608839
:101D30004000085CA0602BE0608840004C494018DF
:101D40004078606060884000085CA06020E06088A7
:101D50004000484940184078606060884000085C56
:101D6000A06015E0608840004349401840786060FA
:101D700060884000085CA0600AE0608840003B4941
:101D800040184078606060884000085CA06000BF38
:101D900011E000206060608840003449085CA06069
:101DA0000020A0812078C007C00F002803D1287828
:101DB000022188432870E07B401CC0B2E073C82831
:101DC00003DD0020A0732074E07320784007C00F6B
:101DD00000282DD0A07B401CC0B2A0730A2829DDAA
:101DE00020780421884320700020A07302216846D7
:101DF00001801821C1700121817069461F4802F0DD
:101E0000DBFA02211D4802F073FB012211461B4838
:101E100002F041FB207C401CC0B22074052809DD83
:101E200000202074207802218843801C207001E06B
:101E30000020A073A068052804D27D20000110496D
:101E4000C86205E00F48A168FEF7EEF90C49C862C8
:101E50000B4A6168D26A514308466421FEF7E4F9EF
:101E600080B2074940310860F8BD0000447B00089B
:101E70006A7B0008907B0008B67B000800040048DD
:101E8000000400401027000070B504460D461646B9
:101E90002078C007C00F002873D020788007C00FBB
:101EA00000286ED1012002F0DFF920784007C00F32
:101EB000002806D0012004F0C1FD002004F0CEFD72
:101EC00005E0002004F0BAFD012004F0C7FD04F095
:101ED00091FC002811D16078401CC0B26070642869
:101EE00011DD207802218843801C20702078400872
:101EF000400020706420607005E06078002802DDFA
:101F00006078401060706088401C80B260802F490B
:101F100088420ADD0020608020780821884308304C
:101F200020702078400840002070608864280ED11E
:101F3000F078052805D0A87904218843001DA871F0
:101F400019E0A87902218843801CA87113E06088F9
:101F50001F49884205D1A879082188430830A87113
:101F600009E0608819496439884204D1A8791021B0
:101F700088431030A87160881449081AA08023E0B3
:101F8000FFE7002002F070F900206080607004F02C
:101F900039FC012803D004F03DFC01280ED1207843
:101FA0004007C00F002804DD2078042188432070FA
:101FB00004E0207804218843001D2070002004F0F4
:101FC0003DFD002004F04AFD70BD0000B80B00008C
:101FD000DC05000001494860704700000000024035
:101FE000002904D0026801231A43026003E002685A
:101FF00052085200026070470168490849000160B8
:102000000021016041608160C1602149884208D19E
:102010001F49083949680F2211431D4A083A516087
:1020200035E01B491431884208D1194908394968FB
:10203000F0221143164A083A516028E01449283129
:10204000884209D11249083949680F221202114306
:102050000F4A083A51601AE00D493C31884209D1D3
:102060000B49083949680F2212031143084A083AFC
:1020700051600CE006495031884208D104490839C2
:1020800049680F2212041143014A083A516070470F
:102090000800024010B5002202680D4B1A400C6A7D
:1020A0008B6823430C6923434C6923438C69234386
:1020B000CC6923434C6A23438C6A23431A4302604E
:1020C000CB6843600B6883604B68C36010BD000041
:1020D0000F80FFFF10B50024FE480078C007C00F36
:1020E000002812D1FC488079401CC0B2FA4988719E
:1020F000C8280DDD0020887108460078400840009F
:10210000401C08700220C87002E00020F24988716B
:102110000020F14948700846007802218843EE49C2
:102120000870EE48407801287ED1ED480078C0075D
:10213000C00F0028F8D1EA4800780007C00F002837
:10214000F2D1E74800788007C00F0028ECD1E548BD
:1021500040780128E8D1E2480078C006C00F002886
:10216000E2D1DE49C86108464068DF49884204D2AE
:10217000DA484068401CD9494860D848007D0300CF
:1021800005F0B0FA0A063C95C5FBFAF9F8F7F6F542
:10219000D2484068D54988421AD20020D4494870B4
:1021A000D44804F0DFFBD44804F002FCD04804F02B
:1021B00072FCD24804F036FCD14804F066FCD048EA
:1021C0004088002819D1C5488088CD49488014E04E
:1021D000C248807D002807DDC0480069BF494860CB
:1021E0000846807D087504E00020BC494860012055
:1021F00008750020B949C8604875D8E2B7484068FA
:102200007D210901884246D2B44840680A282FD16E
:10221000B24800784007C00F00280ED1AF480078C0
:1022200008218843083000E0C2E2AC490870084643
:10223000007810218843A9490870B24800788007C7
:10224000C00F002807D1B0488078802188438030B3
:10225000AD49887005E0AB48007802218843A94960
:102260000870A948C07840084000401CA649C870C2
:1022700003209F4948709F4804F074FB9E4804F077
:102280008DFB9B4804F00CFC9C4804F0CBFB9C4865
:1022900004F0F6FB04E00020904948600220087535
:1022A0008E4840689949081A8C4988607FE28B48BB
:1022B00040687D21C90088421DD2884840680128B5
:1022C00006D19148C07802218843801C8E49C8708D
:1022D000002087494870874804F052FB864804F084
:1022E0005DFB834804F0D7FB844804F09BFB8448E3
:1022F00004F0C6FB04E0002078494860032008751C
:10230000764840688249081A744988604FE27348E9
:102310004068804988421DD2704840680A2806D12A
:102320007948C07804218843001D7749C87003208C
:102330006F4948706F4804F015FB6F4804F02EFB9E
:102340006B4804F0ADFB6D4804F06CFB6C4804F086
:1023500097FB16E00020614948606F48008B6F4989
:10236000098C88420ADD05205C49087509E01DE2F8
:10237000B7E152E1F3E091E040E009E00420574981
:102380000875564840686649081A544988600EE244
:1023900052484068634988421DD2504840680A2824
:1023A00006D15948C0780821884308305649C8707A
:1023B00000204F494870084604F06DFB4D4804F07A
:1023C000DFFA4D4804F0EAFA4C4804F02BFB4C4885
:1023D00004F056FB0BE04C48C078102188431030C5
:1023E0004949C87006203D490875002048603B48AF
:1023F00040684C49081A39498860D8E13748406834
:102400003A4988421DD2354840680A2806D13E48DC
:10241000C0780821884308303B49C87000203449FF
:102420004870084604F037FB324804F0A9FA3248F5
:1024300004F0B4FA314804F0F5FA314804F020FB16
:1024400025E0264840683749884212D200202849B2
:102450004870084604F01FFB264804F075FA264829
:1024600004F09CFA254804F0DDFA254804F008FB46
:102470000DE02548C0781021884310302249C870EB
:1024800006201649087500204860086188751348C1
:1024900040682449081A1149886088E100201449DD
:1024A0004870084604F0F7FA124804F05BFA124844
:1024B00004F07EFA114804F0B5FA114804F0E0FA8D
:1024C000F0200749487005484068E121C90088426A
:1024D00039D229E032040020A00A0020040A00209A
:1024E000900A0020860A002090230B00B80B000001
:1024F0009C09002034040020B0090020350400208D
:10250000380400203E040020460400200429000076
:1025100034210000DC050000C80A0020640A002005
:102520004C1D000070170000D1484068C82812D127
:10253000D048C078402188434030CE49C87002203E
:10254000CD49887607E00120CB4988760720C84925
:102550000875002048600020C549886027E1C4480C
:1025600080788007C00F00282BD1C1484068C3493C
:10257000884212D20120C2494880084604F021FA5C
:10258000C04804F054FAC04804F0ECF9BF4804F025
:1025900082FABF4804F074FA04E00820B4490875D0
:1025A00000204860B2484068B449884205D2B0482B
:1025B0004068081AAE4988602EE00020AC49886067
:1025C0002AE0AB484068B349884212D20120AC49A6
:1025D0004880084604F0F5F9AA4804F028FAAA4809
:1025E00004F0C0F9A94804F056FAA94804F048FAE2
:1025F00004E008209E490875002048609C48406817
:10260000A449884205D29A484068081A98498860C7
:1026100002E0002096498860C9E0964880798021D0
:102620008843803093498871974804F09BF9944817
:1026300004F0BEF9954804F02EFA924804F0F2F93D
:10264000934804F01DFA8A48407D002815DD88482B
:10265000407D0B2803D100208549087503E084489C
:10266000407D834908758248007802218843801C98
:102670007F4908700320487018E000207C494860BA
:102680000875022048700846007808218843784978
:10269000087008460078102188431030744908708B
:1026A0000846007802218843714908700020774964
:1026B00048706F480078082188436D4908700846C3
:1026C000007810218843103069490870042072494D
:1026D000C870684880781021884310306549887038
:1026E00065E063484068FA280CD2002067494870CA
:1026F000084604F0D5F9644804F042F9604804F053
:102700004DF94CE05A48407D002803D15848807D5F
:1027100000281BD05648407D0B2806D10020544984
:1027200008750846C068486006E05148807D5049F9
:1027300008750846006948604D48007802218843C2
:10274000801C4B4908700320487018E0002048495D
:1027500048600875022048700846007808218843C0
:1027600043490870084600781021884310304049DA
:10277000087008460078022188433D4908703C48AB
:102780000078042188433A49087004204249C870FF
:10279000384880781021884310303649887039488D
:1027A00004F040F93A4804F06BF900E000BF5DE046
:1027B0002F484078032814D12D48C069401C2C496B
:1027C000C861364988420CD904203349C870294869
:1027D00080781021884310302649887000202449D1
:1027E000C8612F480078C007C00F00280BD12C48C3
:1027F0000078C006C00F002805D1294800780007DE
:10280000C00F002820D000201949C861022048705C
:10281000002048600875084600780821884314495C
:10282000087008460078102188431030104908705D
:1028300008460078022188430D4908700846007850
:10284000042188430A4908700020104948700E4846
:1028500004F088F80A4804F0ABF80C4804F01BF9BF
:10286000084804F0DFF80A4804F00AF910BD000037
:10287000040A002046040020240A002080FC0A00EC
:10288000B009002035040020340400209C090020F9
:1028900038040020407E0500A00A002030750000AA
:1028A000900A002070B505460C46A069A84203D3E3
:1028B0004B204001606108E04B225201A169514365
:1028C00008462946FDF7B0FC60616088002805D104
:1028D00003496069884201D20846606170BD00000A
:1028E0001405000010B50020444948704449C861EF
:1028F000424800788007C00F00280CD03F4800787D
:10290000022188433D4908703E48807840084000D5
:10291000401C3C4988703C4804F024F83B4804F0D3
:1029200047F83B4804F0B7F83A4804F07BF83A48D7
:1029300004F0A6F83248407803282BD13048008BA9
:10294000401C80B22E4908833449884225DD00208E
:102950002B49088348600875C86048750220487094
:102960000846007808218843254908700846007801
:10297000102188431030224908700846007802214F
:1029800088431F49087008460078042188431C4981
:10299000087002E000201A4908831948007880076F
:1029A000C00F002805D1164800784007C00F002846
:1029B00006D013484078012802D105200F49C8707D
:1029C00017480078C007C00F002812D10B48007AC2
:1029D000401CC0B209490872C8280DDD00200872E9
:1029E0000846007840084000401C08700220C8706B
:1029F00002E000200149087210BD0000A00A00207A
:102A0000040A00204604002034040020B0090020FD
:102A10009C09002035040020380400203075000097
:102A20003204002010B54D4800788007C00F002800
:102A300059D04B480078C007C00F002811D1484832
:102A400000780007C00F00280BD1454800788007A8
:102A5000C00F002805D142480078C006C00F0028EA
:102A600006D03E480078022188433C49087073E054
:102A70003A484078FA2825DA3A48007C002821DDD7
:102A80003848807C0A281DD037480078C007C00F1E
:102A9000002817D131484078401C30494870002048
:102AA00032494870304803F06BFF314803F080FF33
:102AB0002E4803F0F5FF2F4803F0B4FF2E4803F033
:102AC000DFFF49E02D48807840084000401C2B493A
:102AD0008870002021494870084600780221884308
:102AE0001E49087038E024480078082188432249AC
:102AF00008700020194948701B4803F033FF1C4838
:102B000003F056FF194803F0C6FF1A4803F08AFF86
:102B1000194803F0B5FF002014494870184948606F
:102B20000875022048700846007808218843144937
:102B3000087008460078102188431030104908704A
:102B400008460078022188430D490870084600783D
:102B5000042188430A49087010BD0000A00A002023
:102B6000900A0020100B0020340400209C09002053
:102B7000B00900203504002038040020460400205D
:102B8000040A00209148C078052874D19048007D3F
:102B9000012824D18F48007D002821D10B208D49A8
:102BA000487508464068C860084600780221884396
:102BB00088490870002048600920087586484079D7
:102BC0002021884320308449487184480078400897
:102BD0004000401C8149087000208149488367E01B
:102BE0007C48007D072826DA7A48407D002806D1F7
:102BF0007848007D7749487508464068C860754840
:102C00000078022188437349087000204860092039
:102C10000875714840792021884320306E494871F9
:102C20006E48007840084000401C6C490870002045
:102C30006B4948833CE06748007D07281CD1654804
:102C400000780221884363490870FA20486009200F
:102C50000875614880794021884340305E49887119
:102C60005E48007840084000401C5C490870002025
:102C70005B4948831CE037E05648007D092817DA95
:102C8000002054494875C8604860092008755248BA
:102C9000C0782021884320304F49C8704F480078C1
:102CA00040084000401C4D49087000204C494883B2
:102CB0004748C07B02280DD144484079401CC0B22F
:102CC00042494871282870DD0220C87088700020B1
:102CD00048716AE043480078C007C00F002864D0FC
:102CE00005203A49887060E038480078C007C00F76
:102CF00000280DD03648C07B022805D13348007823
:102D000040084000314908700220304988704CE08A
:102D10002F48C07B052803D02C488078052811D186
:102D200030480078C007C00F002803D0042027498E
:102D300088703AE02548007840084000401C23494C
:102D4000087032E02248C07B042809D12548007869
:102D5000C007C00F002803D004201C49887024E05D
:102D60001B48C07B022804D01948C07B17498870D3
:102D70001BE016488078042812D11448C079401C02
:102D8000C0B21249C87128280FDD0020C87108465A
:102D9000007840084000401C08700220C87004E021
:102DA00000200A49C871022088700948007D012866
:102DB00002D10020054908610548407D0002044910
:102DC000897D40180849088170470000A00A00204A
:102DD000100B0020040A0020460400203E040020BE
:102DE000D809002032040020BE0A002010B5504847
:102DF0000078C007C00F002874D04E480078C00784
:102E0000C00F002815D14B4800780007C00F0028DC
:102E100005D1484800788007C00F002803D04648F5
:102E20008078012805D143480078C006C00F0028EB
:102E30000FD0424803F096FD414803F0B9FD4148E8
:102E400003F029FE404803F0EDFD404803F018FE72
:102E50004BE039488078012833D13D48007C002878
:102E60002FDD3B48807C0A282BD0384800780007AB
:102E7000C00F00280FD0314803F074FD304803F034
:102E800097FD304803F007FE2F4803F0CBFD2F4895
:102E900003F0F6FD29E0294803F064FD284803F01B
:102EA00087FD284803F0F7FD274803F0BBFD2748BE
:102EB0000078C007C00F002817D1244803F0E5FDB3
:102EC00013E01E4803F04EFD1D4803F071FD1D4840
:102ED00003F0E1FD1C4803F0A5FD1C4803F0D0FD04
:102EE00003E0FFE701201B49C87000201549487026
:102EF0001949486008750220487008460078082182
:102F0000884315490870084600781021884310301E
:102F10001149087008460078022188430E4908705C
:102F200008460078042188430B49087010BD000052
:102F300030040020900A00203E04002034040020C9
:102F4000B00900209C09002035040020380400202E
:102F5000100B0020A00A0020040A00206D48007811
:102F6000C00900287ED06C4880786B49C9788842B7
:102F700079D069488078012807D16748C07803284C
:102F800003D100206449087188E063480079401C3F
:102F9000C0B2614908710228F6DD08468078012830
:102FA00027D108460078C007C00F00286FD15B48C2
:102FB000007840084000401C5849087000205849DB
:102FC000488356498870C870564840781021884315
:102FD00010305449487054480078C007C00F00288A
:102FE00003D101204C49C87051E003204A49C87000
:102FF0004DE04948807802281BD14748C078042812
:1030000013D0484840788021884380304549487033
:10301000002042498870C870084600784008400087
:10302000401C087000203E49488302203A49C8707D
:103030002DE039488078042829D13C480078C00721
:10304000C00F002823D03448C07805281FD0354849
:1030500080781021884310303249887034480078D5
:10306000C00701E051E016E0C00F00280CD1314844
:10307000008B2F49098A884206DA2A48C07940081D
:103080004000401C2749C87104202349C870002013
:103090002149087102E000201F4908712648007884
:1030A000C007C00F002831D124480078C007C00FE6
:1030B00000282BD122480078C007C00F002825D156
:1030C00020480078C007C00F00281FD01248C078E1
:1030D00002281BD01048C078042817D00E48C078AA
:1030E000052813D00C48C068401C0B49C86016491D
:1030F00088420ED902200849C87008460078400866
:103100004000401C08700020C86002E00020024916
:10311000C8607047B40A0020A00A00203E040020C6
:10312000D80900204604002030040020320400208A
:10313000640A0020C80A0020B009002035040020DD
:1031400038040020340400203075000010B5A04879
:103150000078C007C00F00287DD19E480078C007C6
:10316000C00F002811D19B4800780007C00F00282D
:103170000BD1984800788007C00F002805D19548EA
:103180000078C006C00F00280FD0934803F0EAFB78
:10319000924803F00DFC924803F07DFC914803F047
:1031A00041FC914803F06CFC11E19048007C002840
:1031B000FADD8E48807C0A28F6D08D488078002879
:1031C0002CD18749487002208A49487000204875F0
:1031D000C860087548600846007802218843854920
:1031E00008700846007804218843824908707A48AC
:1031F00003F0AAFB794803F0D1FB794803F050FCB7
:10320000784803F00FFC784803F03AFC7A480078DD
:1032100002218843801C784908707CE074488078DB
:1032200002282FD100206E49487002207149487051
:1032300000204875C860087548600846007802217B
:1032400088436C490870084600780421884369491E
:103250000870614800E062E003F092FB5F4803F011
:103260009DFB5F4803F017FC5E4803F0DBFB5E4804
:1032700003F006FC6048007802218843801C5E4908
:10328000087048E0584800780007C00F00282DD08B
:103290000020534948700220564948700020487564
:1032A000C860087548600846007802218843514983
:1032B000087008460078042188434E490870464843
:1032C00003F042FB454803F069FB454803F0E8FB87
:1032D000444803F0A7FB444803F0D2FB464800787B
:1032E00002218843801C4449087014E03A4803F0E6
:1032F00039FB3A4803F05CFB394803F0CCFB394812
:1033000003F090FB38480078C007C00F002802D1B6
:10331000354803F0BAFB00203749487057E036487B
:1033200000788007C00F00284CD02A480078C007DA
:10333000C00F002811D1274800780007C00F0028CF
:103340000BD1244800788007C00F002805D1214800
:103350000078C006C00F002806D027480078022158
:1033600088432549087032E023484078FA2823DA58
:103370001F48807801281FD01C48007C00281BDDD6
:103380001A48807C0A2817D01B484078401C1A49EC
:1033900048700020124948700F4803F0F1FA0F48B6
:1033A00003F006FB0E4803F07BFB0E4803F03AFBEC
:1033B0000D4803F065FB0AE000200F494870032028
:1033C000C87004E000200C4948700320C87010BD8C
:1033D00030040020900A002034040020B0090020AE
:1033E0009C0900203504002038040020100B002028
:1033F0003E040020040A0020A00A0020374A904220
:1034000002D200224A8067E0354A904202D201226D
:103410004A8061E0334A904202D202224A805BE055
:10342000314A904202D203224A8055E02F4A90420C
:1034300002D204224A804FE02D4A904202D2052255
:103440004A8049E0294A904202D206224A8043E05B
:10345000284A904202D207224A803DE0264A904202
:1034600002D208224A8037E0244A904202D209223E
:103470004A8031E0224A904202D20A224A802BE05E
:10348000204A904202D20B224A8025E01E4A9042F6
:1034900002D20C224A801FE01C4A904202D20D2226
:1034A0004A8019E01A4A904202D20E224A8013E062
:1034B000184A904202D20F224A800DE0164A9042EA
:1034C00002D210224A8007E0144A904202D211220E
:1034D0004A8001E012224A807047000074400000D8
:1034E000684200005C440000504600004448000070
:1034F000384A0000204E000014500000085200001E
:10350000FC530000F0550000E4570000D8590000BB
:10351000CC5B0000C05D0000B45F0000A86100004B
:10352000F8B505460C46254803F038FFA1886854D5
:10353000A0880F2802DAA088401CA0802878AC2838
:1035400003D00020A080287036E0A088022807D190
:103550006878052830D00020A080287068702BE0A3
:10356000A088032807D1A8780A2825D00020A080A9
:103570002870687020E0A0880F281DD10027012640
:1035800004E0A85DC01987B2701CC6B20D2EF8D336
:10359000687B0002A97B401880B2009000988742A7
:1035A00008D1284603F013FF0020608020784008EF
:1035B000400020700020A080F8BD000000380140CD
:1035C000F8B505460C46254803F0E8FEE188685446
:1035D000E0880F2802DAE088401CE0802878AC28D8
:1035E00003D00020E080287036E0E088022807D170
:1035F0006878012830D00020E080287068702BE0C7
:10360000E088032807D1A8780A2825D00020E08088
:103610002870687020E0E0880F281DD1002701265F
:1036200004E0A85DC01987B2701CC6B20D2EF8D395
:10363000687B0002A97B401880B200900098874206
:1036400008D1284603F0AEFE2078400840002070E4
:10365000002060800020E080F8BD000000440040B1
:1036600010B5FE480078C009002810D1FC48007849
:10367000C007C00F002805D00420FA490872FA4993
:10368000887004E00120F7490872F7498870F6480D
:103690008078F649C872F648807802280CD008462F
:1036A000807AF0218843F34949780901F0221140DA
:1036B0000843EE49887206E0EC48807AF02188439E
:1036C0002030EA498872E8488078E6490872EA487A
:1036D000007D48720846807A01280BD1E448C07901
:1036E000401CC0B2E249C871642806DD0220DD49F1
:1036F000887202E00020DE49C871DD48C0780028E9
:1037000007D1DE48407DC008C000401CDB49487539
:1037100012E0D748C078012807D1D848407DC008BA
:10372000C000001DD549487506E0D448407DC0085A
:10373000C000801CD1494875CF48007CCF498875AE
:103740000846007EC008C000C749C9784907490F2C
:103750000843CA490876C448807802281CD1C24868
:10376000407800280DD1C04800788007C00F00289D
:1037700007D10846007E302188432030BF490876B3
:1037800006E0BE48007E302188431030BB490876F1
:103790000020B549086138E0B348807804282AD170
:1037A000B648807D64281BD1AF480069401CAE49F3
:1037B00008617D21C90088420AD90846AA490861E2
:1037C000AE48007E302188432030AC4908761CE0AA
:1037D000AA48007E302188431030A849087614E0BA
:1037E0000020A1490861A548007E3021884310309F
:1037F000A249087609E000209B4908619F48007EA5
:103800003021884310309D4908769D480078C007D4
:10381000C00F002807D19948007EC021884380301E
:103820009649087606E09548007EC02188434030DE
:10383000924908768C48C078052817D19148007DB8
:1038400000280BDD8F48007D072807DA8B48007FB2
:1038500000090001401C894908770EE08748007F75
:1038600000090001801C8549087706E08348007F35
:1038700000090001801C814908778348C079C0068F
:10388000C00F002807D07D48007FF021884310300A
:103890007A49087721E07C4840784006C00F00282C
:1038A00007D07648007FF02188432030734908779D
:1038B00013E075488078C007C00F002807D06F4814
:1038C000007FF021884340306C49087705E06B4861
:1038D000007FF0218843694908776C480078C00769
:1038E000C00F002803D16748007D072819D163481D
:1038F000407F000900016149497FFC22114009070E
:10390000090F08435D4948770846407F00090001D8
:10391000497F012211430907090F08435749487796
:1039200018E05648407F000900015449497FFC22B5
:1039300011400907090F0843504948770846407F5E
:1039400000090001497F022211430907090F0843BA
:103950004A4948774B4880788007C00F00280DD12E
:103960004648407F000900014449497FF322114045
:103970000907090F08434149487718E03F48407F4D
:10398000000900013D49497FF32211400907090F51
:1039900008433A4948770846407F00090001497FBB
:1039A000042211430907090F08433449487738486E
:1039B0000078C007C00F002807D13248007D0028DA
:1039C0000BD12948C078052807D12C48407FF02129
:1039D000884310302949487706E02848407FF02185
:1039E0008843203025494877264988686421FCF7B8
:1039F0001BFC0004000E2149887722498868642155
:103A0000FCF712FC1D49C87700211C4820300170CA
:103A10001F4988886421FCF711FC0446C017000E7A
:103A2000001900120002201AC1B21448203041705F
:103A3000144988686421FCF7F7FB0004010E0F4865
:103A4000203081700F4988686421FCF7EDFBC1B21A
:103A50000A482030C170074840781BE0B40A0020B3
:103A600032040020490A0020A00A0020540A002045
:103A70003E040020640A0020100B0020240A0020CD
:103A800030040020040A00204604002035040020F1
:103A900038040020002807D1D4480079000900012B
:103AA000401CD249087106E0D048007900090001A5
:103AB000801CCE490871CE480078C007C00F00288E
:103AC0000BD0CC48C07B012807DAC8480079F02128
:103AD00088432030C549087106E0C4480079F021C8
:103AE00088431030C1490871C348807F0009000134
:103AF000401CC14988770846807FF02188433030D8
:103B0000BD4988770846C07F00090001BB49897814
:103B10000907090F0843B849C877B94880780028D1
:103B200007D10846C07FF02188431030B249C877DA
:103B300012E0B3488078012807D1AF48C07FF02158
:103B400088432030AC49C87706E0AB48C07FF021FD
:103B500088434030A849C877AA48417DA64820300C
:103B60000170A848817DA44820304170A548017C9F
:103B7000A14820308170A348807C002805DDA14841
:103B8000817C9D482030C17039E09F48C07C00286E
:103B900005DD9D48C17C98482030C1702FE09B48CE
:103BA00000780007C00F002804D008219248203078
:103BB000C17024E0964800788007C00F002804D028
:103BC00009218D482030C17019E092480078C00763
:103BD000C00F002804D0222187482030C1700EE099
:103BE0008D480078C007C00F002804D00D218248FE
:103BF0002030C17003E000217F482030C170874829
:103C0000C078002809D17C482030007900090001E3
:103C1000401C7949203108711AE08048C078022898
:103C200009D175482030007900090001801C7249D3
:103C3000203108710CE07948C078012808D16E481D
:103C40002030007900090001C01C6B492031087147
:103C5000694820300079F02188437049497809018A
:103C6000F022114008436449203108716748007808
:103C7000C006C00F002804D002215F4820304171E7
:103C80000EE0624800784007C00F002804D00321EE
:103C900059482030417103E00121574820304171DB
:103CA0005648C07805280FD15D4800784007C00FFE
:103CB000002804D0042150482030817108E00121FF
:103CC0004D482030817103E002214B482030817142
:103CD00054480078C007C00F002809D0464820305B
:103CE000C079F0218843103043492031C87108E081
:103CF00041482030C079F021884320303E492031AE
:103D0000C87149480078C007C00F002809D03A4858
:103D10002030C07900090001401C37492031C871AA
:103D200008E035482030C07900090001801C324984
:103D30002031C8713D488088FF21090208400112E6
:103D40002D4820300172394801792B4820304172CA
:103D50003648408AFF2109020840011226482030D7
:103D600081723248817C24482030C1722F480088FB
:103D7000FF210902084001121F48203001732B481F
:103D800001781D48203041732848C08AFF2109026C
:103D9000084001121848203081732448817D16485C
:103DA0002030C1732148008BFF2109020840011215
:103DB0001148203001741D48017E0F4820304174A5
:103DC0001148C17B0C48203081740F48017C0A489F
:103DD0002030C1740C48417C0748203001750A48E6
:103DE000817C05482030417510BD0000440A002048
:103DF000640A0020900A002070080020A00A002019
:103E00003E040020100B0020290B0020B0090020E8
:103E10009C0900205A08002064080020860A00201F
:103E2000040A00203504002038040020C80A0020BD
:103E300010B5FFF715FC534803F00DFB524803F093
:103E4000DFFA524803F09BFB514803F023FB514833
:103E500001F03FF8504801F02BF84F4801F04AF8C4
:103E60004E480078C00900287ED04B48407A401C5C
:103E7000C0B249494872052863DB0020487202211C
:103E8000474803F015FA46484068434988720022C3
:103E90000221434803F03AFA00203F49887201208A
:103EA0004003FEF797F83C4800788007C00F0028D1
:103EB00014D10A23344A3A493A4800F059FF3648A7
:103EC000007802218843801C334908700846007836
:103ED00004218843001D3049087025E02E480078F1
:103EE0004007C00F00280CD01E23284A2C492D481B
:103EF00000F03EFF284800780421884326490870D6
:103F000012E01523224A2649264800F031FF2248B4
:103F1000007802218843204908700846007804216F
:103F20008843001D1C490870012202211C4803F02F
:103F3000CFF91C4800F041FF01220221184803F08C
:103F4000E5F91448007A401CC0B2124908720528ED
:103F500017DB0020087288712020FEF73BF8082349
:103F6000084A11490F4800E00BE0283800F000FF34
:103F7000012202210C4803F0ABF90A48283800F06E
:103F80001CFF10BD490A0020540A002070080020C0
:103F9000240A00205A08002064080020B40A0020E7
:103FA00000440040440002400038014010B5104871
:103FB00000897D21C900884219DB0E48C0780300C2
:103FC00003F090FB0613040A070D1013FFF7BEF869
:103FD0000CE0FEF70BFF09E0FEF724FD06E0FEF71C
:103FE00081FC03E0FEF776F800E000BF00BF10BDE3
:103FF000B40A0020A00A002005E0044900E0491EA0
:104000000029FCD1401E0028F7D17047781E00001F
:104010000EB50121084602F06BFA0120000501905F
:10402000002168460172082141720121817201A8B4
:1040300000F030F80120C0040190002168460172B0
:10404000082141720121817201A800F023F8182192
:104050006846017001214170817000F0B5FE0EBD0F
:1040600001494861704700000004014001460020FA
:104070000022074B1B680B401A46054B5B690B403F
:10408000002B03D0002A01D0012000E0002070475F
:1040900000040140002121498279002A35D00A46D6
:1040A000126803689A430B461A600A46526803680E
:1040B0009A430B465A60027951180A6803681A43FA
:1040C0000A60164A926803689A43144B9A601A462B
:1040D000D26803689A43114BDA604279102A0CD1F6
:1040E0001A46926803681A430C4B9A601A46D268C3
:1040F00003681A43094BDA600EE008494279511807
:104100000A6803681A430A6006E0044902795118F4
:104110000A6803689A430A6070470000000401407F
:1041200010B52448C07801280FD123488078002892
:1041300003D12248224988610AE01F48807802287A
:1041400006D120481E49886102E01C481C4988614C
:104150001D4800891D49096840181C4908601C4811
:104160000078401CC0B21A490870082813DB0020F0
:10417000087016480068C0081449086015491348BB
:104180000068FFF73BF90E4910480068FEF78AFB0C
:1041900000200E49086031200F494883F8208883A9
:1041A000FF203730C883FF20F1300884FF203730EC
:1041B000488410BDA00A00203E040020DC46000018
:1041C000B00900204C5E0000BE0A00205004002010
:1041D000540400209C090020C80A002010B50446A1
:1041E000002C05DD10210920C00600F083F904E051
:1041F00010210920C00600F07BF910BD10B504465F
:10420000002C05DD01214902044800F073F904E0A7
:1042100001214902014800F06BF910BD000400487B
:1042200010B50446002C05DD01218903044800F087
:1042300061F904E001218903014800F059F910BD3A
:104240000008004810B50446002C05DD0121C90313
:10425000044800F04FF904E00121C903014800F0CF
:1042600047F910BD0008004810B50446002C05DDD4
:1042700080210920C00600F03DF904E080210920DA
:10428000C00600F035F910BD70B50546042410488D
:1042900000F07CF80446042C18D10E480069022175
:1042A00008430C49086108464561006940210843FC
:1042B00008490861064800F069F80446012C05D059
:1042C000044800690449084002490861204670BD5D
:1042D000FF0F000000200240FD1F000004200D49D8
:1042E000C968C907C90F002901D0012010E0094998
:1042F000C96804221140002901D0022008E00549C4
:10430000C96810221140002901D0032000E00420D8
:1043100070470000002002400348006980210843E4
:1043200001490861704700000020024070B5054651
:104330000E4604240F2000F029F80446042C12D164
:104340000A48006901210843084908612E800F20AE
:1043500000F01CF80446012C05D00448006904490B
:10436000084002490861204670BD0000002002405C
:10437000FE1F000002480349486003484860704738
:104380002301674500200240AB89EFCD70B504469C
:104390000425FFF7A3FF054605E003F039FBFFF70F
:1043A0009DFF0546641E012D01D1002CF5D1002C86
:1043B00000D10525284670BDFCB502460025002623
:1043C00001960020002300240096CE7835072D0F9B
:1043D000CE7810273E40002E01D08E7835430E78DF
:1043E000002E27D01468002021E0012686403346A5
:1043F0000E881E400196019E9E4217D183000F2613
:104400009E4000962746009EB7433C462E469E405F
:104410003443CE78282E03D101268640566105E02C
:10442000CE78482E02D1012686401661401C08280D
:10443000DBD314600E88FF2E2CDD5468002026E0AC
:10444000064608360127B7403B460E881E400196B7
:10445000019E9E421AD183000F269E400096274659
:10446000009EB7433C462E469E403443CE78282ECD
:1044700004D1064608360127B7405761CE78482E4A
:1044800004D1064608360127B7401761401C0828AA
:10449000D6D35460FCBDF0B5002300244D07EE0ECA
:1044A0001546B5402B46CD10002D0BD1056A4E07A1
:1044B000F70E0F26BE40B5430562056A1D432C4624
:1044C00004620AE0456A4E07F70E0F26BE40B54368
:1044D0004562456A1D432C464462F0BD02460020F9
:1044E00093680B40002B01D0012000E000207047B2
:1044F000416170470161704708B501210F204004F8
:1045000001F0D6FF902168460180032181701021BF
:10451000C17069460920C006FFF74EFF244968466E
:104520000180032181701021C17069462148FFF785
:1045300043FF072149036846018003218170102150
:10454000C17069461C48FFF737FF8021684601802B
:10455000032181701021C17069461848FFF72CFFB4
:10456000174968460180032181704821C17069465E
:104570000920C006FFF720FF124968460180032189
:1045800081704821C17069460A48FFF715FF04226F
:1045900006210848FFF77FFF042207210548FFF79F
:1045A0007AFF0120FFF72AFE0120FFF717FE08BD62
:1045B000C20600000004004800080048000C004843
:1045C000621900000111000010B583212D4881708F
:1045D0002D480078400840002B49087008460078B4
:1045E000022188432849087008460078042188433E
:1045F0002549087008460078102188432249087030
:1046000008460078802188431F4908700020887080
:10461000C87008718871C87108811C49C873C87452
:10462000087588748875487548740874C875087664
:104630001748007808218843154908700846007813
:10464000042188431249087012480E494039888273
:10465000002011498880C880012010494870104806
:1046600010490880104802F07DF9104802F0A0F9C6
:104670000F4802F010FA0F4802F0D4F90E4802F089
:10468000FFF910BD080B0020B40A0020100B002019
:104690003E040020FF0F0000640A0020860A00206C
:1046A00055AA00005804002034040020B00900205E
:1046B0009C090020350400203804002010B5002299
:1046C0002349244803F060F9234A0121214803F0DB
:1046D00030F8214A06211F4803F02BF81E4A082112
:1046E0001C4803F026F81B4803F06EF97D23DB001D
:1046F00000221A491A48FCF741FD1A4B1A4A174979
:104700001A48FCF73BFD1A4B164A14491948FCF7A6
:1047100035FD194A01211248FCF716FC164A0521FD
:104720000F48FCF711FC154A01211048FCF70CFC5E
:10473000134A07210F48FCF707FC0E48FCF734FD2D
:104740000A48FCF731FD0648FCF72EFD10BD0000BD
:10475000357B00086809002001770008297B0008E4
:10476000C0080020D80E0000C4090000F80800208E
:104770000310000030090020E90E0008110F0008A6
:104780002D0F000801202549887200202449C87196
:104790002449C860086124480078C007C00F002879
:1047A0003AD10846C078032807D00846C0780428C4
:1047B00003D00846C07802282ED11C48C07C0028AF
:1047C00003DD00201949C87402E001201749C874AC
:1047D0001648C07C012807D115480079102188436C
:1047E0001030134908710DE01148007920218843E9
:1047F00020300F4908710D48807D0E49C880012086
:104800000D4908700648007840084000401C0449E3
:10481000087000200549488370470000490A0020BD
:104820003E040020A00A0020900A0020D8090020A1
:1048300046040020580400205808002001208E491A
:10484000887200208D49C8718D49C86008618D4803
:104850000078C007C00F002870D18B48C07C0028AA
:104860006DDD8948807D012805DA8748807D401C00
:104870008549887502E00020834988758248807DDB
:10488000002807D18148007802218843801C7F4995
:104890000870DFE07C48807D012807D17B480078E4
:1048A00004218843001D79490870D3E07648807D53
:1048B000022807D1754800780821884308307349D9
:1048C0000870C7E07048807D032807D16F480078E2
:1048D0001021884310306D490870BBE06A48807D24
:1048E000042807D16948007820218843203067498F
:1048F0000870AFE06448807D052807D163480078E0
:1049000040218843403061490870A3E05E48807DC3
:10491000062807D15D4800788021884380305B49B4
:10492000087097E05848807D072809D1574840789B
:1049300040084000401C554948708BE09BE023E054
:104940005148807D082807D150484078022188438B
:10495000801C4E4948707DE04B48807D092807D176
:104960004A48407804218843001D4849487071E056
:104970004548807D0A286DD1444840780821884305
:1049800008304249487065E03F48C07D032805DA99
:104990003D48C07D401C3C49C87502E000203A49B2
:1049A000C8753948C07D002807D1384800790221F0
:1049B0008843801C3549087122E03348C07D0128B6
:1049C00007D13248007904218843001D2F4908711E
:1049D00016E02D48C07D022807D12C480079082117
:1049E00088430830294908710AE02748C07D032818
:1049F00006D12648007940084000401C2349087130
:104A00002148C07D03280DD11520C0431E4948818F
:104A1000002088810846007804218843001D1A4937
:104A2000087017E01848C07D00280DD11020C04341
:104A30001549488100208881084600780421884370
:104A4000001D1149087005E00F48007804218843D3
:104A50000D4908700C48C07D0D49088101200D49A1
:104A600008700648007840084000401C0349087060
:104A70000020054948837047490A00203E04002071
:104A8000A00A0020900A0020D80900204604002037
:104A900058040020580800200348C07C012802D197
:104AA00000200149C8747047D809002070B5054638
:104AB0000C4685480078002846D18448007841009B
:104AC00020461C30405A82490880084600788149B7
:104AD00008807F48008800127D4908807D48007862
:104AE0000006000C7B490880794800880988084343
:104AF00077490880102078490870002077490870AD
:104B00007749087077480078182808DA012001F002
:104B10009DFE74480078401C7249087014E071488A
:104B20000078242810DA002001F090FE6D4800780B
:104B3000401C6C49087008460078242804D10020E5
:104B400008700120604908705F480078012844D14E
:104B500062480078082818D161480078002814D1EC
:104B6000012001F073FE012001F080FE5D48007815
:104B7000401CC0B25B4908700C2853DD0420524928
:104B800008700020574908704CE0002001F05EFEDC
:104B90004F480078C007C00F002803D0012001F063
:104BA00065FE02E0002001F061FE494800884010E7
:104BB000474908804948007847490978884208DA17
:104BC00046480078401C4549087002203E4908705C
:104BD00028E005203C49087024E03B480078022882
:104BE00003D039480078032806D1012001F02EFEB9
:104BF00001203549087015E033480078042811D1A8
:104C0000002001F023FE37480078401CC0B235492F
:104C100008700C2806DD0020087001202A49087061
:104C20002F4908702848007805284CD1012001F050
:104C30000DFE012001F01AFE2A480078401CC0B287
:104C4000284908700C283EDD002008701E490870B5
:104C5000608D1E490978884205DD1C480078401C9B
:104C60001A4908702FE06089A189884221D16088A3
:104C7000262804D11C4860810020A0810BE06088B8
:104C8000292808D120788007C00F002803D01648B3
:104C900060810020A0810020608060882081002049
:104CA000A080E080607D2075287840084000287052
:104CB00006E0207804218843207000206081A081D4
:104CC00000200249087070BD230400202404002045
:104CD00026040020280400202104002020040020B5
:104CE0002504002022040020A55A000010B51E2033
:104CF000FFF782F9FFF700FC4B214901012001F089
:104D000087FF7D210901144801F0F8FFFBF7E4FC5F
:104D1000FBF7E8FC7D20C00001F01EFF4B20C00126
:104D200002F0C8F94B20C00102F050FA0A230B4AE6
:104D30000B490C4800F01CF808230B4A0B490948A2
:104D4000283800F015F8FCF729FDFFF7B7FCFFF74E
:104D50003BFC01F06DFC10BDBF120000540A0020A6
:104D60000044004044000240490A0020003801404D
:104D7000F0B58BB007460C4615461E460121084685
:104D800001F096FB3846FDF737F9009401951020A5
:104D90000290039600200490802005900020069049
:104DA0000790089001200003099000200A906946AE
:104DB0003846FDF76FF90BB0F0BD10B50446012180
:104DC0002046FDF70DF910BD00218278002A27D07A
:104DD000184A03231B02D21803789B109B00D1585A
:104DE00002789207D30EFF229A400B46934319464E
:104DF00042789207120E03789B07DB0E9A4011430C
:104E00000C4A03231B02D21803789B109B00D1503D
:104E10000278D306DB0E01229A40064B1A6007E0A7
:104E20000278D306DB0E01229A40024B80331A60CF
:104E30007047000000E100E010B5002819DA1A4AB6
:104E400003071B0F083B9B089B00D2588307DC0E0F
:104E5000FF23A3409A438B071B0E8407E40EA34055
:104E60001A43114B0407240F083CA408A4001A514C
:104E700018E00E4A03231B02D21883089B00D25865
:104E80008307DC0EFF23A3409A438B071B0E840786
:104E9000E40EA3401A43054B032424021B19840883
:104EA000A4001A5110BD00001CED00E000E100E07C
:104EB0004188491C89B24180FF22F532914207DBCB
:104EC00000214180C180017849084900491C0170D6
:104ED00070474188491C89B24180FF22F5329142D6
:104EE00007DB002141808180017849084900491C85
:104EF000017070478188491C89B28180FF222D3260
:104F0000914205DB002181800178082291430170E4
:104F100070470A21418000210181704710214180A2
:104F20000021018170472F21418081800021018172
:104F300070471C2141800021018170473921418047
:104F40000021018170473A21418000210181704791
:104F50003B2141800021018170473B21418020217C
:104F600081800021018170472A21418081800021B8
:104F700001817047352141800021018170472E2138
:104F80004180818000210181704701214180002101
:104F90000181704719214180818000210181704782
:104FA000212141800021018170472321418081809E
:104FB000002101817047202141800021018170473B
:104FC0003321418081800021018170472621418069
:104FD0000021018170473221418000210181704709
:104FE0001F21418000210181704722214180818061
:104FF0000021018170473C214180002101817047DF
:10500000342141800021018170470221418000212B
:1050100001817047052141800021018170470421F1
:1050200041800021018170470321418000210181DD
:1050300070470B2141800021018170471E21418072
:1050400000210181704706214180002101817047C4
:105050000821418000210181704709214180002100
:10506000018170472921418000210181704715216C
:1050700041808180002101817047152141801A21E2
:1050800081800021018170471621418081800021AB
:10509000018170471A214180002101817047302130
:1050A00041808180002101817047262141800021BB
:1050B000018170472D21418081800021018170474D
:1050C0002B2141808180002101817047272141806F
:1050D0000021018170471321418000210181704727
:1050E0001721418081800021018170471421418076
:1050F0000021018170470721418000210181704713
:1051000038214180002101817047372141800021F1
:105110000181704736214180002101817047312192
:1051200041800021018170472821418000210181B7
:1051300070472C21418081800021018170472C2102
:10514000418022218180002101817047122141800C
:1051500000210181704718214180002101817047A1
:105160001B2141800021018170471B2141801C21AE
:1051700081800021018170471B2141803521818080
:105180000021018170471D2141800021018170476C
:10519000112141800021018170472521418000219A
:1051A0000181704724214180002101817047000066
:1051B00000B5FE48C078022820D0FD480078C0071E
:1051C000C00F002816D0FB48C07B01281BDAFA4824
:1051D00080788006C00F002815D1F74880782021FC
:1051E00088432030F4498870F248C07B401CF14964
:1051F000C87308E00020EF49C87304E00020ED49BF
:10520000C873EB490870EB480078C007C00F00284E
:105210007ED1E648C07804282ED1E84800784008BE
:105220004000E649087000204880E548807C10284E
:1052300013D1E4480078C007C00F00280DD0E24821
:105240000078C007C00F00283DD0DA480078202140
:1052500088432030D749087035E0D64800782021AF
:105260008843D4490870D848007840084000D6499F
:1052700008700020488026E0CE480078202188432E
:10528000CC490870CD480078C007C00F00280AD06C
:105290000D20CE49C875C7480078102188431030CA
:1052A000C44908700FE0C8480078C007C00F002844
:1052B00009D02220C549C875BE480078102188430E
:1052C0001030BC490870BE48807C0B2821D1B948F9
:1052D000007840084000401CB6490870B648407944
:1052E0000007C00F00280FD10846807902280BDA8A
:1052F000B1484079082188430830AF494871AD482A
:105300008079401CAB4988710B20B049C87503E017
:10531000F1E10020A7498871AD48407802287AD190
:10532000AC484078012807D0A048C078012811D1A6
:10533000A948807800280DD19E48C079002802D164
:1053400001209C49C871A3484078012802D103205C
:10535000A04948709748C079002873DD96480079C5
:105360004006C00F002842D19248C07903283EDA97
:105370009048C079401C8F49C8710846C0790328FD
:1053800021D18A48C078052805D10020C8710120A4
:105390008F49487009E08548C078012805D0002071
:1053A0008449C87101208A494870824800790028E0
:1053B00005DD80480079401E7E49087160E00120CB
:1053C000824948765CE07C4800794021884340303F
:1053D0007949087102207D4948760620754908718F
:1053E0007E480078082188437C49087048E071486D
:1053F000C079032817DB6D48C078012813D000203E
:105400006C49C87108460079002805DD0846007916
:10541000401E087103E023E001206C49487601201A
:105420006B4948702CE063480079002806DD61482C
:105430000079401E5F49087122E003E001206349C2
:1054400048761DE05B480079002805DD5948007961
:10545000401E5849087113E001205C4948760FE06E
:1054600054480079002805DD52480079401E514912
:10547000087102E001205549487600204D49C87165
:105480004A48C07802287DD04848C07804287CD09B
:105490004648C078052803D14E48007D072877D0BC
:1054A0004B48C078022820D1424800780221884326
:1054B000801C40490870022044498876454840785D
:1054C000012803D039488078012861D13948007A11
:1054D000002802D10120374908723E48407801284F
:1054E00056D103203B49487052E03948C078012822
:1054F0002AD130484078002805DD2E484078401EEB
:105500002C49487044E02B48007802218843801CD5
:105510002849087003202D4988762E4840780128B4
:1055200003D022488078012832D12248407A0028CE
:1055300002D101201F49487226484078012827D10E
:1055400003202449487023E01A48007A022802DB2D
:105550000020184908721748407A022802DB002010
:105560001449487213484078F02802D000201149AD
:1055700048700120154988760E480078022188433A
:105580000C4900E001E0087002E001200F49887634
:105590000848007A00284ADD0448C078042842D030
:1055A0000248C07802283ED0034819E0A00A002033
:1055B000640A0020900A00204604002064080020AD
:1055C000100B0020320400205A080020240A00207A
:1055D000860A0020040A00203E040020380400202F
:1055E0004079C007C00F002851D19D48007A032898
:1055F0004DDA9B48007A401C99490872F0204870A7
:105600009848C0792021884320309649C87196482F
:10561000C07805283BD19248007A032837D1002072
:105620008F49087233E000208D4908722FE08C48C2
:10563000407A00282BDD8C48C078042824D08A4882
:10564000C078022820D087480079C00900281ED1E0
:105650008348407A02281ADA8148407A401C8049FF
:105660004872804800798021884380307D490871E4
:105670007D48C07805280AD17948407A022806D1A9
:1056800000207749487202E0002075494872774847
:105690000078C006C00F00282ED07148007808217D
:1056A000884308306E4908706E4840798007C00F03
:1056B000002858D10846807A012854DA0846807AB2
:1056C000401C88726748407902218843801C6549E4
:1056D000487102206649C8766348C078052842D1DF
:1056E0005F48807A01283EDB6248407801283AD141
:1056F00003206049487036E05F48C07C072805D029
:105700005A4800784007C00F00282CD05448007831
:105710000821884308305249087052484079C0092E
:10572000002820D10846C07A01281CDA0846C07A31
:10573000401CC87203204E49C8764A4840798021EF
:1057400088438030474948714748C07805280AD1C6
:105750004348C07A012806DB46484078012802D138
:105760000320444948704048C078042819D13C4877
:105770000078082188433A4908703C480078102195
:1057800088433A490870084600780421884337491D
:105790000870002032498872C87201203449C876E6
:1057A0005CE03148C078022858D101203049C876E1
:1057B0002E480078102188432C490870084600784C
:1057C0000821884329490870084600780421884345
:1057D0002649087029480078022188432749087023
:1057E0002748007802218843254908702548007819
:1057F000022188432349087019480078082188430A
:1058000017490870084600784008400008700846AC
:105810000078102188431249087000201449C87587
:1058200001204876C876184800784008400016499C
:10583000087000204880154800784008400013494F
:10584000087000204880064948718871C871087244
:1058500048728872C87208734873887300BD00006C
:10586000900A002046040020A00A0020B009002071
:10587000240A0020040A0020290B00209C09002093
:1058800035040020380400205A0800206408002055
:1058900050480078C007C00F002836D14E48007825
:1058A000C007C00F0028F8D14C48007C002803D066
:1058B0004A48807C0A2829D14948C07801281DD14E
:1058C000484880780007C00F00281AD14148807BE3
:1058D000012816DA43488078082188430830414976
:1058E00088703C48807B401C3A4988730846807B1E
:1058F000012806D103203A49C87002E0002035494A
:105900008873002033494873087362E03348007C91
:105910000A282ADC3248C07802281ED03048C078D5
:1059200004281AD02E48C078052816D02D48807833
:105930004007C00F002813D12648407B01280FDA0A
:105940002848807804218843001D26498870214812
:10595000407B401C1F49487302E000201D494873EA
:1059600000201C498873087333E01C48007C14280D
:105970002ADC1B48C07802281ED01948C0780428A9
:105980001AD01748C078052816D0164880788007A6
:10599000C00F002813D10F48007B01280FDA1148EF
:1059A000807802218843801C0E4988700948007B5A
:1059B000401C0849087302E00020064908730020D3
:1059C00004494873887304E00020024988734873CF
:1059D00008737047900A00205A080020100B00201E
:1059E000A00A00204604002010B55948C07C0028B9
:1059F00003DD5748C07C07282DDB5648807C1028E3
:105A000003DD5448807C132825DD5248807C202803
:105A100003DB5048807C22281DDD4F4800780007BA
:105A2000C00F002817D14D4800788007C00F00280C
:105A300011D14B4800788007C00F00280BD149488E
:105A400000788007C00F002805D147480078C006BD
:105A5000C00F002877D04448007840084000401C20
:105A600041490870FF2101310920C006FEF736FDCB
:105A700000280DD13D4880887D21C900884207DA81
:105A80003B48007E0821884308303949087605E004
:105A90003748007E08218843354908763548C07864
:105AA000022853D034484079C006C00F00280FD1D7
:105AB0002D48407901280BDA2F484079102188437E
:105AC00010302D49487128484079401C26494871BA
:105AD0002048807C002804DD1E48807C2449C8754D
