:020000040800F2
:10000000B0110020590100088B0100088D01000883
:100010008F01000891010008930100080000000012
:100020000000000000000000000000009501000832
:100030009701000800000000990100089D6E00086B
:100040009D0100089D0100089D0100089D01000818
:100050009D0100089D0100089D0100089D01000808
:100060009D0100089D0100089D0100089D010008F8
:100070009D0100089D0100089D0100089D010008E8
:100080009D0100089D0100089D0100089D010008D8
:10009000C90000209D0100089D0100089D01000885
:1000A000451200089D0100089D0100089D7400088C
:1000B000B575000800F002F800F03EF80CA030C85A
:1000C000083824182D18A246671EAB4654465D46D4
:1000D000AC4201D100F030F87E460F3E0FCCB64660
:1000E0000126334200D0FB1AA246AB4633431847E1
:1000F000DC7E00000C7F0000103A02D378C878C183
:10010000FAD8520701D330C830C101D504680C6059
:10011000704700000023002400250026103A01D378
:1001200078C1FBD8520700D330C100D50B607047AF
:100130001FB51FBD10B510BD00F09AFA1146FFF7AC
:10014000F7FF07F073FE00F0B2FA03B4FFF7F2FF17
:1001500003BC00F0B9FA0000144880F30888144882
:100160000168090E134A9142FFD1134813490160F7
:100170001348144901601448124901600E4813499C
:1001800001601348804713480047FEE7FEE7FEE79B
:10019000FEE7FEE7FEE7FEE7FEE7FEE7FEE700001C
:1001A0000D480E490E4A0F4B70470000B011002059
:1001B000040000001F0000001C10024000000004AA
:1001C00018680040120000001C6800400000000099
:1001D0009D6F0008B5000008B00B0020B011002092
:1001E000B00D0020B00D002001E004C0091F04295B
:1001F000FBD28B0701D50280801CC90700D002709A
:10020000704700290BD0C30702D00270401C491E62
:10021000022904D3830702D50280801C891EE3E7EC
:100220000022EEE70022DFE7002203098B422CD3F5
:10023000030A8B4211D300239C464EE003460B4336
:100240003CD4002243088B4231D303098B421CD398
:10025000030A8B4201D394463FE0C3098B4201D38A
:10026000CB01C01A524183098B4201D38B01C01AC2
:10027000524143098B4201D34B01C01A5241030939
:100280008B4201D30B01C01A5241C3088B4201D3E8
:10029000CB00C01A524183088B4201D38B00C01A95
:1002A000524143088B4201D34B00C01A5241411ABC
:1002B00000D201465241104670475DE0CA0F00D09F
:1002C0004942031000D34042534000229C46030998
:1002D0008B422DD3030A8B4212D3FC22890112BA1E
:1002E000030A8B420CD3890192118B4208D38901F6
:1002F00092118B4204D389013AD0921100E089090E
:10030000C3098B4201D3CB01C01A524183098B42EE
:1003100001D38B01C01A524143098B4201D34B01D7
:10032000C01A524103098B4201D30B01C01A52413A
:10033000C3088B4201D3CB00C01A524183088B42C1
:1003400001D38B00C01A5241D9D243088B4201D34A
:100350004B00C01A5241411A00D201466346524135
:100360005B10104601D34042002B00D54942704734
:1003700063465B1000D3404201B50020C046C04632
:1003800002BD7047704770470346CA02400D10B562
:1003900010430A1504D00124E4072043002A05DB9A
:1003A0000A4CA21A04D4D040FF2A00DD002010BD60
:1003B0004A00002B01D0012000E00020101801228B
:1003C0005205D042F2D8C817C04310BD1E04000029
:1003D0001F22030C02D10F22000402D0030E03D00F
:1003E00004E00020014670470002083A030F01D1E3
:1003F0000001121F830F01D18000921E002801DB33
:100400004000521E120551184205C01241181046F4
:100410007047C10FC90700D0404201229207114323
:10042000D6E701218907D3E7F0B58B4C0F092546A4
:1004300089B0BD437BD01D092646AE43FAD00E4697
:100440005E402740F60F3E43254071D024012142F3
:10045000FBD0FF24AD19A4042D1B039501252D0508
:10046000DB02DB0AC9022B43C90A29431E01090129
:10047000040F130F050121431701880B82039143D9
:100480002D098C46A90B1E438A039543B30B9A038F
:1004900096433F09BA0B9403A74302962E467E4328
:1004A0000497B6464E19D7190C4601965443059742
:1004B0007E43371B7646BF1B3601B646BE0B361948
:1004C00000967646BC043719009C01D3641C009446
:1004D0006400002F01D001263443029E049F75431F
:1004E00066467E430496760034196E0034190094F3
:1004F000029C019E1C196643751BAE460694654618
:100500004519059C05956C43594375460891691A30
:100510000191049E01465143A41B0491611A009C61
:100520000791E10605D061090122114302E072E062
:100530006EE06109089D00272C0A2D066918049DAC
:100540007C412A0A2D066918019D6241AC0DAD025D
:100550006D185441079A910D920255196141029A02
:10056000644658435443069B059A5A43121A131B78
:100570009A0E9B015B187A41010B0005C31851418B
:10058000220A200644195A419A4200D2491C0120ED
:100590004002814203D315230226F64302E01423CE
:1005A0000326F6432020C51AA9401746AF40DA407B
:1005B0000A4320460399D8400914731819055118A5
:1005C000039A3843D2075140AC4009D001229440ED
:1005D00006D30022401C5141002C01D140084000AC
:1005E0001E4A934212D3012203989206904207DBDF
:1005F0000520400709181A480143C012414004E091
:10060000032040070818C10FC907002009B0F0BD3A
:100610000020F107FAE705180C464C4111486D42DD
:10062000A04115D394181A465A410E48644290418D
:100630000ED301204A004005824209D35A0082426B
:1006400006D35940C90F084AC90700201143DDE706
:1006500000200649DAE700000000FF07FE0700005F
:10066000FFFFFF7F0000E0FF0000F07F0000F87F49
:10067000754600F025F8AE46050069465346C008A9
:10068000C000854618B020B5FFF78AFD60BC002782
:100690004908B6460026C0C5C0C5C0C5C0C5C0C54E
:1006A000C0C5C0C5C0C5403D49008D46704710B5A6
:1006B0000446C046C0462046FFF747FD10BD000077
:1006C000004870474C0B002001491820ABBEFEE7E4
:1006D000260002007047000003B40148019001BDEC
:1006E0007900002003B40148019001BDD50100202C
:1006F00003B40148019001BD0103002042690A438F
:1007000042617047002904D0426801231A434260C5
:1007100003E042685208520042607047002904D04A
:10072000826804231A43826003E0826804239A43A8
:1007300082607047002A03D083680B43836002E025
:1007400083688B438360704710B502460020506871
:10075000C00BC0030C684B6823431843506090687B
:10076000044B18400C694B6923438C68234318439E
:10077000906010BD800000FF70B5144600224268F2
:100780000F26B6021546B5432A469D022A4342600B
:10079000202905DAC56801268E403543C5600CE086
:1007A000FF2904D1C568054E3543C56005E0FA2927
:1007B00003D1C5682D0C2D04C56070BDFFCF0000AE
:1007C00000206849C86068480078C007C00F00284A
:1007D0004FD165480078C006C00F0028F8D16248A4
:1007E00000780007C00F0028F2D101205F4988720D
:1007F00000205F49C8715B48C078022839D008469C
:100800000078042188435A49087008460078082176
:10081000884357490870012048705248C07804281E
:1008200028D05048C078052824D052488078400805
:100830004000401C4F4988704F48007FF02188439A
:1008400040304D4908774A48007840084000401C35
:1008500047490870002049498883494800780221A7
:100860008843474908700846007804218843444972
:10087000087075E03C4800788006C00F002818D04A
:100880003B48007840084000401C3949087000206F
:100890003A4988833848007FF02188432030364920
:1008A00008773448407840218843403031494870C7
:1008B00056E03448007C142825DA31484078012875
:1008C00021D02C48407904218843001D29494871D2
:1008D0002948007FF02188431030274908770220FB
:1008E0002749487008460078042188432449087045
:1008F0001F48007840084000401C1D490870002037
:100900001E4988832CE000201749C871087248727C
:1009100001201D4948700020194908830846407885
:1009200001281DD00846007802218843801C144904
:1009300008700846807802218843801C104988701E
:10094000012048700020486007200875084800789A
:1009500040084000401C0649087000200749888371
:1009600070470000A40A0020940A00204D0A0020CD
:100970003E04002046040020280A0020D809002058
:10098000080A0020180B00208A0A00201948007865
:10099000C007C00F00282BD116480078C006C00F32
:1009A000002825D1134800780007C00F00281FD168
:1009B00011480078C006C00F00280DD00E480078FE
:1009C0000821884308300C49087008460078042143
:1009D0008843094908700BE00748007808218843DC
:1009E00005490870084600780421884302490870C8
:1009F00070470000940A00203E0400201E48007842
:100A0000C007C00F002835D11B480078C006C00FB2
:100A100000282FD1184800788006C00F002829D15F
:100A2000154800788007C00F002823D112480078AD
:100A30000007C00F00281DD11048C07802280DD033
:100A40000F48007804218843001D0D4908700846AE
:100A50000078082188430A4908700BE008480078AC
:100A60000421884306490870084600780821884315
:100A70000349087070470000940A0020A40A00206F
:100A80003E04002000B5FE48007810218843103055
:100A9000FB490870FB480078C007C00F002846D10A
:100AA000F8480078C006C00F0028F8D10846007842
:100AB0000007C00F00287DD00020F3490861C860FE
:100AC0000120F24988720020ED49C871EE48C078D3
:100AD00004282DD0EC48C078052829D0EC480078AF
:100AE00002218843EA4908700846007804218843B7
:100AF000E749087000204860087502204870E54802
:100B0000807840084000401CE2498870E248007F3D
:100B1000F02188434030E0490877D9480078400800
:100B20004000401CD64908700020DC4988838AE1D7
:100B3000D44800788006C00F002818D0D04800782C
:100B400040084000401CCE4908700020D3498883EB
:100B5000D0484078402188434030CE494870CE4844
:100B6000007FF02188432030CB4908776BE1CC48E7
:100B7000007C142827DAC6484078012823D0C548CD
:100B8000C079102188431030C249C871C248007F23
:100B9000F02188431030C04908770220BC494870D2
:100BA0000846007802218843B9490870B4480078A3
:100BB000400800E014E14000401CB14908700020EA
:100BC000B64988833FE10020AE49C8710872487277
:100BD0000120B4494870AE4800788007C00F002853
:100BE00003D0AB48007D092820D1A9480078022114
:100BF0008843801CA6490870012048700020487571
:100C00008875C860086148600875084680780221C8
:100C100088439F4988709A48007840084000401CEB
:100C20009749087000209D4988830CE1002098496D
:100C3000088308464078032826D10846007D072807
:100C400007D19448807920218843203091498871C8
:100C50000CE08F488078022188438D4988708D4848
:100C600040794021884340308A49487101208849B1
:100C700048708348007840084000401C8049087054
:100C8000002086498883DEE08148007D002833D13A
:100C90007F488078022188437D4988700B20487501
:100CA00008464068C8600846807D002806DD084682
:100CB000006948600846807D087504E0002074499A
:100CC0004860012008756E48007802218843801C26
:100CD0006B4908706F4880788021884380306D4967
:100CE00088706748007840084000401C64490870DC
:100CF00000206A498883A6E06548007D062828DA36
:100D00006348007D62498875084640680861084666
:100D10008078022188435E49887008460078022165
:100D200088435B49087000204860092008755948CD
:100D30004079202188432030564948715048007836
:100D400040084000401C4E490870002053498883E9
:100D500079E04F48007D072821D14D488078022155
:100D600088434B49887008460078022188434849E7
:100D70000870FA20486009200875464880794021AB
:100D800088434030434988713D480078400840001E
:100D9000401C3B49087000204049888353E03C4890
:100DA0008078022188433A49887000208875487508
:100DB000C8600861FA204860092008753548C07885
:100DC0002021884320303349C8702D4800784008DE
:100DD0004000401C2A49087000203049888332E0D6
:100DE000274800784007C00F00282CD00020264953
:100DF0000861C8600846C07804281AD00846C07840
:100E0000052816D01E48C078022805DA1C48C0788C
:100E1000401C1B49C87002E000201949C87000201E
:100E2000174988801C48407DF821884308301A49BA
:100E300048751348007840084000401C104908706D
:100E400000201649888310488078012850D1124824
:100E5000407DC00801284BD109488088401C80B2E1
:100E6000074988807D21490188424EDD00200449E0
:100E700088800948407DF82188430749487513E078
:100E80003E040020940A0020A40A00204D0A0020FD
:100E9000080A002046040020280A0020D809002063
:100EA000180B00208A0A00202048C0781F4988704B
:100EB0000846C078002807D11D4840781021884393
:100EC00010301B49487020E01848C078012807D12D
:100ED0001748807940084000401C1549887114E08B
:100EE00013484078202188432030114948700CE095
:100EF00010488078012805D00F48407DF8218843AC
:100F00000D4948750020094988800120074948702B
:100F10000846007804218843044908700846007890
:100F2000082188430149087000BD00003E040020EC
:100F300046040020A40A0020280A002070B50446B8
:100F4000204606F06AFF0546012D02D0052D06D188
:100F500002E0FFF71BFD03E0FFF732FC00E000BFFB
:100F600000BF70BD70B50446204606F056FF05462A
:100F7000012D02D1FFF742FD00E000BF00BF70BDB0
:100F800070B50446204606F048FF0546072D02D1FD
:100F9000FFF778FD00E000BF00BF70BD10B58C000A
:100FA000034610331A5110BD70B50446E0688047FF
:100FB0000546E0784007400F002806DD208882497A
:100FC000884202DA2088401C20806089A84209D02B
:100FD0002079401CC0B220710F2805DB65810020FC
:100FE000207101E000202071E0784007400F0300ED
:100FF00006F070FD06042661B0E7D0E7608921891C
:10100000884217DB6089E188884213DCA078F021F0
:101010008843A0702069002802D0204621698847B3
:1010200000202080A07800090001401CA070012051
:10103000E07004E0A078F0218843A030A070C0E008
:1010400060892189884203DB6089E18888420FDD5D
:10105000A078F02188431030A0706069002802D089
:10106000204661698847002020800220E07021E04E
:1010700020885649884210DDA078F02188435030FE
:10108000A070606A002802D02046616A8847606AC2
:1010900000280FD00520E0700CE020880A2809DD28
:1010A000A078F02188437030A070E06A002801D059
:1010B0000520E07085E060892189884221DB608914
:1010C000E18888421DDCA0780007000F0F2808DAAD
:1010D000A07800090001A178491C0907090F0843FD
:1010E000A070A078F02188432030A070A06900286B
:1010F00002D02046A1698847002020800320E070AC
:1011000027E02088FF212D31884222DDA0780007CA
:10111000000F01280BD1A078F02188433030A07057
:10112000E069002813D02046E16988470FE0A078E5
:101130000007000F02280AD1A078F0218843403030
:10114000A070206A002802D02046216A884700202B
:10115000E07036E060892189884203DB6089E1889C
:10116000884216DDA078F02188431030A0706069B5
:10117000002802D02046616988472088FF212D3150
:10118000884204DA002020800220E07001E0002084
:10119000E07016E06089218988420FDB6089E18870
:1011A00088420BDCA078F02188437030A070E06AA0
:1011B000002805D02046E16A884701E00020E07061
:1011C00000BF00BF70BD0000FAFF0000B80B0000B8
:1011D000F8B504460D4616461F4638212046FFF74F
:1011E00021F8A078F0218843A030A070E560E06885
:1011F000804760812681E780F8BD000001460948EC
:10120000026805E08A4202D10020C0437047526B59
:10121000002AF7D1034800684863024801600020B3
:10122000F4E700001804002010B50548046803E046
:101230002046FFF7B9FE646B002CF9D110BD000009
:101240001804002008B50120000503F0BDF80028AF
:1012500028D00120000503F0B1F8102000F034FB85
:1012600001281FD100202649086000220B212548B3
:1012700003F0BBFA0121C902684601800321817095
:101280001021C17069461F4803F040FA0121C902CC
:101290001C4803F0D7FA1C480078202188432030EE
:1012A000194908700120C00403F08EF8002826D0E8
:1012B0000120C00403F082F80C2000F005FB012897
:1012C0001DD1002011490860072201210D4803F0BB
:1012D0008CFA022168460180032181701021C170BF
:1012E0006946084803F012FA0221064803F0AAFAF8
:1012F0000748007804218843001D0549087008BD8F
:101300004000004000040048B009002040040040B4
:101310009C09002010B50246002A01D1104812E0B5
:10132000042A02D10E48001D0DE0082A02D10C4803
:101330000C3008E00C2A02D10948083803E0102AD2
:1013400001D10748001F002904D00368012423436A
:10135000036003E003685B085B00036010BD0000EE
:10136000083C01400021024A8218116070470000C9
:10137000003C014010B501460020002901D10F4A70
:1013800012E0042902D10D4A121D0DE0082902D1F4
:101390000A4A0C3208E00C2902D1084A083A03E054
:1013A000102901D1054A121F13680124A407234004
:1013B000002B01D0204600E0002010BD083C014079
:1013C00030B502460023002A01D1224812E0042A47
:1013D00002D12048001D0DE0082A02D11D480C3022
:1013E00008E00C2A02D11B48083803E0102A01D17A
:1013F0001848001F0C2A0ED0102A0CD00368164C77
:101400002340CD688C682C430D692C434D692C43D7
:10141000234303601CE00C68302C07D10D4C083CC2
:10142000A46910252C430B4D083DAC6103680A4CA0
:1014300023404D680C682C438D682C43CD682C43A9
:101440008D692C430D692C434D692C432343036064
:1014500030BD0000083C01400240E03F10B50446AA
:1014600005F0CCFA002809D16078002803DD607807
:10147000401E60700CE00020207009E06078401C85
:10148000C0B26070142803DD142060700120207049
:1014900010BD00007FB505460E4614463078C009E1
:1014A000002822D1012003F043F8288B6C498842A0
:1014B0000CDAA088642802DAA088401CA080E088AA
:1014C00000280FDDE088401EE0800BE0E088642803
:1014D00002DAE088401CE080A088002802DDA088B5
:1014E000401EA08000207070B8E07078C007C00F68
:1014F000002810D1012003F01BF8A088E188884261
:1015000003DDE1200001E08301E0288BE08300207F
:10151000A080E080A0E0E08BFEF783FF514A524BB1
:1015200001910090FEF780FF03910290FEF72CFFDF
:10153000A082E08BFEF775FF4C4A4D4B0191009065
:10154000FEF772FF03910290FEF71EFF2082A08A31
:101550002084E08BFEF765FF444A464B01910090E2
:10156000FEF762FF03910290FEF70EFFE082E08B30
:101570004149884203DAE08BC830208302E03E48CC
:10158000C8302083E08BC82803DDE08BC838608337
:1015900001E000206083288BA18A88420DDD20892C
:1015A000401C80B22081642803DD0020607064202C
:1015B00020810020E080A0801EE0288BE18A884204
:1015C0000DDDE088401C80B2E080642803DD01204E
:1015D00060706420E08000202081A0800CE0A08862
:1015E000401C80B2A080642803DD0220607064206B
:1015F000A08000202081E0802078C007C00F002854
:1016000013D1288B1921490188420CDA6089401CCA
:1016100080B260817D21C900884206DD01202070F2
:101620000020608101E000206081288B218B8842AE
:1016300010DA288B618B88420CDDA089401C80B2B7
:10164000A081FF212D31884206DD288BE0830846EA
:10165000A08101E00020A081012070707FBD00000A
:10166000480D0000F6285C8FC2F5E83F9A999999D9
:101670009999E93F9999D93F370F000083795B1C0D
:10168000DBB28371052B10DD0378DB07DB0F002B4A
:1016900004DD03785B085B00037004E003785B08FB
:1016A0005B005B1C037000238371704770B50446B8
:1016B0000E4615462078C007C00F00284FD1E079AC
:1016C000401CC0B2E071022812DDE079052806DA7C
:1016D000002002F04FFF012002F05EFF46E00020F4
:1016E00002F048FF002002F057FF0620E0713DE0C5
:1016F000012002F03FFF002002F04EFFE0790128B8
:1017000034DD2889E8822889C8280CDA207A401C30
:10171000C0B220720A2803DD0120E0700A20207286
:101720000020607222E02889114988420CDD607A2D
:10173000401CC0B260720A2803DD0220E0700A205B
:1017400060720020207211E0002060722072207A06
:1017500000280BD1607A002808D1E07006E0002054
:10176000E07102F007FF002002F016FF70BD0000DC
:10177000C409000010B5044605F018FA01280DD17F
:101780006078401CC0B26070142812DD14206070B4
:10179000207840084000401C20700AE06078002853
:1017A00003DD60784010607003E02078400840005E
:1017B000207010BD10B5044620788007C00F0028A7
:1017C00012D005F005FA00280BDD60796E280DDADD
:1017D0006079401C60716079642807D102206070D4
:1017E00004E00020607101E00020607110BD000085
:1017F00000B589B00121480405F052F801218804A0
:1018000005F04EF8402168460184002108A8C17007
:101810000321817008A90920C00602F077FF042186
:1018200068460184002108A8C1700321817008A9BD
:10183000244802F06BFF0121C80305F051F80C2089
:10184000FFF790FD30200190FF2001300290002032
:101850000390049001204004059008200690C003E6
:10186000079001A90C20FFF7ABFD1020FFF77AFDD0
:1018700030200190802002900020039004900120ED
:101880004004059008200690C003079001A910208D
:10189000FFF796FD0821202005F0BEF90120000584
:1018A00002F08CFD0120C00402F088FD02F05EFD14
:1018B00001210C20FFF72EFD01211020FFF72AFD4A
:1018C00009B000BD0004004870B50446022520465A
:1018D000FFF750FD002801D1002500E00125284632
:1018E00070BD000010B524488079030006F0F2F8BE
:1018F00005040B10283637002048FFF73BFF20482F
:10190000FFF7ACFD2CE001F00BFC02F0FDFC27E042
:1019100002F0B4FD1B491C4800F0DBF91B491C48D0
:1019200000F046F81B4800F097F9194A1A491B487D
:1019300000F0EAF91A4A1B491B4800F0CFFA0FE001
:10194000124A1A491448FFF799FE184A0A490F48E3
:10195000FFF7A0FD1048FFF72DFF01E000E000BFFA
:1019600000BF05488079401CC0B203498871042833
:1019700001DD0020887110BDBC0A00203004002069
:1019800032040020580A002034040020D00A00202D
:10199000B0090020350400208A0A00209C0900209C
:1019A000A40A00204604002038040020680A002011
:1019B00038B504460D462078C007C00F00286FD008
:1019C00020788006C00F00286AD12078C006C00F9A
:1019D0000028F9D120784007C00F0028F4D12078E2
:1019E0000007C00F0028EFD1688A698B884220DA8F
:1019F00020788007C00F00281BD1FF212D31206ADD
:101A000088420CD2A088401C80B2A080642806DDE9
:101A10000020A08020781021884310302070002002
:101A200020816081E08800284BDDE088401EE08056
:101A300047E0688AA98B884239DDE088401C80B283
:101A4000E080C82806DD0020E0802078042188435B
:101A5000001D2070688AE98B884222DD2089401CA5
:101A600080B22081322806DD0020208120780421E8
:101A70008843001D2070688A298C88420DDD6089AA
:101A8000401C80B2608105280EDD00206081207836
:101A900004218843001D207006E00020608103E0DF
:101AA00076E00020208160810020A08009E0E088AD
:101AB000002802DDE088401EE0800020A080208118
:101AC000608120788007C00F002813D12069323050
:101AD0006169884203D22069323020614FE0616938
:101AE0002069884203D22069401C206147E0606978
:101AF000206144E06088012816D120693230FF213E
:101B0000B131884203D220693230206137E0FF21B1
:101B1000B1312069884203D22069401C20612EE047
:101B2000FF20B13020612AE06088022811D12069AD
:101B30003230F02803D22069323020611FE0206962
:101B4000F02803D22069401C206118E0F0202061B9
:101B500015E0206932304B21C900884203D2206948
:101B6000323020610BE04B21C9002069884203D24A
:101B70002069401C206102E04B20C0002061FF2151
:101B80002D31206A884208D2206A401C206204E07D
:101B900000202062E080A08020612520005D401CA4
:101BA000C1B225200155C82906DD00212420015598
:101BB000262001552520015520788006C00F0028D9
:101BC00034D02420005D401CC1B2242001550A29D4
:101BD0002FDD20782021884320700021242001550A
:101BE0000121C902684601801821C170012181705C
:101BF0006946174802F08AFD0121C902144802F023
:101C000021FE02220B21124802F0EFFD2620005D8A
:101C1000401CC1B22620015505290ADD00210155CD
:101C20002078082188430830207002E00021242019
:101C300001554B2149012069884204D3084620619F
:101C40000449086002E003492069086038BD0000CB
:101C5000000400484000004010B504462078C0074A
:101C6000C00F002830D020788007C00F00282BD16B
:101C700020784007C00F002806DD05F0B5F8207871
:101C800004218843207023E005F09EF804F0BEFE96
:101C9000002811D16078401CC0B2607032280DDD80
:101CA000207802218843801C207020784008400062
:101CB00020703220607001E00020607020780421E4
:101CC0008843001D207003E00020607005F07CF860
:101CD00010BD0278D207D20F002A04D08A7A1209E6
:101CE00012018A720FE002789207D20F002A05D003
:101CF0008A7A12091201921C8A7204E08A7A120905
:101D00001201521C8A727047F8B504460D461646F9
:101D100020788007C00F002865D120784007C00FC9
:101D2000002860D12078C007C00F00285BD0FF21B9
:101D30002D31306A884256D36878012853D12878EB
:101D40008007C00F00280CD1A089401C80B2A08160
:101D5000884206DD287802218843801C28700020F4
:101D6000A0816078002806D001280FD0022818D062
:101D700003282CD120E06088400051494018407869
:101D8000606060884000085CA0602BE060884000D4
:101D90004C4940184078606060884000085CA06052
:101DA00020E06088400048494018407860606088C2
:101DB0004000085CA06015E060884000434940187E
:101DC0004078606060884000085CA0600AE060883D
:101DD00040003B4940184078606060884000085CE3
:101DE000A06000BF11E000206060608840003449BE
:101DF000085CA0600020A0812078C007C00F0028E8
:101E000003D12878022188432870E07B401CC0B2AF
:101E1000E073C82803DD0020A0732074E0732078ED
:101E20004007C00F00282DD0A07B401CC0B2A0737B
:101E30000A2829DD20780421884320700020A0731F
:101E40000221684601801821C17001218170694614
:101E50001F4802F05BFC02211D4802F0F3FC012246
:101E600011461B4802F0C1FC207C401CC0B220740B
:101E7000052809DD00202074207802218843801C79
:101E8000207001E00020A073A068052804D27D2006
:101E900000011049C86205E00F48A168FEF7C4F9C7
:101EA0000C49C8620B4A6168D26A514308466421F2
:101EB000FEF7BAF980B2074940310860F8BD00006A
:101EC000347F00085A7F0008807F0008A67F000842
:101ED00000040048000400401027000070B50446CC
:101EE0000D4616462078C007C00F002873D0207812
:101EF0008007C00F00286ED1012002F05FFB207820
:101F00004007C00F002806D0012004F08FFF0020FA
:101F100004F09CFF05E0002004F088FF012004F09D
:101F200095FF04F05FFE002811D16078401CC0B21C
:101F30006070642811DD207802218843801C2070A5
:101F400020784008400020706420607005E06078D0
:101F5000002802DD6078401060706088401C80B20C
:101F600060802E4988420ADD0020608020780821A8
:101F70008843083020702078400840002070608836
:101F800064280ED1F078052805D0A879042188436B
:101F9000001DA87119E0A87902218843801CA8714E
:101FA00013E060881E49884205D1A879082188433A
:101FB0000830A87109E0608818496439884204D162
:101FC000A879102188431030A87160881349081A35
:101FD000A08022E0FFE7002002F0F0FA002060700D
:101FE00004F008FE012803D004F00CFE01280ED1F5
:101FF00020784007C00F002804DD207804218843A2
:10200000207004E0207804218843001D2070002007
:1020100004F00CFF002004F019FF70BDB80B0000A5
:10202000DC050000014948607047000000000240E4
:10203000002904D0026801231A43026003E0026809
:102040005208520002607047016849084900016067
:102050000021016041608160C1602149884208D14E
:102060001F49083949680F2211431D4A083A516037
:1020700035E01B491431884208D1194908394968AB
:10208000F0221143164A083A516028E014492831D9
:10209000884209D11249083949680F2212021143B6
:1020A0000F4A083A51601AE00D493C31884209D183
:1020B0000B49083949680F2212031143084A083AAC
:1020C00051600CE006495031884208D10449083972
:1020D00049680F2212041143014A083A51607047BF
:1020E0000800024010B5002202680D4B1A400C6A2D
:1020F0008B6823430C6923434C6923438C69234336
:10210000CC6923434C6A23438C6A23431A430260FD
:10211000CB6843600B6883604B68C36010BD0000F0
:102120000F80FFFF10B50024F9480078C007C00FEA
:10213000002812D1F7488079401CC0B2F549887157
:10214000C8280DDD0020887108460078400840004E
:10215000401C08700220C87002E00020ED49887120
:102160000020EC4948700846007802218843E9497C
:102170000870E948407801287ED1E8480078C00717
:10218000C00F0028F8D1E54800780007C00F0028EC
:10219000F2D1E24800788007C00F0028ECD1E04877
:1021A00040780128E8D1DD480078C006C00F00283B
:1021B000E2D1D949C86108464068DA49884204D268
:1021C000D5484068401CD4494860D348007D03008E
:1021D00005F080FC0A063F9BCEF7F6F5F4F3F2F12A
:1021E000CD484068D04988421AD20020CF49487073
:1021F000CF4804F0AFFDCF4804F0D2FDCB4804F047
:1022000042FECD4804F006FECC4804F036FECB4832
:102210004088002819D1C0488088C849488014E007
:10222000BD48807D002807DDBB480069BA49486089
:102230000846807D087504E00020B7494860012009
:1022400008750020B449C86048750020B34948703B
:1022500016E3B14840687D210901884246D2AE4864
:1022600040680A282FD1AC4800784007C00F0028EA
:102270000ED1A948007800E003E308218843083024
:10228000A54908700846007810218843A2490870C3
:10229000AB4800788007C00F002807D1A948807894
:1022A000802188438030A749887005E0A4480078E1
:1022B00002218843A2490870A248C0784008400023
:1022C000401CA049C870032098494870984804F001
:1022D00041FD984804F05AFD944804F0D9FD964811
:1022E00004F098FD954804F0C3FD04E000208A49FD
:1022F000486002200875884840689349081A864952
:102300008860002085494870BAE2834840687D2192
:10231000C90088421DD280484068012806D18948FA
:10232000C07802218843801C8649C87000207F49FC
:1023300048707F4804F000FD7E4804F027FD7B488C
:1023400004F0A1FD7C4804F065FD7C4804F090FD9C
:1023500004E0002070494860032008756E4840681A
:102360007A49081A6C49886000206C49487087E2F5
:10237000694840687649884224D2674840680A28FC
:1023800006D17048C07804218843001D6D49C8708B
:10239000032066494870664804F0DCFC654804F098
:1023A000F5FC624804F074FD634804F033FD6348B3
:1023B00004F05EFD16E062E2F9E194E108E1D1E0AB
:1023C00053E019E00020544948606248008B62499C
:1023D000098C884203DD05204F49087502E004207E
:1023E0004D4908754C4840685C49081A4A4988605C
:1023F00000204A49487043E24748406858498842AB
:102400001DD2454840680A2806D14E48C0780821A8
:10241000884308304B49C87000204449487008463A
:1024200004F031FD424804F087FC424804F0AEFC61
:10243000414804F0EFFC414804F01AFD0BE041482C
:10244000C0781021884310303E49C87006203249B8
:10245000087500204860304840684149081A2E49F4
:10246000886000202D4948700AE22B4840682E49B8
:1024700088421DD2284840680A2806D13148C078D1
:102480000821884308302F49C87000202749487028
:10249000084604F0F8FC264804F04EFC254804F0F9
:1024A00075FC254804F0B6FC244804F0E1FC25E066
:1024B000194840682A49884212D200201B494870B6
:1024C000084604F0E0FC1A4804F036FC194804F011
:1024D0005DFC194804F09EFC184804F0C9FC0DE0AE
:1024E0001848C0781021884310301649C87006205B
:1024F00009490875002048600861887506484068E9
:102500001749081A04498860002004494870B7E157
:1025100032040020A40A0020080A0020940A0020A7
:102520008A0A002090230B00B80B00009C090020B1
:1025300034040020B00900203504002038040020B5
:102540003E0400204604002004290000342100003D
:10255000DC050000D00A0020680A00204C1D0000A5
:10256000701700000020F6494870084604F08BFC04
:10257000F44804F0EFFBF44804F012FCF34804F0D4
:1025800049FCF34804F074FCF020F2494870F2482A
:102590004068E121C90088420ED2EF484068C8284F
:1025A00012D1EE48C078402188434030EB49C870D2
:1025B0000220EB49887607E00120E9498876072068
:1025C000E5490875002048600020E349886057E12C
:1025D000E14880788007C00F002840D1DE4840687D
:1025E000E049884227D2DC4840680A2806D1DB4807
:1025F0008079202188432030D8498871D6484068A6
:10260000FF212D31884203D20020CF49488002E0CB
:102610000120CD494880CC4804F0CBFBCB4804F0E6
:10262000FEFBC84804F096FBC54804F02CFCC848E3
:1026300004F01EFC04E00820C7490875002048602B
:10264000C5484068C749884205D2C3484068081A4F
:10265000C149886043E00020BF4988603FE0BE4830
:102660004068C149884227D2BB4840680A2806D141
:10267000BA488079202188432030B8498871B6480B
:102680004068FF212D31884203D20020AE494880A6
:1026900002E00120AC494880AB4804F08AFBAB481B
:1026A00004F0BDFBA74804F055FBA54804F0EBFB84
:1026B000A74804F0DDFB04E00820A74908750020C6
:1026C0004860A5484068A849884205D2A2484068A9
:1026D000081AA149886002E000209F498860002014
:1026E0009C494870CCE09D488079802188438030A7
:1026F0009A498871934804F02DFB934804F050FBED
:102700008F4804F0C0FB914804F084FB904804F02B
:10271000AFFB9148407D002815DD8F48407D0B2898
:1027200003D100208C49087503E08B48407D8A491D
:1027300008758948007802218843801C8649087002
:102740000320487018E00020834948600875022083
:10275000487008460078082188437F490870084679
:1027600000781021884310307B49087008460078B3
:1027700002218843784908700020714948707648E2
:1027800000780821884374490870084600781021B1
:10279000884310307049087004207449C8706F482D
:1027A00080781021884310306C49887068E00020E0
:1027B0006849487068484068FA280CD2002060498F
:1027C0004870084604F064FB5E4804F0B5FA5E48C1
:1027D00004F0DCFA4CE06048407D002803D15E48FC
:1027E000807D00281BD05C48407D0B2806D100204E
:1027F000594908750846C068486006E05648807D1B
:102800005549087508460069486053480078022118
:102810008843801C504908700320487018E000204D
:102820004D49486008750220487008460078082124
:1028300088434949087008460078102188431030C1
:1028400045490870084600780221884342490870CB
:1028500041480078042188433F49087004204349D7
:10286000C8703E4880781021884310303B498870FA
:10287000364804F0CFFA364804F0FAFA00E000BF18
:102880005DE035484078032814D13348C069401CC6
:102890003149C861364988420CD904203349C8708F
:1028A0002E4880781021884310302C4988700020F1
:1028B0002949C86127480078C007C00F00280BD1FC
:1028C00024480078C006C00F002805D121480078B0
:1028D0000007C00F002820D000201F49C861022037
:1028E0004870002048600875084600780821884331
:1028F000194908700846007810218843103016499D
:102900000870084600780221884313490870084679
:102910000078042188431049087000200849487055
:10292000084804F017FA084804F03AFA044804F09A
:10293000AAFA064804F06EFA054804F099FA10BDA8
:102940009C09002034040020B00900203504002038
:1029500038040020940A0020080A002046040020C1
:10296000280A002080FC0A00407E0500A40A0020FE
:102970003075000070B505460C46A069A84203D327
:102980004B204001606108E04B225201A169514394
:1029900008462946FDF748FC60616088002805D19B
:1029A00003496069884201D20846606170BD000039
:1029B0001405000010B5002054494870544948805F
:1029C00008460078C006C00F00280BD008460078E3
:1029D000082188434E490870084600781021884332
:1029E0004B49087000204B4948704B49C861494821
:1029F00000788007C00F002813D0464800780221D5
:102A00008843444908704548807840084000401C8D
:102A1000424988704248007FF02188434030404955
:102A20000877404804F096F93F4804F0B9F93F4868
:102A300004F029FA3E4804F0EDF9354804F018FA9C
:102A40003548407803282DD13348008B401C80B294
:102A5000314908833749884227DD00202E49088301
:102A600048600875C860487508618875022048701C
:102A700008460078082188432749087008460078EE
:102A8000102188431030244908700846007802213C
:102A900088432149087008460078042188431E496C
:102AA000087002E000201C4908831B48007880075A
:102AB000C00F002805D1184800784007C00F002833
:102AC00006D015484078012802D105201149C87068
:102AD00019480078C007C00F002812D10D48007AAD
:102AE000401CC0B20B490872C8280DDD00200872D6
:102AF0000846007840084000401C08700220C8705A
:102B000002E000200349087210BD0000940A002072
:102B100038040020A40A0020080A002046040020EF
:102B2000280A002034040020B00900209C0900205D
:102B300035040020307500003204002010B500205C
:102B40005B4948705B49488008460078C006C00F62
:102B500000280BD0084600780821884355490870A2
:102B6000084600781021884352490870524800787E
:102B70008007C00F002860D04D480078C007C00F04
:102B8000002811D14A4800780007C00F00280BD157
:102B9000474800788007C00F002805D144480078D6
:102BA000C006C00F002806D04348007802218843A1
:102BB000414908707AE040484078FA2825DA3F48D1
:102BC000007C002821DD3D48807C0A281DD03C483F
:102BD0000078C007C00F002817D137484078401C44
:102BE00035494870002037494870354804F0A4F84A
:102BF000354804F0D5F8334804F04AF9334804F076
:102C000009F92C4804F034F950E031488078400844
:102C10004000401C2E4988702E48007FF0218843D8
:102C200040302C4908770020234948700846007836
:102C3000022188432049087038E01E4800780821A6
:102C400088431C49087000201B4948701C4804F048
:102C500081F81D4804F0A4F81A4804F014F91B4840
:102C600004F0D8F8134804F003F90020154948701F
:102C70001949486008750220487008460078082104
:102C800088431549087008460078102188431030A1
:102C90001149087008460078022188430E490870DF
:102CA00008460078042188430B49087010BD0000D5
:102CB000940A002038040020A40A0020180B0020E9
:102CC000340400209C090020B009002035040020B5
:102CD00046040020280A0020080A0020A048C078E6
:102CE00005287DD19F48007D01287AD19E48008823
:102CF00000282DD101209C4908809C48007D002897
:102D000027D19A48807802218843984988700B20FF
:102D1000487508464068C86000204860092008756A
:102D20009348007802218843801C9149087091489B
:102D300040792021884320308E4948718C480078A2
:102D400040084000401C8A49087000208A49888356
:102D500079E08648007D062828DA8448007D83498A
:102D600088750846406808610846807802218843D3
:102D70007E49887008460078022188437B490870A4
:102D800000204860092008757A484079202188434E
:102D90002030784948717648007840084000401C4F
:102DA000734908700020744988834CE06F48007DA7
:102DB000072824D16D488078022188436B498870A8
:102DC000084600780221884368490870FA20486064
:102DD000092008756748807940218843403001E028
:102DE0004DE02DE06349887161480078400840005B
:102DF000401C5F49087000205F49888323E05B48DE
:102E00008078022188435949887000208875487568
:102E1000C8600861FA204860092008755548C078E4
:102E20002021884320305349C87051480078400819
:102E30004000401C4E49087000204F49888302E042
:102E40000020494908804748C07B02280DD14448EA
:102E50004079401CC0B242494871282870DD0220E8
:102E6000C8708870002048716AE044480078C00744
:102E7000C00F002864D005203949887060E03848C8
:102E80000078C007C00F00280DD03648C07B02284C
:102E900005D13348007840084000314908700220CD
:102EA0002F4988704CE02F48C07B052803D02C4860
:102EB0008078052811D131480078C007C00F00285C
:102EC00003D00420264988703AE02548007840085D
:102ED0004000401C2249087032E02248C07B042890
:102EE00009D126480078C007C00F002803D004206D
:102EF0001B49887024E01B48C07B022804D0194875
:102F0000C07B174988701BE015488078042812D1CF
:102F10001348C079401CC0B21149C87128280FDD80
:102F20000020C8710846007840084000401C087026
:102F30000220C87004E000200949C871022088708E
:102F40000848007D012802D1002005490861054894
:102F5000407D00020349897D401809490881704776
:102F6000A40A0020180B002056040020080A0020A4
:102F70003E04002046040020D8090020320400202E
:102F8000C60A002010B500205A4948705A480078F7
:102F9000C007C00F00287DD008460078C007C00FCA
:102FA000002815D1084600780007C00F002805D179
:102FB000084600788007C00F002803D04F4880786B
:102FC000012805D14B480078C006C00F00280FD05B
:102FD0004B4803F0BFFE4B4803F0E2FE4A4803F0C3
:102FE00052FF4A4803F016FF494803F041FF5EE0F4
:102FF00042488078012833D14648007C00282FDDE4
:103000004448807C0A282BD0414800780007C00F34
:1030100000280FD03A4803F09DFE3A4803F0C0FE66
:10302000394803F030FF394803F0F4FE384803F024
:103030001FFF3CE0324803F08DFE324803F0B0FE43
:10304000314803F020FF314803F0E4FE30480078B7
:10305000C007C00F00282AD12D4803F00EFF26E03C
:103060002B480078C006C00F00280BD028480078F5
:1030700008218843264908700846007810218843B3
:10308000234908701E4803F065FE1E4803F088FEC1
:103090001D4800E008E003F0F6FE1C4803F0BAFE0D
:1030A0001B4803F0E5FE02E001201B49C870002028
:1030B000154948701949486008750220487008464B
:1030C00000780821884315490870084600781021C7
:1030D000884310301149087008460078022188435F
:1030E0000E49087008460078042188430B4908708F
:1030F00010BD0000940A0020300400203E0400208F
:1031000034040020B00900209C0900203504002070
:1031100038040020180B0020A40A0020080A002010
:103120006D480078C00900287ED06C4880786B49D3
:10313000C978884279D069488078012807D16748E2
:10314000C078032803D100206449087188E06348EF
:103150000079401CC0B2614908710228F6DD0846BA
:103160008078012827D108460078C007C00F0028C2
:103170006FD15B48007840084000401C58490870F7
:1031800000205849888356498870C870564840784E
:103190001021884310305449487054480078C007C3
:1031A000C00F002803D101204C49C87051E0032012
:1031B0004A49C8704DE04948807802281BD14748E9
:1031C000C078042813D04848407880218843803054
:1031D00045494870002042498870C8700846007808
:1031E00040084000401C087000203E4988830220AF
:1031F0003A49C8702DE039488078042829D13C48E4
:103200000078C007C00F002823D03448C0780528B4
:103210001FD035488078102188431030324988709B
:1032200034480078C00701E051E016E0C00F0028E4
:103230000CD13148008B2F49098A884206DA2A4886
:10324000C07940084000401C2749C8710420234928
:10325000C87000202149087102E000201F49087150
:1032600026480078C007C00F002831D124480078D4
:10327000C007C00F00282BD122480078C007C00F1C
:10328000002825D120480078C007C00F00281FD093
:103290001248C07802281BD01048C078042817D0E4
:1032A0000E48C078052813D00C48C068401C0B4954
:1032B000C860164988420ED902200849C8700846DD
:1032C000007840084000401C08700020C86002E000
:1032D00000200249C8607047BC0A0020A40A0020F0
:1032E0003E040020D80900204604002030040020BD
:1032F00032040020680A0020D00A0020B009002013
:10330000350400203804002034040020307500000B
:1033100010B50020B2494870B2480078C007C00F0D
:10332000002872D108460078C007C00F002811D1CC
:10333000084600780007C00F00280BD10846007827
:103340008007C00F002805D108460078C006C00FCE
:1033500000280FD0A44803F0FDFCA44803F020FD92
:10336000A34803F090FDA34803F054FDA24803F0E6
:103370007FFD34E1A148007C0028FADD9F48807C75
:103380000A28F6D09E48807800283FD19849487096
:1033900002209C49487000204875C8600875486044
:1033A000084600780221884396490870084600784C
:1033B00004218843934908708B4803F0BDFC8B4877
:1033C00003F0E4FC8A4803F063FD8A4803F022FD21
:1033D000894803F04DFD8C48007802218843801C09
:1033E0008949087084480078C006C00F00280BD0B7
:1033F00081480078082188437F4908700846007892
:10340000102188437C4908708DE090E07C488078EA
:1034100002283FD10020764948700220794948703F
:1034200000204875C8600875486008460078022189
:10343000884374490870084600780421884371491C
:103440000870694803F094FC684803F09FFC6848E2
:1034500003F019FD674803F0DDFC674803F008FD41
:103460006948007802218843801C674908706248D7
:103470000078C006C00F002855D05F4800780821AA
:1034800088435D49087008460078102188435A49EE
:10349000087048E0584800780007C00F00282DD079
:1034A0000020534948700220564948700020487552
:1034B000C860087548600846007802218843514971
:1034C000087008460078042188434E490870464831
:1034D00003F032FC454803F059FC454803F0D8FCA2
:1034E000444803F097FC444803F0C2FC4648007887
:1034F00002218843801C4449087014E03A4803F0D4
:1035000029FC3A4803F04CFC394803F0BCFC39482C
:1035100003F080FC38480078C007C00F002802D1B3
:10352000354803F0AAFC00203749487057E0364878
:1035300000788007C00F00284CD029480078C007C9
:10354000C00F002811D1264800780007C00F0028BE
:103550000BD1234800788007C00F002805D12048F0
:103560000078C006C00F002806D027480078022146
:1035700088432549087032E023484078FA2823DA46
:103580001F48807801281FD01C48007C00281BDDC4
:103590001A48807C0A2817D01B484078401C1A49DA
:1035A00048700020124948700F4803F0C5FB0F48CF
:1035B00003F0F6FB0E4803F06BFC0E4803F02AFC08
:1035C0000D4803F055FC0AE000200F494870032025
:1035D000C87004E000200C4948700320C87010BD7A
:1035E000940A00203004002034040020B009002098
:1035F0009C0900203504002038040020180B00200E
:103600003E040020080A0020A40A0020374A904205
:1036100002D200224A8067E0354A904202D201225B
:103620004A8061E0334A904202D202224A805BE043
:10363000314A904202D203224A8055E02F4A9042FA
:1036400002D204224A804FE02D4A904202D2052243
:103650004A8049E0294A904202D206224A8043E049
:10366000284A904202D207224A803DE0264A9042F0
:1036700002D208224A8037E0244A904202D209222C
:103680004A8031E0224A904202D20A224A802BE04C
:10369000204A904202D20B224A8025E01E4A9042E4
:1036A00002D20C224A801FE01C4A904202D20D2214
:1036B0004A8019E01A4A904202D20E224A8013E050
:1036C000184A904202D20F224A800DE0164A9042D8
:1036D00002D210224A8007E0144A904202D21122FC
:1036E0004A8001E012224A807047000074400000C6
:1036F000684200005C44000050460000444800005E
:10370000384A0000204E000014500000085200000B
:10371000FC530000F0550000E4570000D8590000A9
:10372000CC5B0000C05D0000B45F0000A861000039
:10373000F8B505460C46254804F028F8A1886854D9
:10374000A0880F2802DAA088401CA0802878AC2826
:1037500003D00020A080287036E0A088022807D17E
:103760006878052830D00020A080287068702BE091
:10377000A088032807D1A8780A2825D00020A08097
:103780002870687020E0A0880F281DD1002701262E
:1037900004E0A85DC01987B2701CC6B20D2EF8D324
:1037A000687B0002A97B401880B200900098874295
:1037B00008D1284604F003F80020608020784008F3
:1037C000400020700020A080F8BD000000380140BB
:1037D000F8B505460C46254803F0D8FFE188685443
:1037E000E0880F2802DAE088401CE0802878AC28C6
:1037F00003D00020E080287036E0E088022807D15E
:103800006878012830D00020E080287068702BE0B4
:10381000E088032807D1A8780A2825D00020E08076
:103820002870687020E0E0880F281DD1002701264D
:1038300004E0A85DC01987B2701CC6B20D2EF8D383
:10384000687B0002A97B401880B2009000988742F4
:1038500008D1284603F09EFF2078400840002070E1
:10386000002060800020E080F8BD0000004400409F
:1038700010B5FE480078C009002810D1FC48007837
:10388000C007C00F002805D00420FA490872FA4981
:10389000887004E00120F7490872F7498870F648FB
:1038A0008078F649C872F4488078012824D1F2481B
:1038B0004078002807DD0846807AF02188431030E0
:1038C000EE4988721FE0EE48807802280CD0EB4861
:1038D000807AF0218843EB4949780901F0221140B0
:1038E0000843E64988720EE0E448807AF021884374
:1038F0002030E249887206E0E048807AF02188436F
:103900001030DE498872DC488078DA490872DE4877
:10391000007D48720846807A01280BD1D848C079CA
:10392000401CC0B2D649C871642806DD0220D149C6
:10393000887202E00020D249C871D148C0780028BE
:1039400007D1D248407DC008C000401CCF4948750F
:1039500012E0CB48C078012807D1CC48407DC00890
:10396000C000001DC949487506E0C848407DC00830
:10397000C000801CC5494875C348007CC349887590
:10398000BD488078022846D1BB48407800282DD118
:10399000B94800788007C00F002827D1B648808A30
:1039A000002812DDB448808A401EB3498882B74897
:1039B000007E302188431030B44908760846007EE6
:1039C000C008C000401C087621E0B048007E3021CD
:1039D00088432030AD4908760846007EC008C00004
:1039E000801C08760020A449888210E0192040013C
:1039F000A1498882A548007E302188431030A34920
:103A000008760846007EC008C000401C08760020EA
:103A10009949086145E00020974988829B48007ECB
:103A2000C008C000C9784907490F0843974908767C
:103A30009148807804282AD10846807D64281BD1CB
:103A40008D480069401C8C4908617D21C90088426D
:103A50000AD90846884908618C48007E302188438D
:103A600020308A4908761CE08848007E302188434F
:103A700010308649087614E000207F4908618348A9
:103A8000007E3021884310308049087609E000200C
:103A9000794908617D48007E3021884310307B4998
:103AA00008767B480078C007C00F002807D1774808
:103AB000007EC021884380307449087606E0734850
:103AC000007EC02188434030704908766A48C0783B
:103AD000052817D16F48007D00280BDD6D48007D5B
:103AE000072807DA6948007F00090001401C674980
:103AF00008770EE06548007F00090001801C6349DB
:103B0000087706E06148007F00090001801C5F49DA
:103B100008775E48007F0009002813DD5E480088B2
:103B2000401C80B25C490880FF21F53188420CDDE1
:103B30005648007FF02188435449087700205649B1
:103B4000088002E000205449088054480078C007EB
:103B5000C00F002803D14F48007D072819D14B48DA
:103B6000407F000900014949497FFC2211400907B3
:103B7000090F0843454948770846407F000900017E
:103B8000497F012211430907090F08433F4948773C
:103B900018E03E48407F000900013C49497FFC2273
:103BA00011400907090F0843384948770846407F04
:103BB00000090001497F022211430907090F084348
:103BC00032494877334880788007C00F00280DD1EC
:103BD0002E48407F000900012C49497FF322114003
:103BE0000907090F08432949487718E02748407F0B
:103BF000000900012549497FF32211400907090FF7
:103C00000843224948770846407F00090001497F60
:103C1000042211430907090F08431C49487720482B
:103C20000078C007C00F002807D11A48007D00287F
:103C30000BD11148C078052807D11448407FF021E6
:103C4000884310301149487706E01048407FF02142
:103C5000884320300D4948770E4988686421FCF775
:103C6000E3FA0004000E094988771BE0BC0A002033
:103C7000320400204D0A0020A40A0020580A002027
:103C80003E040020680A0020180B0020280A0020AB
:103C900030040020080A002016040020350400200B
:103CA00038040020F14988686421FCF7BDFAF04926
:103CB000C8770021EE4820300170EE4988886421E1
:103CC000FCF7BCFA0446C017000E001900120002EF
:103CD000201AC1B2E64820304170E4498868642166
:103CE000FCF7A2FA0004010EE14820308170DF49A0
:103CF00088686421FCF798FAC1B2DD482030C170B1
:103D0000DD484078002809D1D948203000790009E1
:103D10000001401CD6492031087108E0D448203009
:103D2000007900090001801CD14920310871D24876
:103D30000078C007C00F00280DD0D048C07B0128F4
:103D400009DACB4820300079F02188432030C84977
:103D50002031087108E0C64820300079F0218843FE
:103D60001030C34920310871C548807F0009000127
:103D7000401CC34988770846807FF0218843303053
:103D8000BF4988770846C07F00090001BD4989788E
:103D90000907090F0843BA49C877BB48807800284B
:103DA00007D10846C07FF02188431030B449C87756
:103DB00012E0B5488078012807D1B148C07FF021D2
:103DC00088432030AE49C87706E0AD48C07FF02177
:103DD00088434030AA49C877AC48417DA848203084
:103DE0000170AA48817DA64820304170A748017C17
:103DF000A34820308170A548807C002805DDA348B9
:103E0000817C9F482030C17039E0A148C07C0028E7
:103E100005DD9F48C17C9A482030C1702FE09D4845
:103E200000780007C00F002804D0082194482030F3
:103E3000C17024E0984800788007C00F002804D0A3
:103E400009218F482030C17019E094480078C007DC
:103E5000C00F002804D0222189482030C1700EE014
:103E60008F480078C007C00F002804D00D21844877
:103E70002030C17003E0002181482030C1708948A2
:103E8000C078002809D17E4820300079000900015F
:103E9000401C7B49203108711AE08248C078022812
:103EA00009D177482030007900090001801C74494D
:103EB000203108710CE07B48C078012808D1704897
:103EC0002030007900090001C01C6D4920310871C3
:103ED0006B4820300079F021884372494978090104
:103EE000F022114008436649203108716948007882
:103EF000C006C00F002804D0022161482030417163
:103F00000EE0644800784007C00F002804D0032169
:103F10005B482030417103E0012159482030417154
:103F20005848C07805280FD1504800784007C00F86
:103F3000002804D0042152482030817108E001217A
:103F40004F482030817103E002214D4820308171BB
:103F500055480078C007C00F002809D048482030D5
:103F6000C079F0218843103045492031C87108E0FC
:103F700043482030C079F021884320304049203127
:103F8000C8713C480078C007C00F002809D03C48E1
:103F90002030C07900090001401C39492031C87126
:103FA00008E037482030C07900090001801C3449FE
:103FB0002031C8713D488088FF2109020840011264
:103FC0002F4820300172394801792D482030417244
:103FD0003648408AFF210902084001122848203053
:103FE00081723248817C26482030C1722F48008877
:103FF000FF210902084001122148203001732B489B
:1040000001781F48203041732848C08AFF210902E7
:10401000084001121A48203081732448817D1848D5
:104020002030C1732148008BFF2109020840011292
:104030001348203001741D48017E1148203041741E
:104040001348C17B0E48203081741148017C0C4814
:104050002030C1740E48417C0948203001750C485D
:10406000817C07482030417510BD0000080A0020FF
:10407000280A002038040020680A0020940A002042
:1040800070080020A40A00203E040020180B002025
:10409000310B0020B00900209C0900205A080020A4
:1040A000640800208A0A002035040020D00A00207D
:1040B00010B5FFF7DDFB8A4803F0C5FB894803F024
:1040C00097FB894803F053FC884803F0DBFB8848E2
:1040D00001F0B5F8874801F0A1F8864801F0C0F872
:1040E00085480078C00900287ED08248407A401C6C
:1040F000C0B280494872052863DB00204872022163
:104100007E4803F0CDFA7D4840687A4988720022E3
:1041100002217A4803F0F2FA0020764988720120E1
:104120004003FDF77FFF734800788007C00F002829
:1041300014D10A236B4A7149714800F0CFFF6D48D2
:10414000007802218843801C6A490870084600787C
:1041500004218843001D6749087025E06548007800
:104160004007C00F00280CD01E235F4A63496448F3
:1041700000F0B4FF5F480078042188435D4908706F
:1041800012E01523594A5D495D4800F0A7FF5948E0
:1041900000780221884357490870084600780421B6
:1041A0008843001D5349087001220221534803F03F
:1041B00087FA534800F0B7FF012202214F4803F06D
:1041C0009DFA4B48007A401CC0B249490872052844
:1041D00017DB0020087288712020FDF723FF0823D9
:1041E0003F4A4849464800E00CE0283800F076FF96
:1041F00001220221434803F063FA4148283800F0C5
:1042000092FF6BE03B48407A401CC0B2394948728B
:10421000052863DB002048720221384803F040FA89
:10422000364840683349887200220221334803F03F
:1042300065FA00202F49887201204003FDF7F2FE45
:104240002C4800788007C00F002814D10A23254A83
:104250002A492B4800F042FF264800780221884373
:10426000801C244908700846007804218843001DFA
:104270002049087025E01F4800784007C00F00283B
:104280000CD01E23184A1D491D4800F027FF19486D
:104290000078042188431749087012E01523134A57
:1042A0001649174800F01AFF124800780221884387
:1042B000104908700846007804218843001D0D4904
:1042C0000870012202210D4803F0FAF90C4800F0B1
:1042D0002AFF01220221094803F010FA10BD000054
:1042E0004D0A0020580A002070080020280A0020EB
:1042F0005A08002064080020BC0A00200044004046
:10430000440002400038014010B5104800897D216A
:10431000C900884219DB0E48C078030003F0DAFBBD
:104320000613040A070D1013FEF7F2FF0CE0FEF768
:1043300029FE09E0FEF702FC06E0FEF73BFB03E086
:10434000FDF7F0FE00E000BF00BF10BDBC0A00207A
:10435000A40A002005E0044900E0491E0029FCD120
:10436000401E0028F7D17047781E00000EB50121CD
:10437000084602F0B5FA01200005019000216846C8
:104380000172082141720121817201A800F030F808
:104390000120C00401900021684601720821417289
:1043A0000121817201A800F023F8182168460170EC
:1043B00001214170817000F0BDFE0EBD01494861D0
:1043C0007047000000040140014600200022074B16
:1043D0001B680B401A46054B5B690B40002B03D052
:1043E000002A01D0012000E00020704700040140B5
:1043F000002121498279002A35D00A4612680368D3
:104400009A430B461A600A46526803689A430B4661
:104410005A60027951180A6803681A430A60164AFA
:10442000926803689A43144B9A601A46D2680368EC
:104430009A43114BDA604279102A0CD11A469268DD
:1044400003681A430C4B9A601A46D26803681A43F1
:10445000094BDA600EE00849427951180A6803688E
:104460001A430A6006E00449027951180A68036891
:104470009A430A60704700000004014010B52248CA
:10448000C07801280BD121488078022803D1204828
:104490002049886106E020481E49886102E01E48E4
:1044A0001C4988611D4800891D49096840181C493C
:1044B00008601C480078401CC0B21A4908700828DF
:1044C00013DB0020087016480068C0081449086013
:1044D000154913480068FFF799F80E49104800681D
:1044E000FEF748FA00200E49086031200F49488342
:1044F000F8208883FF203730C883FF20F1300884FC
:10450000FF203730488410BDA40A00203E0400205C
:104510004C5E0000B0090020DC460000C60A002006
:1045200050040020540400209C090020D00A0020E0
:1045300010B50446002C05DD10210920C00600F04E
:1045400083F904E010210920C00600F07BF910BDBA
:1045500010B50446002C05DD01214902044800F095
:1045600073F904E001214902014800F06BF910BD24
:104570000004004810B50446002C05DD0121890324
:10458000044800F061F904E001218903014800F0CA
:1045900059F910BD0008004810B50446002C05DD8F
:1045A0000121C903044800F04FF904E00121C903C7
:1045B000014800F047F910BD0008004810B5044656
:1045C000002C05DD80210920C00600F03DF904E043
:1045D00080210920C00600F035F910BD70B50546F0
:1045E0000424104800F07CF80446042C18D10E482E
:1045F0000069022108430C490861084645610069C9
:104600004021084308490861064800F069F804465B
:10461000012C05D00448006904490840024908619A
:10462000204670BDFF0F000000200240FD1F00006B
:1046300004200D49C968C907C90F002901D001200C
:1046400010E00949C96804221140002901D0022064
:1046500008E00549C96810221140002901D0032053
:1046600000E0042070470000002002400348006979
:104670008021084301490861704700000020024082
:1046800070B505460E4604240F2000F029F80446B4
:10469000042C12D10A480069012108430849086125
:1046A0002E800F2000F01CF80446012C05D0044891
:1046B00000690449084002490861204670BD0000B5
:1046C00000200240FE1F00000248034948600348E2
:1046D000486070472301674500200240AB89EFCD59
:1046E00070B504460425FFF7A3FF054605E003F077
:1046F00087FBFFF79DFF0546641E012D01D1002CAD
:10470000F5D1002C00D10525284670BDFCB5024628
:104710000025002601960020002300240096CE7874
:1047200035072D0FCE7810273E40002E01D08E7811
:1047300035430E78002E27D01468002021E0012692
:10474000864033460E881E400196019E9E4217D138
:1047500083000F269E4000962746009EB7433C46A6
:104760002E469E403443CE78282E03D10126864023
:10477000566105E0CE78482E02D1012686401661AA
:10478000401C0828DBD314600E88FF2E2CDD5468F3
:10479000002026E0064608360127B7403B460E8833
:1047A0001E400196019E9E421AD183000F269E4014
:1047B00000962746009EB7433C462E469E40344313
:1047C000CE78282E04D1064608360127B740576117
:1047D000CE78482E04D1064608360127B740176127
:1047E000401C0828D6D35460FCBDF0B5002300243B
:1047F0004D07EE0E1546B5402B46CD10002D0BD1C2
:10480000056A4E07F70E0F26BE40B5430562056ADE
:104810001D432C4604620AE0456A4E07F70E0F2638
:10482000BE40B5434562456A1D432C464462F0BD17
:104830000246002093680B40002B01D0012000E0CD
:1048400000207047416170470161704708B5012140
:104850000F20400402F024F89021684601800321D3
:1048600081701021C17069460920C006FFF74EFF14
:10487000244968460180032181701021C170694676
:104880002148FFF743FF07214903684601800321C0
:1048900081701021C17069461C48FFF737FF8021E5
:1048A00068460180032181701021C1706946184853
:1048B000FFF72CFF174968460180032181704821CA
:1048C000C17069460920C006FFF720FF12496846FB
:1048D0000180032181704821C17069460A48FFF7B1
:1048E00015FF042206210848FFF77FFF0422072155
:1048F0000548FFF77AFF0120FFF72AFE0120FFF7A6
:1049000017FE08BDC2060000000400480008004869
:10491000000C0048621900000111000010B583214D
:104920002D4881702D480078400840002B490870C0
:104930000846007802218843284908700846007814
:1049400004218843254908700846007810218843CF
:104950002249087008460078802188431F49087062
:1049600000208870C87008718871C87108811C495E
:10497000C873C87408758874887548754874087455
:10498000C8750876174800780821884315490870CB
:1049900008460078042188431249087012480E49DD
:1049A00040398882002011498880C8800120104940
:1049B0004870104810490880104802F0CBF91048A0
:1049C00002F0EEF90F4802F05EFA0F4802F022FA08
:1049D0000E4802F04DFA10BD100B0020BC0A00205A
:1049E000180B00203E040020FF0F0000680A002082
:1049F0008A0A002055AA0000580400203404002030
:104A0000B00900209C090020350400203804002053
:104A100010B500222349244803F0AEF9234A0121AE
:104A2000214803F07EF8214A06211F4803F079F857
:104A30001E4A08211C4803F074F81B4803F0BCF917
:104A40007D23DB0000221A491A48FCF7C1FB1A4BF0
:104A50001A4A17491A48FCF7BBFB1A4B164A144965
:104A60001948FCF7B5FB194A01211248FCF796FAE0
:104A7000164A05210F48FCF791FA154A0121104802
:104A8000FCF78CFA134A07210F48FCF787FA0E4807
:104A9000FCF7B4FB0A48FCF7B1FB0648FCF7AEFB99
:104AA00010BD0000257F000868090020F17A000889
:104AB000197F0008C0080020D80E0000C4090000BB
:104AC000F808002003100000300900203D0F000806
:104AD000650F0008810F0008012029498872002015
:104AE0002849C8712849C860086128480078C0076B
:104AF000C00F002842D10846C078032807D00846D6
:104B0000C078042803D00846C078022836D120484F
:104B1000C07C002803DD00201D49C87402E001208C
:104B20001B49C8741A48C07C01280BD11948007968
:104B3000102188431030174908711548807D1449A9
:104B4000C87511E0134800792021884320301149AD
:104B500008710F48C07D0E4988750846807D0E4952
:104B6000C88001200D4908700648007840084000C0
:104B7000401C0449087000200549888370470000E4
:104B80004D0A00203E040020A40A0020940A0020C0
:104B9000D8090020460400205804002058080020AE
:104BA00001208E49887200208D49C8718D49C860E6
:104BB00008618D480078C007C00F002870D18B486D
:104BC000C07C00286DDD8948C07D012805DA874852
:104BD000C07D401C8549C87502E000208349C87526
:104BE0008248C07D002807D181480078022188438F
:104BF000801C7F490870DFE07C48C07D012807D118
:104C00007B48007804218843001D79490870D3E06F
:104C10007648C07D022807D175480078082188436E
:104C2000083073490870C7E07048C07D032807D179
:104C30006F4800781021884310306D490870BBE040
:104C40006A48C07D042807D169480078202188433C
:104C5000203067490870AFE06448C07D052807D15F
:104C60006348007840218843403061490870A3E0E0
:104C70005E48C07D062807D15D48007880218843C2
:104C800080305B49087097E05848C07D072809D1FB
:104C90005748407840084000401C554948708BE018
:104CA0009BE023E05148C07D082807D15048407858
:104CB00002218843801C4E4948707DE04B48C07DEE
:104CC000092807D14A48407804218843001D4849F3
:104CD000487071E04548C07D0A286DD1444840784D
:104CE0000821884308304249487065E03F48007E0B
:104CF000032805DA3D48007E401C3C49087602E066
:104D000000203A4908763948007E002807D1384803
:104D1000007902218843801C3549087122E033481C
:104D2000007E012807D13248007904218843001D04
:104D30002F49087116E02D48007E022807D12C4823
:104D40000079082188430830294908710AE027487A
:104D5000007E032806D12648007940084000401C08
:104D6000234908712148007E03280DD11520C04336
:104D70001E49488100208881084600780421884324
:104D8000001D1A49087017E01848007E00280DD150
:104D90001020C043154948810020888108460078CA
:104DA00004218843001D1149087005E00F48007870
:104DB000042188430D4908700C48007E0D49088184
:104DC00001200D4908700648007840084000401C4A
:104DD0000349087000200549888370474D0A002068
:104DE0003E040020A40A0020940A0020D8090020D4
:104DF0004604002058040020580800200548C07CC4
:104E0000012805D100200349C8740846807DC87573
:104E100070470000D809002070B505460C4685484B
:104E20000078002846D184480078410020461E3092
:104E3000405A8249088008460078814908807F48A6
:104E4000008800127D4908807D4800780006000C2B
:104E50007B49088079480088098808437749088099
:104E60001020784908700020774908707749087049
:104E700077480078182808DA012001F0DFFE74482E
:104E80000078401C7249087014E0714800782428AA
:104E900010DA002001F0D2FE6D480078401C6C4909
:104EA000087008460078242804D1002008700120EA
:104EB000604908705F480078012844D16248007852
:104EC000082818D161480078002814D1012001F089
:104ED000B5FE012001F0C2FE5D480078401CC0B262
:104EE0005B4908700C2853DD0420524908700020EB
:104EF000574908704CE0002001F0A0FE4F480078B0
:104F0000C007C00F002803D0012001F0A7FE02E077
:104F1000002001F0A3FE494800884010474908805E
:104F20004948007847490978884208DA46480078B5
:104F3000401C4549087002203E49087028E00520C1
:104F40003C49087024E03B480078022803D03948E7
:104F50000078032806D1012001F070FE01203549B8
:104F6000087015E033480078042811D1002001F0C2
:104F700065FE37480078401CC0B2354908700C28DF
:104F800006DD0020087001202A4908702F490870AA
:104F90002848007805284CD1012001F04FFE01205F
:104FA00001F05CFE2A480078401CC0B22849087015
:104FB0000C283EDD002008701E490870A08D1E4997
:104FC0000978884205DD1C480078401C1A490870A1
:104FD0002FE06089A189884221D16088262804D1E8
:104FE0001C4860810020A0810BE06088292808D13E
:104FF00020788007C00F002803D016486081002069
:10500000A08100206080608820810020A080E08056
:10501000607D2075287840084000287006E02078E0
:1050200004218843207000206081A0810020024973
:10503000087070BD230400202404002026040020F2
:105040002804002021040020200400202504002042
:1050500022040020A55A000010B51E20FFF77AF99F
:10506000FFF7F4FB4B214901012001F0C9FF7D212D
:105070000901144802F03AF8FBF72EFBFBF732FB6C
:105080007D20C00001F060FF4B20C00102F00AFA51
:105090004B20C00102F092FA0A230B4A0B490C483C
:1050A00000F01CF808230B4A0B490948283800F087
:1050B00015F8FCF79DFBFFF7ABFCFFF72FFC01F0A9
:1050C000AFFC10BDBF120000580A00200044004091
:1050D000440002404D0A002000380140F0B58BB07A
:1050E00007460C4615461E460121084601F0D8FB2E
:1050F0003846FCF7A9FF0094019510200290039612
:1051000000200490802005900020069007900890D1
:1051100001200003099000200A9069463846FCF7F8
:10512000E1FF0BB0F0BD10B5044601212046FCF7AD
:105130007FFF10BD00218278002A27D0184A032360
:105140001B02D21803789B109B00D158027892075B
:10515000D30EFF229A400B4693431946427892079A
:10516000120E03789B07DB0E9A4011430C4A03236F
:105170001B02D21803789B109B00D1500278D306F3
:10518000DB0E01229A40064B1A6007E00278D30634
:10519000DB0E01229A40024B80331A6070470000F8
:1051A00000E100E010B5002819DA1A4A03071B0FC6
:1051B000083B9B089B00D2588307DC0EFF23A340CB
:1051C0009A438B071B0E8407E40EA3401A43114B2E
:1051D0000407240F083CA408A4001A5118E00E4A42
:1051E00003231B02D21883089B00D2588307DC0ECE
:1051F000FF23A3409A438B071B0E8407E40EA340B2
:105200001A43054B032424021B198408A4001A51D5
:1052100010BD00001CED00E000E100E04188491CE9
:1052200089B24180FF22F532914207DB00214180A3
:10523000C180017849084900491C017070474188C4
:10524000491C89B24180FF22F532914207DB0021DF
:1052500041808180017849084900491C01707047EC
:105260008188491C89B28180FF222D32914205DB61
:1052700000218180017808229143017070470A2142
:10528000418000210181704710214180002101816E
:1052900070472F21418081800021018170471C21AE
:1052A0004180002101817047392141800021018125
:1052B00070473A2141800021018170473B214180A4
:1052C0000021018170473B21418020218180002104
:1052D000018170472A21418081800021018170472E
:1052E000352141800021018170472E21418081803C
:1052F0000021018170470121418000210181704717
:105300001921418081800021018170472121418044
:10531000002101817047232141808180002101818A
:105320007047202141800021018170473321418055
:105330008180002101817047262141800021018167
:105340007047322141800021018170471F21418037
:10535000002101817047222141808180002101814B
:1053600070473C21418000210181704734214180F8
:105370000021018170470221418000210181704795
:1053800005214180002101817047042141800021D5
:1053900001817047032141800021018170470B2169
:1053A00041800021018170471E214180002101813F
:1053B000704706214180002101817047082141800A
:1053C000002101817047092141800021018170473E
:1053D0002921418000210181704715214180818070
:1053E000002101817047152141801A21818000210F
:1053F0000181704716214180818000210181704721
:105400001A21418000210181704730214180818033
:1054100000210181704726214180002101817047D0
:105420002D21418081800021018170472B21418005
:105430008180002101817047272141800021018165
:10544000704713214180002101817047172141805D
:105450008180002101817047142141800021018158
:105460007047072141800021018170473821418028
:10547000002101817047372141800021018170475F
:105480003621418000210181704731214180002176
:1054900001817047282141800021018170472C2122
:1054A000418081800021018170472C21418022218F
:1054B00081800021018170471221418000210181FA
:1054C0007047182141800021018170471B214180D4
:1054D0000021018170471B2141801C218180002116
:1054E000018170471B21418035218180002101818C
:1054F00070471D21418000210181704711214180A9
:1055000000210181704725214180002101817047E0
:1055100024214180002101817047000000B5FE4830
:10552000C078022820D0FD480078C007C00F0028AE
:1055300016D0FB48C07B01281BDAFA488078800629
:10554000C00F002815D1F7488078202188432030EB
:10555000F4498870F248C07B401CF149C87308E0E8
:105560000020EF49C87304E00020ED49C873EB49FF
:105570000870EB480078C007C00F00287ED1E648CD
:10558000C07804282ED1E848007840084000E64959
:10559000087000204880E548807C102813D1E4483A
:1055A0000078C007C00F00280DD0E2480078C0077F
:1055B000C00F00283DD0DA480078202188432030F1
:1055C000D749087035E0D648007820218843D4496F
:1055D0000870D848007840084000D649087000207C
:1055E000488026E0CE48007820218843CC490870C6
:1055F000CD480078C007C00F00280AD00D20CE4942
:10560000C875C7480078102188431030C449087015
:105610000FE0C8480078C007C00F002809D022203A
:10562000C549C875BE480078102188431030BC4970
:105630000870BE48807C0B2821D1B948007840080A
:105640004000401CB6490870B64840790007C00FBA
:1056500000280FD10846807902280BDAB14840793A
:10566000082188430830AF494871AD488079401C13
:10567000AB4988710B20B049C87503E033E20020C4
:10568000A7498871AD48407802287DD1AC48407860
:10569000012807D0A048C07801282CD1A9488078DB
:1056A000022828D0A648007D00280BDDA448007DF4
:1056B000062807DAA248007DA14988750846406897
:1056C000086103E000209E49887508610B209C4911
:1056D00048750020C860087548609148C079002866
:1056E00002D101208E49C87195484078012802D125
:1056F0000320934948708A48C079002871DD8948A1
:1057000000794006C00F002857D18548C07903288A
:1057100053DA8348C079401C8149C8710846C07972
:10572000032821D17C48C078052805D10020C87104
:1057300001208249487009E07748C078012805D0E7
:1057400000207749C87101207C494870744800796D
:10575000002805DD72480079401E7149087174E027
:1057600001207549487670E06E48007940218843F1
:1057700040306C49087102206F494876062068491C
:1057800008710020704900E04FE04880624880784E
:1057900001280BD16B488078012807D10846007892
:1057A000102188431030684908704EE06648007840
:1057B000082188436449087047E05948C0790328A4
:1057C00017DB5548C078012813D000205449C87110
:1057D00008460079002805DD08460079401E08715A
:1057E00003E014E0012054494876012053494870F1
:1057F0002BE04B480079002805DD49480079401E20
:105800004749087121E001204B4948761DE0444892
:105810000079002805DD42480079401E40490871A2
:1058200013E00120444948760FE03D480079002804
:1058300005DD3B480079401E3949087102E001202E
:105840003D49487600203649C8713348C07802285F
:105850007CD03148C078042878D02F48C0780528FB
:1058600003D13748007D072823D03448C078022868
:1058700020D12B48007802218843801C28490870D9
:1058800002202D4988762E484078012803D02248EE
:10589000807801280DD12248007A002802D1012009
:1058A0001F49087226484078012802D10320244964
:1058B000487080E02148C078012857D118484078C6
:1058C000002803D116484088002812D01448407898
:1058D000002804DD12484078401E114948701048E5
:1058E0004088002867DD0E484088401E0C494880EB
:1058F00061E00B48007802218843801C0849087049
:1059000003200D4988760E484078012803D00248CC
:10591000807801284FD11AE0A40A0020680A0020EC
:10592000940A00204604002064080020180B002080
:10593000320400205A080020280A00208A0A002089
:10594000080A00203E0400203804002030E0C0484F
:10595000407A002802D10120BD494872BD484078F4
:10596000012828D10320BB49487024E0B848007AB8
:10597000022802DB0020B6490872B548407A0228A6
:1059800002DB0020B2494872B1484078F02805D0C7
:105990000020AF4948700120AF4988760020AC490B
:1059A00048800846007802218843A949087002E02F
:1059B0000120A9498876A648007A00282FDDA7484B
:1059C000C078042827D0A548C078022823D0A4484E
:1059D0004079C007C00F002851D19D48007A0328A4
:1059E0004DDA9B48007A401C99490872F0204880A3
:1059F0009B48C0792021884320309949C871974835
:105A0000C07805283BD19248007A032837D100207E
:105A10008F49087233E000208D4908722FE08C48CE
:105A2000407A00282BDD8D48C078042824D08B488C
:105A3000C078022820D08A480079C00900281ED1E9
:105A40008348407A02281ADA8148407A401C80490B
:105A500048728348007980218843803080490871EA
:105A60007E48C07805280AD17948407A022806D1B4
:105A700000207749487202E0002075494872794851
:105A80000078C006C00F00282ED071480078082189
:105A9000884308306E490870714840798007C00F0C
:105AA000002858D10846807A012854DA0846807ABE
:105AB000401C88726A48407902218843801C6849EA
:105AC000487102206449C8766448C078052842D1EC
:105AD0005F48807A01283EDB5E48407801283AD151
