:020000040800F2
:10000000C8120020590100088B010008555900084A
:100010008F01000891010008930100080000000012
:100020000000000000000000000000009501000832
:10003000970100080000000099010008C58D000824
:100040009D010008BB6600089D0100089D01000895
:100050009D0100089D0100089D0100089D01000808
:100060009D0100089D0100089D0100089D010008F8
:100070009D0100089D0100089D0100089D010008E8
:100080009D0100089D0100089D0100089D010008D8
:10009000C90000209D0100089D0100089D01000885
:1000A000091400089D0100089D010008319800080E
:1000B0005D99000800F002F800F03EF80CA030C88E
:1000C000083824182D18A246671EAB4654465D46D4
:1000D000AC4201D100F030F87E460F3E0FCCB64660
:1000E0000126334200D0FB1AA246AB4633431847E1
:1000F000D0AA000000AB0000103A02D378C878C143
:10010000FAD8520701D330C830C101D504680C6059
:10011000704700000023002400250026103A01D378
:1001200078C1FBD8520700D330C100D50B607047AF
:100130001FB51FBD10B510BD00F09AFA1146FFF7AC
:10014000F7FF0AF07BFB00F0B2FA03B4FFF7F2FF0F
:1001500003BC00F0B9FA0000144880F30888144882
:100160000168090E134A9142FFD1134813490160F7
:100170001348144901601448124901600E4813499C
:1001800001601348804713480047FEE7FEE7FEE79B
:10019000FEE7FEE7FEE7FEE7FEE7FEE7FEE700001C
:1001A0000D480E490E4A0F4B70470000C812002040
:1001B000040000001F0000001C10024000000004AA
:1001C00018680040120000001C6800400000000099
:1001D000018F0008B5000008C80C0020C8120020DC
:1001E000C80E0020C80E002001E004C0091F042929
:1001F000FBD28B0701D50280801CC90700D002709A
:10020000704700290BD0C30702D00270401C491E62
:10021000022904D3830702D50280801C891EE3E7EC
:100220000022EEE70022DFE7002203098B422CD3F5
:10023000030A8B4211D300239C464EE003460B4336
:100240003CD4002243088B4231D303098B421CD398
:10025000030A8B4201D394463FE0C3098B4201D38A
:10026000CB01C01A524183098B4201D38B01C01AC2
:10027000524143098B4201D34B01C01A5241030939
:100280008B4201D30B01C01A5241C3088B4201D3E8
:10029000CB00C01A524183088B4201D38B00C01A95
:1002A000524143088B4201D34B00C01A5241411ABC
:1002B00000D201465241104670475DE0CA0F00D09F
:1002C0004942031000D34042534000229C46030998
:1002D0008B422DD3030A8B4212D3FC22890112BA1E
:1002E000030A8B420CD3890192118B4208D38901F6
:1002F00092118B4204D389013AD0921100E089090E
:10030000C3098B4201D3CB01C01A524183098B42EE
:1003100001D38B01C01A524143098B4201D34B01D7
:10032000C01A524103098B4201D30B01C01A52413A
:10033000C3088B4201D3CB00C01A524183088B42C1
:1003400001D38B00C01A5241D9D243088B4201D34A
:100350004B00C01A5241411A00D201466346524135
:100360005B10104601D34042002B00D54942704734
:1003700063465B1000D3404201B50020C046C04632
:1003800002BD7047704770470346CA02400D10B562
:1003900010430A1504D00124E4072043002A05DB9A
:1003A0000A4CA21A04D4D040FF2A00DD002010BD60
:1003B0004A00002B01D0012000E00020101801228B
:1003C0005205D042F2D8C817C04310BD1E04000029
:1003D0001F22030C02D10F22000402D0030E03D00F
:1003E00004E00020014670470002083A030F01D1E3
:1003F0000001121F830F01D18000921E002801DB33
:100400004000521E120551184205C01241181046F4
:100410007047C10FC90700D0404201229207114323
:10042000D6E701218907D3E7F0B58B4C0F092546A4
:1004300089B0BD437BD01D092646AE43FAD00E4697
:100440005E402740F60F3E43254071D024012142F3
:10045000FBD0FF24AD19A4042D1B039501252D0508
:10046000DB02DB0AC9022B43C90A29431E01090129
:10047000040F130F050121431701880B82039143D9
:100480002D098C46A90B1E438A039543B30B9A038F
:1004900096433F09BA0B9403A74302962E467E4328
:1004A0000497B6464E19D7190C4601965443059742
:1004B0007E43371B7646BF1B3601B646BE0B361948
:1004C00000967646BC043719009C01D3641C009446
:1004D0006400002F01D001263443029E049F75431F
:1004E00066467E430496760034196E0034190094F3
:1004F000029C019E1C196643751BAE460694654618
:100500004519059C05956C43594375460891691A30
:100510000191049E01465143A41B0491611A009C61
:100520000791E10605D061090122114302E072E062
:100530006EE06109089D00272C0A2D066918049DAC
:100540007C412A0A2D066918019D6241AC0DAD025D
:100550006D185441079A910D920255196141029A02
:10056000644658435443069B059A5A43121A131B78
:100570009A0E9B015B187A41010B0005C31851418B
:10058000220A200644195A419A4200D2491C0120ED
:100590004002814203D315230226F64302E01423CE
:1005A0000326F6432020C51AA9401746AF40DA407B
:1005B0000A4320460399D8400914731819055118A5
:1005C000039A3843D2075140AC4009D001229440ED
:1005D00006D30022401C5141002C01D140084000AC
:1005E0001E4A934212D3012203989206904207DBDF
:1005F0000520400709181A480143C012414004E091
:10060000032040070818C10FC907002009B0F0BD3A
:100610000020F107FAE705180C464C4111486D42DD
:10062000A04115D394181A465A410E48644290418D
:100630000ED301204A004005824209D35A0082426B
:1006400006D35940C90F084AC90700201143DDE706
:1006500000200649DAE700000000FF07FE0700005F
:10066000FFFFFF7F0000E0FF0000F07F0000F87F49
:10067000754600F025F8AE46050069465346C008A9
:10068000C000854618B020B5FFF78AFD60BC002782
:100690004908B6460026C0C5C0C5C0C5C0C5C0C54E
:1006A000C0C5C0C5C0C5403D49008D46704710B5A6
:1006B0000446C046C0462046FFF747FD10BD000077
:1006C00000487047640C002001491820ABBEFEE7CB
:1006D000260002007047000003B40148019001BDEC
:1006E0006D00002003B40148019001BDF10100201C
:1006F00003B40148019001BD2903002042690A4367
:1007000042617047002904D0426801231A434260C5
:1007100003E042685208520042607047002904D04A
:10072000826804231A43826003E0826804239A43A8
:1007300082607047002A03D083680B43836002E025
:1007400083688B438360704710B502460020506871
:10075000C00BC0030C684B6823431843506090687B
:10076000044B18400C694B6923438C68234318439E
:10077000906010BD800000FF70B5144600224268F2
:100780000F26B6021546B5432A469D022A4342600B
:10079000202905DAC56801268E403543C5600CE086
:1007A000FF2904D1C568054E3543C56005E0FA2927
:1007B00003D1C5682D0C2D04C56070BDFFCF0000AE
:1007C00000206449486164480078C007C00F0028D1
:1007D00048D161480078C006C00F0028F8D15E48B3
:1007E00000780007C00F0028F2D101205B49887211
:1007F00000205B49C87157484079022832D008462A
:10080000007804218843564908700846007808217A
:10081000884353490870012048704E4840790428A5
:1008200021D04C48407905281DD04E48807840089A
:100830004000401C4B4988704948007840084000FF
:10084000401C474908700020474988834748007882
:1008500002218843454908700846007804218843EE
:100860004249087075E03C4800788006C00F0028B7
:1008700018D03B48007840084000401C38490870B8
:100880000020394988833A48007FF021884320308E
:100890003749087733484078402188434030314910
:1008A000487056E03348007C0F2825DA2F484078FE
:1008B000012821D02B48407904218843001D294973
:1008C00048712B48007FF021884310302849087771
:1008D00002202649487008460078042188432349AD
:1008E00008701F48007840084000401C1C490870F0
:1008F00000201D4988832CE000201749C871087228
:10090000487201201C494870002018490884084694
:10091000407801281DD00846007802218843801CB9
:10092000124908700846C07802218843801C0F498C
:10093000C8700120487000204860072008770848E8
:10094000007840084000401C054908700020064916
:1009500088837047840B00206E0B0020190B002049
:10096000C00A00206A040020840A0020CC0A00206B
:10097000F40A0020060C0020620B002038480078A2
:100980008006C00F00283FD136498861486136484B
:10099000007E8006800F022803D108464079022895
:1009A00056D12F480078C007C00F002850D12C48DE
:1009B0000078C006C00F00284AD1294800780007F7
:1009C000C00F002844D129480078C006C00F002875
:1009D0000DD0264800780821884308302349087044
:1009E00008460078042188432049087030E01F48F9
:1009F0000078082188431D490870084600780421C2
:100A000088431A49087023E01848007840084000DD
:100A1000401C164908700020154988831548407805
:100A2000402188434030134948700F48007FF0212F
:100A3000884320300C4908770C480078042188430B
:100A40000A49087008460078082188430749087059
:100A500001200949887200200449C87170470000CC
:100A60006E0B0020840B0020F40A0020C00A002036
:100A7000840A00206A040020190B00203D480078F9
:100A80008006C00F002849D13B49886148613B4836
:100A9000007E8006800F022803D108464079022894
:100AA00060D134480078C007C00F00285AD13148BF
:100AB0000078C006C00F002854D12E480078800668
:100AC000C00F00284ED12B4800788007C00F0028A7
:100AD00048D1284800780007C00F002842D1264896
:100AE000407902280DD02648007804218843001D53
:100AF0002349087008460078082188432049087077
:100B000030E01F480078042188431D4908700846DA
:100B10000078082188431A49087023E018480078B3
:100B200040084000401C1649087000201549888381
:100B300015484078402188434030134948700F4899
:100B4000007FF021884320300C4908770C4800785A
:100B5000042188430A490870084600780821884320
:100B60000749087001200949887200200449C871AA
:100B7000704700006E0B0020840B0020F40A002058
:100B8000C00A0020840A00206A040020190B0020FB
:100B900010B5FE480078102188431030FB490870DA
:100BA000FB480078C007C00F002840D1F848007803
:100BB000C006C00F0028F8D1084600780007C00F13
:100BC00000287DD0F3484079042831D0F14840799D
:100BD00005282DD0F048007802218843EE4908709E
:100BE0000846007804218843EB49087000204860DB
:100BF000087702204870E948807840084000401C8F
:100C0000E6498870E3484079022806D0E448007F2E
:100C1000F02188434030E2490877DC4800784008FA
:100C20004000401CD94908700020DE49888316E244
:100C3000D74800788006C00F002818D0D348007825
:100C400040084000401CD14908700020D5498883E5
:100C5000D2484078402188434030D0494870D0483D
:100C6000007FF02188432030CD490877F7E1CE4856
:100C7000007C14282CDAC8484078012828D0C748BE
:100C8000C079102188431030C449C871C448007F1E
:100C9000F02188431030C2490877BE4840790428C3
:100CA00009D00420BB494871BC4880781021884392
:100CB0001030BA498870B54800784008400000E01C
:100CC0007FE1401CB14908700020B6498883C6E125
:100CD0000020AF49C871087248720120B3494870BA
:100CE000AD4800788007C00F002830D1AA48407F67
:100CF00000282CD1A848807F002828D1A648007859
:100D000002218843801CA4490870012048700020FB
:100D100048778877A648007808218843A449087056
:100D200000209D4948618861486008770846C0787E
:100D3000022188439849C8709448007840084000D0
:100D4000401C9249087000209649888387E1002062
:100D5000914908840846407803280BD00846407F14
:100D6000002803D10846807F00284CD08A48007FA5
:100D7000092848D18848007F07280AD1874800F011
:100D80008EFE8648807920218843203083498871EF
:100D900025E0012082494876844948707E48C07821
:100DA000022188437C49C8700846407F0B2805D142
:100DB0000020087708464069486006E07648807F52
:100DC00075490877084680694860744800F067FEF6
:100DD00072484079402188434030704948716E48DC
:100DE000007802218843801C6B49087001204870FC
:100DF0006648007840084000401C644908700020A4
:100E0000684988832BE16448007F00283FD162480D
:100E1000C078022188436049C8700B204877084693
:100E2000406848610846807F002806DD08468069E2
:100E300048600846807F087704E0002056494860F3
:100E4000012008775148007802218843801C4F49CF
:100E500008705148007802218843801C4E49087070
:100E6000012048704D4800F01AFE4C4880788021DF
:100E700088438030494988704448007840084000E1
:100E8000401C42490870002046498883E7E04248F8
:100E9000007F06282BDA4048007F3F4988770846C4
:100EA000406888610846C078022188433A49C87082
:100EB00008460078022188433749087000204860BE
:100EC00009200877354800F0EAFD344840792021B0
:100ED00088432030314948712C4800784008400050
:100EE000401C2A49087000202E498883B7E02A4810
:100EF000007F072824D12848C0780221884326494A
:100F0000C870084600780221884323490870FA20F7
:100F1000486009200877214800F0C1FD1F4880790A
:100F20004021884340301D498871184800784008A6
:100F30004000401C1549087000201A4988838EE043
:100F40001548C078022188431349C870002088776B
:100F500017480078082188431549087000200E4979
:100F6000487748618861FA204860092008770B4873
:100F700000F095FD0948C0782021884320300749BA
:100F8000C870024800784008400013E0C00A002002
:100F90006E0B0020840B0020CC0A00206A04002085
:100FA000F40A0020840A0020060C0020620B0020B6
:100FB000780A0020401C4A4908700020494988836B
:100FC0004DE0474800784007C00F002847D046480A
:100FD0004079042839D044484079052835D0404824
:100FE000C078022805DA3E48C078401C3C49C870E9
:100FF00002E000203A49C8703948C078002807D17B
:101000003A4840781021884310303849487012E03F
:101010003348C078012807D134488079400840001F
:10102000401C3249887106E03048407820218843CE
:1010300020302E4948700020294988802C48407D66
:10104000F821884308302A49487525480078400827
:101050004000401C22490870002022498883224811
:10106000007901281FD12248407DC00801281AD1EB
:1010700000201D4948821A488088401C80B21849C7
:1010800088807D21090188421ADD0020144988806A
:101090001748407DF8218843154948751048C078A5
:1010A0000F4988700CE010480079012805D01048DD
:1010B000407DF82188430E49487500200849888002
:1010C00001200749487008460078042188430449F4
:1010D000087008460078082188430149087010BD4F
:1010E000C00A0020840A0020840B00206A0400202B
:1010F000F40A002070B50446204609F097FB054627
:10110000012D02D0052D0AD104E009F023FBFFF7E1
:1011100035FC05E009F01EFBFFF752FB00E000BFC5
:1011200000BF70BD70B50446204609F07FFB054640
:10113000012D04D109F00EFBFFF7A0FC00E000BF79
:1011400000BF70BD70B50446204609F06FFB054630
:10115000072D02D1FFF71CFD00E000BF00BF70BDEE
:1011600010B58C00034610331A5110BD70B50446FB
:10117000E06880470546E0784007400F002806DD1C
:1011800020888249884202DA2088401C20806089B9
:10119000A84209D02079401CC0B220710F2805DB7D
:1011A00065810020207101E000202071E078400777
:1011B000400F030008F0A2FE06042661B0E7D0E766
:1011C00060892189884217DB6089E188884213DCC5
:1011D000A078F0218843A0702069002802D0204622
:1011E0002169884700202080A07800090001401C68
:1011F000A0700120E07004E0A078F0218843A030C6
:10120000A070C0E060892189884203DB6089E188A1
:1012100088420FDDA078F02188431030A07060690B
:10122000002802D0204661698847002020800220E3
:10123000E07021E020885649884210DDA078F02136
:1012400088435030A070606A002802D02046616A4E
:101250008847606A00280FD00520E0700CE02088E5
:101260000A2809DDA078F02188437030A070E06A78
:10127000002801D00520E07085E06089218988423E
:1012800021DB6089E18888421DDCA0780007000F1F
:101290000F2808DAA07800090001A178491C090785
:1012A000090F0843A070A078F02188432030A07077
:1012B000A069002802D02046A1698847002020802C
:1012C0000320E07027E02088FF212D31884222DDB5
:1012D000A0780007000F01280BD1A078F0218843E7
:1012E0003030A070E069002813D02046E1698847BB
:1012F0000FE0A0780007000F02280AD1A078F021A3
:1013000088434030A070206A002802D02046216A1D
:1013100088470020E07036E060892189884203DB3D
:101320006089E188884216DDA078F021884310307A
:10133000A0706069002802D0204661698847208833
:10134000FF212D31884204DA002020800220E07045
:1013500001E00020E07016E06089218988420FDBFF
:101360006089E18888420BDCA078F02188437030E6
:10137000A070E06A002805D02046E16A884701E0B5
:101380000020E07000BF00BF70BD0000FAFF000049
:10139000B80B0000F8B504460D4616461F46382126
:1013A0002046FEF73FFFA078F0218843A030A070D0
:1013B000E560E068804760812681E780F8BD000035
:1013C00001460948026805E08A4202D10020C04374
:1013D0007047526B002AF7D10348006848630248FF
:1013E00001600020F4E700004004002010B505482B
:1013F000046803E02046FFF7B9FE646B002CF9D1C6
:1014000010BD00004004002008B50120000504F0D4
:1014100061F8002828D00120000504F055F81020BC
:1014200000F0A2FC01281FD10020264908600022FC
:101430000B21254804F05DFA0121C90268460180AC
:10144000032181701021C17069461F4804F0E2F940
:101450000121C9021C4804F079FA1C480078402197
:1014600088434030194908700120C00404F032F864
:10147000002826D00120C00404F026F80C2000F03B
:1014800073FC01281DD100201149086007220121A9
:101490000D4804F02EFA0221684601800321817074
:1014A0001021C1706946084804F0B4F902210648C9
:1014B00004F04CFA0748007804218843001D0549D0
:1014C000087008BD40000040000400484C0A00209D
:1014D00040040040340A002010B50246002A01D121
:1014E000104812E0042A02D10E48001D0DE0082A1F
:1014F00002D10C480C3008E00C2A02D10948083807
:1015000003E0102A01D10748001F002904D0036816
:1015100001242343036003E003685B085B0003606E
:1015200010BD0000083C01400021024A82181160F1
:1015300070470000003C014010B501460020002922
:1015400001D10F4A12E0042902D10D4A121D0DE00B
:10155000082902D10A4A0C3208E00C2902D1084AB3
:10156000083A03E0102901D1054A121F136801242B
:10157000A4072340002B01D0204600E0002010BD2E
:10158000083C014030B502460023002A01D1224820
:1015900012E0042A02D12048001D0DE0082A02D1E1
:1015A0001D480C3008E00C2A02D11B48083803E023
:1015B000102A01D11848001F0C2A0ED0102A0CD076
:1015C0000368164C2340CD688C682C430D692C436E
:1015D0004D692C43234303601CE00C68302C07D179
:1015E0000D4C083CA46910252C430B4D083DAC6103
:1015F00003680A4C23404D680C682C438D682C43CB
:10160000CD682C438D692C430D692C434D692C43C7
:101610002343036030BD0000083C01400240E03F2E
:101620004A8BE123DB009A4209DA4278002A03DD83
:101630004278521E42700CE00022027009E04278AB
:10164000521CD2B24270142A03DD142242700122CD
:1016500002707047F0B585B005460E4614461F4629
:10166000B878022802D10520208301E00A202083D7
:101670007078C006C00F002804D020784007C00F43
:10168000002831D1012003F0D7FF288B8E498842F2
:101690000CDAA08A642802DAA088401CA080E08AC4
:1016A00000280FDDE088401EE0800BE0E08A64281F
:1016B00002DAE08A401CE082A08A002802DDA08ACB
:1016C000401EA082707820218843707000206070D6
:1016D00020826082A080E08020816081A0812078CB
:1016E000400840002070EDE070788006C00F0028B0
:1016F00010D1012003F0A0FFA08AE18A884203DD17
:10170000E1200001608501E0288B60850020A08237
:10171000E082D2E0608DFEF784FE6C4A6C4B019152
:101720000090FEF781FE03910290FEF72DFE2084CB
:10173000608DFEF776FE674A674B01910090FEF7D9
:1017400073FE03910290FEF71FFEA083208CA085FC
:10175000608DFEF766FE5F4A604B01910090FEF7D8
:1017600063FE03910290FEF70FFE6084608D5C497A
:10177000884203DA608DC830A08402E05848C8303F
:10178000A084608DC82803DD608DC838E08401E046
:101790000020E084288B218C884225DD0020608297
:1017A0002089401C80B22081218B884218DD60781E
:1017B000002811DD208A401C80B220827D21090191
:1017C00088420BDD002060702082207840084000B5
:1017D00020700020608101E000206070208B20815B
:1017E0000020E080A08028E0288B618C884210DDFA
:1017F00000202082E088401C80B2E080218B88425B
:1018000003DD01206070208BE08000202081A0801B
:1018100013E0002020826082A088401C80B2A0805B
:10182000218B884206DD6078042801D00220607098
:10183000208BA08000202081E0802078C007C00F8E
:10184000002824D1288B1921490188421DDA60899A
:10185000401C608160892349884209DD0220607054
:10186000207840084000401C2070002060810EE07D
:101870006089401C80B260811B49884202DD0420DF
:10188000607004E00220607001E000206081288B1D
:10189000A18C88420FDA288BE18C88420BDDA0896D
:1018A000401C80B2A0811149884206DD288B6085EA
:1018B0000846A08101E00020A081707820218843A3
:1018C0002030707005B0F0BD480D0000F6285C8F28
:1018D000C2F5E83F9A9999999999E93F9999D93F21
:1018E000370F0000E02E000088130000B80B000046
:1018F0000B789B07DB0F002B02D11423CB7001E088
:101900003223CB70C3795B1CDBB2C371052B10DDB6
:101910000378DB07DB0F002B04DD03785B085B003B
:10192000037004E003785B085B005B1C037000231A
:10193000C371704770B504460D4616462078C0073F
:10194000C00F002858D1207A401CC0B22072022853
:1019500012DD207A052806DA002003F08FFE012030
:1019600003F09EFE4FE0002003F088FE002003F00D
:1019700097FE0620207246E0012003F07FFE002043
:1019800003F08EFE207A01283DDD3089F082308917
:1019900019214901884215DA607A401CC0B2607290
:1019A000E97888420BDD28788007C00F002802D034
:1019B0000020607201E00120E070E8786072002091
:1019C000A07220E03089104988420CDDA07A401CCA
:1019D000C0B2A072142803DD0220E070E878A07283
:1019E000002060720FE00020A0726072E078022890
:1019F00009D00020E07006E00020207203F03EFED7
:101A0000002003F04DFE70BDB80B000010B5044679
:101A100006F042FD01280DD16078401CC0B2607014
:101A2000142812DD14206070207840084000401C0B
:101A300020700AE06078002803DD60784010607054
:101A400003E0207840084000207010BD0278920723
:101A5000D20F002A20D08A8B5D23DB009A420DDD55
:101A60004279D22A07DA4279521C42714279C82A55
:101A700001D102224270002282710FE000224271E5
:101A80008279D22A0ADA8279521C82718279C82A32
:101A900004D10122427001E00022427170470178B6
:101AA00049084900017001780222914301700178D0
:101AB000042291430170017808229143017001785A
:101AC0001022914301700178202291430170017826
:101AD0004022914301700178802291430170417846
:101AE0004908490041704178022291434170417890
:101AF000042291434170417808229143417041781A
:101B000010229143417041782022914341704178E5
:101B10004022914341704178802291434170817805
:101B2000490849008170817802229143817081784F
:101B300004229143817081780822914381708178D9
:101B400010229143817081782022914381708178A5
:101B50004022914381708178802291438170C178C5
:101B600049084900C170C17802229143C170C1780F
:101B700004229143C170C17808229143C170C17899
:101B800010229143C170C17820229143C170C17865
:101B900040229143C170C17880229143C170017984
:101BA00049084900017101790222914301710179CB
:101BB0000422914301710179082291430171017955
:101BC0001022914301710179202291430171017921
:101BD0004022914301710179802291430171417941
:101BE000490849004171417902229143417141798B
:101BF0000422914341714179082291434171417915
:101C000010229143417141792022914341714179E0
:101C10004022914341714179802291434171817900
:101C2000490849008171817902229143817181794A
:101C300004229143817181790822914381718179D4
:101C400010229143817181792022914381718179A0
:101C50004022914381718179802291438171C179C0
:101C600049084900C171C17902229143C171C1790A
:101C700004229143C171C17908229143C171C17994
:101C800010229143C171C17920229143C1717047E3
:101C900000B589B00121480406F07EF901218804CD
:101CA00006F07AF9402168460184002108A8C17035
:101CB0000321817008A90920C00603F0ABFD0421AF
:101CC00068460184002108A8C1700321817008A919
:101CD000244803F09FFD0121C80306F07DF90C2084
:101CE000FFF722FC30200190FF20013002900020FD
:101CF0000390049001204004059008200690C00342
:101D0000079001A90C20FFF73DFC1020FFF70CFC09
:101D10003020019080200290002003900490012048
:101D20004004059008200690C003079001A91020E8
:101D3000FFF728FC0821202006F002FF0120000503
:101D400003F0C2FB0120C00403F0BEFB03F094FBD0
:101D500001210C20FFF7C0FB01211020FFF7BCFB85
:101D600009B000BD0004004870B5044602252046B5
:101D7000FFF7E2FB002801D1002500E001252846FD
:101D800070BD000010B53E4800784007C00F002825
:101D90002FD03C48C079030008F0B0F805041E219C
:101DA000272829003848FFF731FE3849384807F01E
:101DB00027FB384B364A3849384807F037FC384853
:101DC00007F0FAFB3749384800F0E1F9314A374962
:101DD000374800F0C9FB0BE003F0CAF908E02B4AD2
:101DE00034492D48FFF784FD02E001E000E000BF28
:101DF0003BE02448C079030008F080F805040C118A
:101E00002A3435002048FFF701FE20492A48FFF711
:101E100007FC29E001F058FF03F0AAF924E003F0E1
:101E2000B3FB2049204800F0B2F91849184800F0E7
:101E300045F81B4800F04EF9164B154A164917484D
:101E400000F0C0F9134A1949194800F0DDFA0BE017
:101E50000E4A18491048FFF74BFD0C490E48FFF792
:101E6000F5FD01E000E000BF00BF0648C079401C5E
:101E7000C0B20449C871042801DD0020C87110BD3A
:101E8000AC080020A40B00205C040020BA0B00204A
:101E90004C0A0020840B0020620B0020340A002032
:101EA00062040020240B0020600400206A0400204B
:101EB000780A0020340B00205E04002038B5044668
:101EC0000D462078C007C00F002871D0207840064A
:101ED000C00F00286CD120788006C00F0028F9D1EF
:101EE00020780007C00F0028F4D12078C006C00F6A
:101EF0000028EFD1FF219131206A884207D2206A61
:101F0000642804D9698A606A401860621CE0FF2175
:101F10009131206A884217D1E88BFF222D3250433D
:101F2000616A81420ED220788007C00F002809D153
:101F300020784007C00F002804D120782021884352
:101F40002030207000206062688A298C884237DD4A
:101F5000E088401C80B2E080C82806DD0020E080D8
:101F600020780821884308302070688A698C88426C
:101F700022DD2089401C80B22081322806DD00202D
:101F8000208120780821884308302070688AA98C35
:101F900088420EDD6089401C80B26081052818DD12
:101FA000002060812078082188430830207010E0EC
:101FB0002BE0002060810CE000202081608108E09F
:101FC000E088002802DDE088401EE08000202081BB
:101FD0006081206932306169884203D220693230E1
:101FE000206109E061692069884203D22069401CB0
:101FF000206101E060692061FF21F531206A88429B
:1020000009D2206A401C206205E000206062206244
:10201000E080A08020612920005D401CC1B2292001
:102020000155C82906DD0021282001552A20015527
:102030002920015520784006C00F002834D02820E0
:10204000005D401CC1B2282001550A292FDD2078EF
:102050004021884320700021282001550121C90218
:10206000684601801821C1700121817069461748B6
:1020700003F0D0FB0121C902144803F067FC0222DF
:102080000B21124803F035FC2A20005D401CC1B230
:102090002A20015505290ADD00210155207810214B
:1020A00088431030207002E00021282001554B2188
:1020B00049012069884204D3084620610449086028
:1020C00002E003492069086038BD000000040048B0
:1020D0004000004010B504462078C007C00F00281B
:1020E0004ED020788007C00F002849D020784007C4
:1020F000C00F002844D120780007C00F002806DD5B
:1021000006F006FE20780821884320703EE006F0A5
:10211000EFFD06F029F8002822D1E08800281CDD18
:10212000E088032802DD0020A08016E0E088012876
:1021300011DDA088401C80B2A08014280DDD20781D
:1021400004218843001D2070207840084000207042
:102150001420A08001E00020A0800020E08009E0A1
:10216000E088401C80B2E080FF212D31884201DDF3
:102170000846E0802078082188430830207005E078
:1021800000206080E080A08006F0B2FD10BD0278E3
:10219000D207D20F002A04D08A7A120912018A7259
:1021A0000FE002789207D20F002A05D08A7A12092E
:1021B0001201921C8A7204E08A7A12091201521CDE
:1021C0008A727047F8B504460D4616461F462078B9
:1021D0008007C00F002878D120784007C00F002862
:1021E000F9D12078C007C00F00286ED0FF219131AF
:1021F000306A884202D27888002866DD2878800715
:10220000C00F00280ED1208A401C80B220821921E4
:102210004901884206DD287802218843801C287005
:10222000002020826878022801D100206070607848
:10223000002806D001281FD0022838D003285DD1FD
:1022400051E0A07800280AD0E08840006749401893
:102250004078A060E0884000085CE0600BE0E08827
:102260004000624940184078401EA060E08840006D
:10227000085C401EE0604CE0E07800280AD0E0886E
:1022800040005B4940184078A060E0884000085C4E
:10229000E0600BE0E0884000554940184078401E5F
:1022A000A060E0884000085C401EE06031E02079DA
:1022B00000280BD0E08840004E4940184078A060CC
:1022C000E0884000085CE0600CE023E0E08840002B
:1022D000484940184078401EA060E0884000085CF3
:1022E000401EE06015E0E088400043494018407817
:1022F000A060E0884000085CE0600AE0E088400000
:102300003A4940184078A060E0884000085CE060EE
:1023100000BF11E00020A060E08840003349085C65
:10232000E060002020822078C007C00F002803D181
:102330002878022188432870E07C401CC0B2E074F9
:10234000C82803DD0020A0742075E07420784007C1
:10235000C00F00282DD0A07C401CC0B2A0740A2859
:1023600029DD20780421884320700020A0740221F8
:10237000684601801821C1700121817069461F489B
:1023800003F048FA02211D4803F0E0FA0122114649
:102390001A4803F0AEFA207D401CC0B22075052813
:1023A00009DD00202075207802218843801C2070E0
:1023B00001E00020A074E068052804D27D2000011F
:1023C0000F49C86205E00F48E168FDF72DFF0C4991
:1023D000C8620B4AA168D26A514308466421FDF7DE
:1023E00023FF80B2064940310860F8BD28AB0008E1
:1023F0004EAB000874AB00089AAB0008000400481C
:10240000000400401027000070B504460D46164633
:102410002078C007C00F002873D020788007C00F35
:1024200000286ED1012003F04DF90A20E0802089B8
:10243000002809DD2089401E2081002006F08AFC4A
:10244000002006F097FC1CE060884549884206DCC5
:10245000012006F07FFC002006F08CFC11E0608873
:102460003F49891C884206DC002006F073FC0020EE
:1024700006F080FC05E0002006F06CFC012006F070
:1024800079FC06F01BF8002811D16078401CC0B21E
:102490006070642811DD207802218843801C207040
:1024A00020784008400020706420607005E060786B
:1024B000002802DD6078401060706088401C80B2A7
:1024C0006080284988420ADD002060802078082149
:1024D00088430830207020784008400020706088D1
:1024E00064280FD17079052805D0A8790421884384
:1024F000001DA8711BE0A87902218843801CA871E7
:1025000015E019E0608816495039884205D1A8794C
:10251000082188430830A87109E0608811496439AE
:10252000884204D1A879102188431030A8716088AE
:102530000C49081AA08012E00A202081002006F031
:1025400009FC002006F016FCE088002805DDE08884
:10255000401EE080002003F0B5F80020607070BDE0
:10256000DC050000B80B000070B504460D461646A9
:102570002078C007C00F002855D020788007C00FF2
:10258000002850D1012003F09DF80A20E080208926
:10259000002809DD2089401E2081002006F0DAFB9A
:1025A000002006F0E7FB19E06088642806DC0120C3
:1025B00006F0D0FB002006F0DDFB0FE06088662807
:1025C00006DC002006F0C6FB002006F0D3FB05E089
:1025D000002006F0BFFB012006F0CCFB05F06EFFEB
:1025E000002811D16078401CC0B26070642811DDF1
:1025F000207802218843801C207020784008400009
:1026000020706420607005E06078002802DD60784A
:10261000401060706088401C80B26080DC2815DD4E
:102620000020608012E00A202081002006F092FB4A
:10263000002006F09FFBE088002805DDE088401EB2
:10264000E080002003F03EF80020607070BD0000C4
:10265000014948607047000000000240002904D092
:10266000026801231A43026003E002685208520024
:10267000026070470168490849000160002101605B
:1026800041608160C1602149884208D11F490839F1
:1026900049680F2211431D4A083A516035E01B4931
:1026A0001431884208D1194908394968F022114388
:1026B000164A083A516028E014492831884209D165
:1026C0001249083949680F22120211430F4A083A89
:1026D00051601AE00D493C31884209D10B49083953
:1026E00049680F2212031143084A083A51600CE06E
:1026F00006495031884208D10449083949680F22F7
:1027000012041143014A083A516070470800024020
:1027100010B5002202680D4B1A400C6A8B682343E7
:102720000C6923434C6923438C692343CC692343BD
:102730004C6A23438C6A23431A430260CB6843608C
:102740000B6883604B68C36010BD00000F80FFFF03
:1027500010B5FD48007804218843001DFA4908702F
:10276000FA48007804218843001DF849087008469B
:10277000007802218843F549087000204883F44915
:1027800048800846007802218843F1490870F148E2
:102790004078012873D1F0480078C007C00F0028A6
:1027A000F8D1ED4800780007C00F0028F2D1EA48C0
:1027B00000788007C00F0028ECD1E8484078012855
:1027C000E8D1E5480078C006C00F0028E2D1E14911
:1027D0004862886008464068E149884204D2DD4882
:1027E0004068401CDB494860DA48007F030007F07E
:1027F00085FB0A0660BAF5F3F2F1F0EFEEED012089
:10280000D4498870D74800780007C00F002814D03A
:102810000846807F002806DD084680694860084633
:10282000807F087704E00020CA49486001200877CB
:102830000020C8494861487737E0C6484068CA491F
:1028400088421DD20020C9494870C94806F016FACE
:10285000BD4806F039FAC54806F0A9FAC54806F0A1
:102860006DFAC04806F09DFABE484088B9494968EB
:1028700088421AD0B7488088BA49488015E03DE3BD
:10288000B448807F002807DDB2488069B1494860BC
:102890000846807F087704E00020AE4948600120A8
:1028A00008770020AB49486148770020AA49487062
:1028B00023E3A84840687D210901884244D2A54805
:1028C00040680A282DD1A34800784007C00F00288F
:1028D0000CD1A04800780821884308309D49087031
:1028E00008460078102188439A490870A248007869
:1028F0008007C00F002807D1A04880788021884336
:1029000080309E49887005E09B480078022188430A
:10291000994908709948C07840084000401C974980
:10292000C870032091494870914806F0A7F986487D
:1029300006F0C0F98D4806F03FFA8E4806F0FEF921
:10294000884806F029FA04E0002082494860022005
:102950000877804840688A49081A7E490861002043
:102960007D494870C9E27B4840687D210901884261
:102970001DD278484068012806D18048C0780221DD
:102980008843801C7D49C870002078494870784889
:1029900006F066F96C4806F08DF9744806F007FAFF
:1029A000744806F0CBF96F4806F0F6F904E0002011
:1029B0006849486003200877664840687149081AEA
:1029C0006449086100206449487096E294E23DE25F
:1029D000E6E15AE116E194E04CE0FFE75D4840682B
:1029E000FF21F53188421DD25A4840680A2806D195
:1029F0006248C07804218843001D6049C8700020E7
:102A00005A4948705A4806F039F94F4806F052F9C9
:102A1000564806F0D1F9574806F090F9514806F0AB
:102A2000BBF91DE04B4840687D210901884212D264
:102A300003204E4948704E4806F020F9424806F0FF
:102A400039F94A4806F0B8F94A4806F077F9454896
:102A500006F0A2F904E000203E494860052008770E
:102A60003C4840684849081A3A49086100203A49F8
:102A7000487042E2374840687D21890188421DD272
:102A8000344840680A2806D13C48C0780821884369
:102A900008303A49C870002034494870084606F0AA
:102AA00086F9334806F0DCF8274806F003F9314888
:102AB00006F044F92B4806F06FF917E02F48C0786C
:102AC0001021884310302D49C8700020214988709A
:102AD0000620087700204860886122480078082195
:102AE00088432049087000201A49887719484068AF
:102AF0007D218901081A174908610020164948708C
:102B0000FBE114484068184988423FD211484068A8
:102B10000A2806D11948C078082188430830174987
:102B2000C870002011494870084606F040F9104866
:102B300006F096F8044806F0BDF80E4806F0FEF8D8
:102B4000084806F029F952E04C0A0020340B002016
:102B5000840B0020CC0A00206E0B0020620B0020AA
:102B600090230B00780A0020B80B0000340A0020E4
:102B70006004002062040020C00A00206A040020D3
:102B8000B0360000E02E000010270000FE4840682C
:102B90007D218901884212D20020FC4948700846F4
:102BA00006F005F9FA4806F05BF8FA4806F082F8F4
:102BB000F94806F0C3F8F94806F0EEF817E0F848CF
:102BC000C078102188431030F549C8700020EE49C4
:102BD000887006200877002048608861EF480078F8
:102BE00008218843ED4908700020E7498877E648C6
:102BF00040687D218901081AE34908610020E949FC
:102C000048707AE10020E1494870084606F0CFF8A4
:102C1000DF4806F033F8DF4806F056F8DE4806F0E5
:102C20008DF8DE4806F0B8F8F020DE494870D64846
:102C300040684B21C90088420ED2D3484068C8285A
:102C40001FD1D748C078402188434030D449C8704C
:102C50000220D549887614E0D448007C0F280BDA8E
:102C6000C948C07804218843001DC749C87009209D
:102C70000877FA20486004E00720C349087700205D
:102C800048600020C049086137E1BF48C07880072C
:102C9000C00F002840D1BC484068C549884227D2AF
:102CA000B94840680A2806D1BD4880792021884368
:102CB0002030BB498871B4484068FF212D318842DB
:102CC00003D20020B349488002E00120B149488086
:102CD000B04806F002F8B04806F035F8AC4805F008
:102CE000CDFFAA4806F063F8AC4806F055F804E0BA
:102CF0000820A549087700204860A3484068AC49EF
:102D0000884205D2A0484068081A9F49086143E0FC
:102D100000209D4908613FE09B484068A5498842E2
:102D200027D2994840680A2806D19D4880792021F9
:102D3000884320309A49887193484068FF212D319B
:102D4000884203D200209349488002E00120914943
:102D50004880904805F0C1FF8F4805F0F4FF8C488B
:102D600005F08CFF894806F022F88C4806F014F82C
:102D700004E00820844908770020486082484068C1
:102D80008C49884205D280484068081A7E4908610B
:102D900002E000207C490861002082494870ACE0D4
:102DA0007B4805F06BFF7B4805F08EFF774805F008
:102DB000FEFF794805F0C2FF784805F0EDFF724844
:102DC000407F002815DD7048407F0B2803D100208C
:102DD0006D49087703E06C48407F6B4908776A4883
:102DE000007802218843801C6749087003204870DE
:102DF00018E00020644948600877022048700846BF
:102E0000007808218843604908700846007810213E
:102E1000884310305C4908700846007802218843D6
:102E200059490870002059494870574800780821CE
:102E300088435549087008460078102188431030AF
:102E40005149087004205C49487156E000205549FA
:102E500048704D484068FA280CD200204B49487011
:102E6000084605F0A4FF4A4805F0FAFE494805F077
:102E700021FF3AE04448407F002803D14248807F48
:102E8000002809D04048007802218843801C3E4930
:102E900008700320487018E000203B49486008771C
:102EA0000220487008460078082188433649087097
:102EB00008460078102188431030334908700846CE
:102EC000007802218843304908702F480078042197
:102ED00088432D490870042037494871304880786C
:102EE0001021884310302E4988702B4805F026FFAA
:102EF0002A4805F051FF00E000BFD5E029480078DE
:102F0000C007C00F002805D126480078C006C00FB2
:102F1000002821D000201C4948620220487000206F
:102F200048600877084600780821884316490870E9
:102F3000084600781021884310301349087008466D
:102F4000007802218843104908700846007804215F
:102F500088430D49087095E00B48407803285ED1FE
:102F60000948406A401C084948621449884255D9BA
:102F70000420114948710A48FEF791FD08488078FD
:102F80001021884310301BE0CC0A0020340A0020B6
:102F9000600400204C0A002062040020780A00200F
:102FA0006A0400206E0B0020F40A0020060C0020AA
:102FB00080FC0A00407E0500840B00203075000074
:102FC0003A49887000203A49486208844860087786
:102FD00048614877886188773648007808218843B7
:102FE00034490870022032494870084600780821A8
:102FF00088432F4908700846007810218843103014
:103000002B49087008460078022188432849087037
:1030100008460078042188432549087032E0244896
:10302000407801282ED004202349487100202049EF
:1030300048620884486008774861487788618877E3
:103040001C480078082188431A4908700220184952
:1030500048700846007808218843154908700846DA
:103060000078102188431030114908700846007814
:10307000022188430E4908700846007804218843DD
:103080000B49087000200D4948700D4805F0F6FD09
:103090000C4805F019FE094805F089FE0A4805F0BC
:1030A0004DFE044805F078FE10BD00006A040020C3
:1030B000CC0A0020780A0020840B0020340A00206B
:1030C000600400204C0A00206204002070B5054610
:1030D0000C4620788007C00F002819D1A069A842AB
:1030E00003D34B204001606108E04B225201A169EB
:1030F000514308462946FDF797F86061608800282B
:1031000033D11A49606988422FD2084660612CE0A9
:10311000608801280CD11648854203D84B20400115
:10312000606122E029461348FDF77EF860611CE0EB
:10313000608802280CD11048854203D84B204001FA
:10314000606112E029460D48FDF76EF860610CE001
:103150007D204001854203D84B204001606104E09E
:1031600029460748FDF760F8606170BD140500004E
:10317000B80B000000DD6D00AC0D0000802C80005D
:10318000007C920010B55C480078042188435A49BD
:1031900008700846007802218843574908700020CB
:1031A0004883564948705649488008460078C0060A
:1031B000C00F00280BD008460078082188435049EA
:1031C000087008460078102188434D490870002097
:1031D0004C4948804C4948624C4805F04FFD4C48EA
:1031E00005F072FD4B4805F0E2FD4B4805F0A6FDE9
:1031F000434805F0D1FD44484078032834D1424883
:10320000008C401C80B240490884444988422EDD2D
:1032100000203D4908844860087748614877886104
:10322000887737480078082188433549087002209C
:1032300035494870084600780821884332490870AB
:10324000084600781021884310302F49087008463E
:103250000078022188432C49087008460078042130
:1032600088432949087002E000202749088426483D
:1032700000788007C00F002805D123480078400758
:10328000C00F002806D020484078012802D1052030
:103290001C4948711C48C0784007C00F002829D03D
:1032A0001F48007C0F2825DB052016494871164869
:1032B000007802218843801C13490870012048705F
:1032C00000204860072008770846C078022188431C
:1032D0000D49C8701348007840084000401C11494F
:1032E00008700020104988830748C078042188436B
:1032F0000549C87010BD0000340B00206E0B002083
:10330000780A0020840B0020CC0A002060040020F2
:103310004C0A0020340A00206204002030750000AE
:10332000060C0020C00A0020840A002010B57B484B
:10333000007808218843794908707948007802218B
:103340008843774908700020488376494870764959
:10335000488008460078C006C00F00280BD00846F9
:1033600000780821884370490870084600781021C9
:1033700088436D4908706D48C06800280AD0002055
:103380006A49C86008468068022803D208468068F7
:10339000401C88606548C078042188436349C87030
:1033A0000020486048618861487788775E480078E7
:1033B000082188435C49087000205C490877022096
:1033C0004870084600780821884358490870084624
:1033D000007810218843103054490870084600785E
:1033E0000221884351490870084600780421884327
:1033F0004E490870494800788007C00F00286AD0FD
:1034000048480078C007C00F002811D1454800780F
:103410000007C00F00280BD1424800788007C00F7A
:10342000002805D13F480078C006C00F002806D00C
:103430003A48007802218843384908706CE03748E0
:103440004088FF212D3188422EDA3948007C00283F
:103450002ADD3748807C0A2826D036480078C00705
:10346000C00F002820D12D484088401C2B4948809F
:10347000304805F0F5FB30480078C007C00F002841
:1034800008D02D48006AFF219131884202D22B4892
:1034900005F08DFC284805F017FC294805F04EFC86
:1034A000214805F079FC37E0264880784008400044
:1034B000401C244988701A48007804218843184920
:1034C000087000201549488008460078022188438A
:1034D0001249087020E012480078042188431049FE
:1034E00008700020154948700F480078082188436B
:1034F0000D4908700020094948800E4805F0BEFBC0
:103500000D4805F0E1FB0D4805F051FC0C4805F0B5
:1035100015FC054805F040FC10BD0000840B0020A0
:10352000340B00206E0B0020780A0020CC0A00200B
:10353000060C0020600400204C0A0020340A002001
:10354000620400206A04002010B5F248007D0128C2
:1035500001D107F0FFF8F048407905287ED1ED4809
:10356000007D01287BD1ED48008800284AD1012048
:10357000EA490880EA480078C007C00F00286FD1E8
:10358000E7480078C006C00F0028F8D1E44800786A
:103590000007C00F0028F2D1E248407E0128EED19A
:1035A000E148007F00282ED1DE48807E01282AD104
:1035B000DD48C07802218843DB49C8700B2048777A
:1035C0000846406848610020486009200877D748CD
:1035D000007802218843801CD4490870D448FEF743
:1035E0005EFAD3484079202188432030D049487181
:1035F000CE48007840084000401CCC4908700020AC
:10360000CC498883B8E0C848007F062833DAC5482B
:10361000807E01282FD1C448007FC349887708469F
:10362000406888610846C07802218843BE49C87056
:103630000846007802218843BB4908700020486092
:1036400009200877BA48FEF72AFAB94840792021BC
:1036500088432030B6494871B44802E0CEE088E0A3
:1036600074E0007840084000401CB0490870002019
:10367000B049888380E0AC48007F072824D1AA485D
:10368000C07802218843A849C87008460078022102
:103690008843A5490870FA20486009200877A448A3
:1036A000FEF7FDF9A2488079402188434030A049C7
:1036B00088719E48007840084000401C9B49087073
:1036C00000209C49888357E09648807E012812D0CC
:1036D0009748FEF7E4F99648C078202188432030C7
:1036E0009349C8709048406A9349884244D208463A
:1036F0008D49486240E08C48C078022188438A495D
:10370000C8708E480078082188438C4908700020D2
:1037100085498877487748618861FA2048600920A0
:1037200008778348FEF7BBF98148C0782021884399
:1037300020307F49C8707D48007840084000401C18
:103740007A49087000207B49888315E07848FEF7A5
:10375000A6F97748C0782021884320307449C87082
:103760007148406A7449884206D208466E494862E8
:1037700002E00020694908806648C07B022805D025
:103780006F480078C007C00F002816D16248008932
:10379000401C80B260490881142804DD0220487171
:1037A0000871002008816748007802218843654934
:1037B000087000205849C8811CE000205649088143
:1037C000604800788007C00F002810D10846C089E3
:1037D000401C80B2C881282809DD5A48007802219F
:1037E0008843801C5749087000204B49C881052038
:1037F0004949087100204849888181E04548007D99
:1038000001280AD145480088002809D101204349F0
:10381000088000204049886102E000203F4908807C
:103820003D480078C007C00F002817D03A484079BB
:10383000032803D03848407901280FD13548C07B90
:10384000022805D134480078400840003249087009
:103850000220314908710020888151E02E4800780B
:10386000400840002C4908702A48C07B052803D036
:1038700008460079052811D131480078C007C00FEB
:10388000002803D004202449087103E002202249C3
:103890000871487100202049888131E01D48C07BB3
:1038A00004280BD126480078C007C00F002805D097
:1038B0000420194908710020888121E01548C07B47
:1038C000022806D01348C07B134908710020888164
:1038D00016E01148007904280DD10F488089401C5A
:1038E00080B20D49888114280ADD002088810220D9
:1038F0000871487104E0002007498881022008719E
:103900000448407D00020349897D40180E49088122
:1039100010BD0000060C0020840B00207A0400205B
:103920006E0B0020F40A0020CC0A0020C00A002000
:103930006A040020840A002026750000780A00200E
:103940005E04002062040020B00B00205B48007879
:103950004007C00F002810D15948C07FF02188438C
:103960005749C8770846C07F00090001401CC87746
:1039700000205249886048709EE0032050494877F3
:103980002120887708462030007801280CD14D4846
:10399000007A401CC0B24B490872642807DD02213E
:1039A00047482030017002E000204649087246482E
:1039B000408BFF210902084001124148203041702C
:1039C0004148817E3E48203081703F488088FF21F9
:1039D0000902084001123A482030C1703A48017982
:1039E0003748203001713848408AFF2109020840D9
:1039F00001123348203041713348817C30482030F7
:103A0000817131480088FF210902084001122C48C9
:103A10002030C1712C4801782948203001722A4891
:103A2000808BFF2109020840011225482030417295
:103A30002548017F2248203081722348C08AFF2117
:103A40000902084001121E482030C1721E48817DC3
:103A50001B48203001731C48008BFF2109020840DD
:103A600001121748203041731748017E1448203056
:103A700081731648C17B12482030C1731348017C02
:103A80000F48203001741148417C0D4820304174AA
:103A90000F480078C007C00F002804D00221084852
:103AA0002030817403E00121054820308174002119
:103AB00003482030C174017570470000AC08002035
:103AC000BC080020C00A0020BA0B00201F0C0020F8
:103AD0005C04002010B56E48C078042188436C490E
:103AE000C870002048604861886148778877087707
:103AF000022048700846007808218843644908700D
:103B00000846007810218843103061490870084643
:103B10000078022188435E49087008460078042135
:103B200088435B4908705B48007802218843594903
:103B300008700020488308460078042188435549CE
:103B4000087000205449487054480078C007C00FDE
:103B500000287DD008460078C007C00F002811D18A
:103B6000084600780007C00F00280BD108460078EF
:103B70008007C00F002805D108460078C006C00F96
:103B800000280FD0464805F079F8464805F09CF823
:103B9000454805F00CF9454805F0D0F8444805F0D3
:103BA000FBF871E043488078012833D14248007C1B
:103BB00000282FDD4048807C0A282BD03C48007824
:103BC0000007C00F00280FD0354805F057F83548DA
:103BD00005F07AF8344805F0EAF8344805F0AEF814
:103BE000334805F0D9F84FE02D4805F047F82D4847
:103BF00005F06AF82C4805F0DAF82C4805F09EF834
:103C00002B480078C007C00F00283DD1284805F098
:103C1000C8F839E026480078C006C00F00280BD04D
:103C20002348007808218843214908700846007815
:103C3000102188431E4908701F48007C002808DDB9
:103C40001D48807C0A2804D0154805F017F803E0C9
:103C50000FE0134805F012F8124805F035F8124845
:103C600005F0A5F8114805F069F8114805F094F839
:103C70000AE00120114948761149487000200649A0
:103C8000C87101200F49487100200749487010BDD4
:103C9000CC0A0020340B00206E0B00205C040020B6
:103CA000600400204C0A0020340A00206204002036
:103CB000780A0020C00A0020060C0020F40A002028
:103CC000620B0020840B002010B574484078C006B9
:103CD000C00F002871D07248007971494979884233
:103CE0006CD06F480079012808D16D4840790328CD
:103CF00004D100206A4988710882A0E06848807970
:103D0000401CC0B2664988710228F6DD0020488256
:103D100008460079012825D108460078C007C00F61
:103D200000281BD15F48007840084000401C5D49D6
:103D3000087000205C4988835A498870C8700B203D
:103D40005749488259480078C007C00F002802D15F
:103D50000120487102E00320514948710020504978
:103D6000088264E04E480079022828D14C48407906
:103D700004281CD04E480078C007C00F002809D185
:103D80004C48FDF78CFE4B484078802188438030BA
:103D900048494870002043498870C8700846007838
:103DA00040084000401C087000203F4988830220E2
:103DB0003B4948710020088239E06DE03BE038481B
:103DC0000079042833D13A480078C007C00F002892
:103DD0002DD033484079052829D03148008A401C2D
:103DE00080B22F4908820A2821DD3248FDF757FEAC
:103DF000304880781021884310302E4988702E4832
:103E00000078C007C00F00280CD12C48008B2A492D
:103E1000898B884206DA2748C07940084000401C58
:103E20002449C87104201E494871002008820020DE
:103E30001B49887103E000201949088288711848DD
:103E4000408A00280FDD1648408A401E14494882E7
:103E50000846408A0A2806D116484078102188432F
:103E6000103014494870164800788006C00F0028AA
:103E70000FD10B4800791349C97B884205D01048FF
:103E8000008A401C0E49088206E000200C49088286
:103E900002E000200A49088210BD0000A40B0020A7
:103EA000840B0020C00A0020840A00205C0400204B
:103EB0005E0400206A040020340B0020BA0B0020AE
:103EC0006E0B0020060C002010B50020FD49487044
:103ED000FD48007804218843FB490870FB48C078FE
:103EE00004218843F949C8700220487000204877AF
:103EF0004861887788610877486008460078022121
:103F00008843F24908700846007804218843EF4945
:103F10000870EF480078C007C00F002872D1E94848
:103F20000078C007C00F002811D1E64800780007CC
:103F3000C00F00280BD1E34800788007C00F00288D
:103F400005D1E0480078C006C00F002817D0E1482E
:103F5000007802218843DF49087000204883DE484A
:103F600004F08CFED84804F0AFFEDC4804F01FFFDC
:103F7000DB4804F0E3FEDB4804F00EFF5CE2DA48C5
:103F8000007C0028FADDD848807C0A28F6D0D74883
:103F9000807800287ED1D64800788007C00F00289E
:103FA00009D1CE48008AFF21F531884203DA032087
:103FB000CA49487040E0C7484078002812D1C74835
:103FC000407800280AD0C5488078002803D0002017
:103FD000C249887002E00120C04988700020BF49B2
:103FE000487029E0BB484078012813D1BB4840788D
:103FF00001280BD0B948C078002804D00020B74968
:10400000C87003E09FE10120B449C8700120B349A2
:10401000487011E0B148407802280AD0AF480079D2
:10402000002803D00020AD49087102E00120AB490F
:1040300008710220A9494870A74804F011FEA2485F
:1040400004F038FEA54804F0B7FEA54804F076FE5B
:10405000A44804F0A1FEA74800780821884308304E
:10406000A44908700846007802218843801CA149B1
:1040700008709848007804218843001D954908700D
:10408000084600788007C00F002813D10846408BEF
:10409000401C00E024E080B248834B21C9008842E4
:1040A00008DD8C48007802218843801C894908700B
:1040B0000020488301208549C8608A480078C006EE
:1040C000C00F00280BD08748007808218843854915
:1040D00008700846007810218843824908702EE154
:1040E00082488078022854D100207C4948707A4860
:1040F00004F0D2FD744804F0DDFD784804F057FE6A
:10410000774804F01BFE774804F046FE79480078B3
:1041100002218843801C77490870084600780821EE
:1041200088430830734908706A480078042188433E
:10413000001D68490870084600788007C00F0028F5
:1041400011D10846408B401C80B248834B21C900E6
:10415000884208DD5F48007802218843801C5D4961
:1041600008700020488301205849C8605D480078E5
:10417000C006C00F0028B2D05A48007808218843F2
:10418000584908700846007810218843554908703E
:10419000D5E0544800780007C00F00287ED054486E
:1041A00000788007C00F002809D14C48008AFF2101
:1041B000F531884203DA0320484948703FE045481A
:1041C0004078002812D14548407800280AD043485A
:1041D0008078002803D000204049887002E0012048
:1041E0003E49887000203D49487028E039484078B1
:1041F000012812D13948407801280AD03748C078C0
:10420000002803D000203549C87002E0012033495E
:10421000C87001203149487011E0304840780228C8
:104220000AD02E480079002803D000202B490871BD
:1042300002E00120294908710220284948702648D7
:1042400004F00EFD204804F035FD244804F0B4FDD0
:10425000234804F073FD234804F09EFD1D480078B8
:1042600004218843001D1B49087008460078800718
:10427000C00F002811D10846408B401C80B24883F3
:104280004B21C900884208DD12480078022188438A
:10429000801C104908700020488300E02CE00120B9
:1042A0000A49C8601348007802218843801C1149DC
:1042B0000870084600780821884308300D490870C6
:1042C0003DE000006E0B00204C0A0020CC0A0020CC
:1042D0005C040020340B002060040020340A00201D
:1042E00062040020780A0020060C0020C00A00208A
:1042F000620B0020840B0020504800780421884382
:104300004E49087008460078022188434B490870DE
:10431000002048834A4804F0B1FC4A4804F0D4FC29
:10432000494804F044FD494804F008FD4848007835
:10433000C007C00F002802D1454804F032FD00201C
:104340004449488078E03D480078022188433B4951
:104350000870002048833F4800788007C00F00287D
:1043600065D03D480078C007C00F002811D13A48F9
:1043700000780007C00F00280BD13748007880076D
:10438000C00F002805D134480078C006C00F0028AF
:1043900006D030480078022188432E4908704BE04F
:1043A0002C484088FF212D3188422EDA2B48007C92
:1043B00000282ADD2948807C0A2826D02048007859
:1043C000C007C00F002820D122484088401C214946
:1043D00048801B4804F044FC1A480078C007C00F0E
:1043E000002808D01748006AFF219131884202D284
:1043F000154804F0DCFC134804F066FC134804F094
:104400009DFC134804F0C8FC16E00C480078042119
:1044100088430A49087000200E49488003204871EB
:1044200008460078022188430A49087004E0002009
:10443000084948800320487110BD0000340B00205B
:10444000600400204C0A0020340A0020620400208E
:10445000780A0020840B00206E0B0020060C002040
:10446000374A904202D20022CA8067E0354A904221
:1044700002D20122CA8061E0334A904202D2022273
:10448000CA805BE0314A904202D20322CA8055E0E2
:104490002F4A904202D20422CA804FE02D4A904215
:1044A00002D20522CA8049E0294A904202D206225D
:1044B000CA8043E0284A904202D20722CA803DE0E7
:1044C000264A904202D20822CA8037E0244A90420B
:1044D00002D20922CA8031E0224A904202D20A2244
:1044E000CA802BE0204A904202D20B22CA8025E0EB
:1044F0001E4A904202D20C22CA801FE01C4A9042FF
:1045000002D20D22CA8019E01A4A904202D20E222B
:10451000CA8013E0184A904202D20F22CA800DE0EE
:10452000164A904202D21022CA8007E0144A9042F2
:1045300002D21122CA8001E01222CA807047000014
:1045400074400000684200005C44000050460000D7
:1045500044480000384A0000204E0000145000007B
:1045600008520000FC530000F0550000E457000022
:10457000D8590000CC5B0000C05D0000B45F0000B3
:10458000A8610000FFB581B005460C462D4805F036
:10459000D1FAA1886854A088295C0498828803987D
:1045A0008154A0880F2802DAA088401CA0802878B7
:1045B000AC2803D00020A080287041E0A088022809
:1045C00007D1687805283BD00020A080287068704B
:1045D00036E0A088032807D1A8780A2830D0002028
:1045E000A080287068702BE0A0880F2828D10027B1
:1045F000012604E0A85DC01987B2701CC6B20D2E5A
:10460000F8D3687B0002A97B401880B20090009824
:10461000874213D1284605F0A6FA00206080207852
:1046200040084000207008480068002804D0064870
:104630000068401E0449086005F0D0FE0020A080FC
:1046400005B0F0BD0038014084040020F8B50546EF
:104650000C462A4805F06EFAE1886854E0880F2875
:1046600002DAE088401CE0802878AC2803D00020E3
:10467000E080287041E0E088022807D168780128AE
:104680003BD00020E0802870687036E0E088032886
:1046900007D1A8780A2830D00020E0802870687000
:1046A0002BE0E0880F2828D10027012604E0A85D30
:1046B000C01987B2701CC6B20D2EF8D3687B0002F9
:1046C000A97B401880B200900098874213D12846F9
:1046D00005F034FA20784008400020700020608007
:1046E00007480068002804D005480068401E0449B7
:1046F000086006F0E9F90020E080F8BD00440040C1
:1047000088040020F8B505460C46A0880A2802DA7D
:10471000A088401CA0802878AC2803D00020A0806E
:1047200028703BE0A088022807D16878072835D098
:104730000020A0802870687030E0A088032807D18E
:10474000A87805282AD00020A0802870687025E06D
:10475000A0880A2822D10027012604E0A85DC019FC
:1047600087B2701CC6B2082EF8D3287A0002697A84
:10477000401880B20090009887420DD1284605F07D
:104780000BFA207804218843001D207000206080EF
:1047900020784008400020700020A080F8BD000074
:1047A00010B5F7484078C006C00F00281FD1F54863
:1047B0000078C007C00F002808D0F348C07B042849
:1047C00004D1F2490872F249087110E0ED4800780E
:1047D000C007C00F002805D10320EC490872EC493E
:1047E000087104E00220E9490872E9490871E948C2
:1047F00000784007C00F002807D0E748807AF021F2
:1048000088431030E449887222E1E1480079E249A6
:10481000C872DB4840780007C00F0028F4D0D848A1
:10482000407808218843D6494870D94840880028F4
:1048300014DDD948807A0009012807DCD648807A3F
:10484000F02188431030D449887201E1D248807A3F
:10485000F02188432030D0498872F9E0CC480079B3
:1048600001287DD1CA48407901287AD1C8484088BA
:10487000002812DDC848807A00090028C4DDC64837
:10488000807AF0218843C449897A49090901F022D4
:1048900011400843C0498872DAE0C0488078022895
:1048A00077D1BF484078042839D0BD4840780028E7
:1048B0000BDDB948807A0009002806D1B648807A15
:1048C000F02188431030B4498872B348807A0009D7
:1048D000B349497888420DDAAF48807AF02188439D
:1048E000AD49897A09094901F02211400843AA49D2
:1048F0008872ADE0A848807A0009A94949788842C1
:10490000A3DDA548807AF0218843A349897A490923
:104910000901F022114008439F49887298E0A0489D
:10492000407800280BDD9C48807A0009002806D1D9
:104930009948807AF02188431030974988729648C8
:10494000807A0009022810DA9348807AF02188439F
:104950009149897A09094901F0221140084301E08F
:1049600064E050E08C49887272E08B48807A0009DC
:1049700002286DDD8848807AF02188438649897A4B
:1049800049090901F02211400843834988725FE018
:10499000FFE78348407800280BDD7F48807A0009D4
:1049A000002806D17C48807AF021884310307A496B
:1049B00088727948807A00097949497888420DDA05
:1049C0007548807AF02188437349897A0909490139
:1049D000F022114008437049887239E06E48807AAD
:1049E00000096F494978884232DD6B48807AF021AE
:1049F00088436949897A49090901F022114008432D
:104A00006549887224E06448807A000900281FDD27
:104A10006148807AF02188435F49897A4909090110
:104A2000F022114008435C49887211E0584800792F
:104A3000052807D15848807AF0218843203056490C
:104A4000887205E05448807AF02188435249887280
:104A50004F4800794D4908724B48007D487208461E
:104A6000807A01280BD14D48C079401CC0B24B4917
:104A7000C871642806DD02204449887202E00020E3
:104A80004649C8714548C078002807D14548407D4F
:104A9000C008C000401C4349487512E03F48C07838
:104AA000012807D13F48407DC008C000001D3D4996
:104AB000487506E03B48407DC008C000801C39496D
:104AC00048753148007C374988753248007840077E
:104AD000C00F002807D00846007E302188431030E0
:104AE00030490876D5E02A48007902285CD1284868
:104AF0000078042188432649087008464088002829
:104B00002CD1084600788007C00F002826D108461F
:104B1000808B002811DD0846808B401E8883214849
:104B2000007E3021884310301E4908760846007EFA
:104B3000C008C000401C08761DE01A48007E3021E5
:104B400088432030174908760846007EC008C00018
:104B5000801C087600200E4988830CE01148007EF6
:104B60003021884310300F4908760846007EC0087F
:104B7000C000801C087600200549886189E000009B
:104B8000A40B00205E040020060C0020190B00205E
:104B9000840B0020AC080020240B0020C00A002059
:104BA000340B0020F40A00200020E2498883E24808
:104BB000007EC008C00049794907490F0843DE4913
:104BC0000876DC48007904282AD10846807D6428CC
:104BD0001BD1D8488069401CD64988617D21C90015
:104BE00088420AD90846D3498861D348007E3021DB
:104BF00088432030D04908764BE0CF48007E3021F2
:104C000088431030CC49087643E00020C9498861C8
:104C1000C948007E302188431030C749087638E003
:104C2000C4484079032825D1C4480078C007C00F84
:104C300000281FD1BF48007804218843BD4908706F
:104C400008468069401C8861BD4988420AD90846E7
:104C5000B8498861B848007E302188432030B64981
:104C6000087616E0B448007E302188431030B249FF
:104C700008760EE0AF48007804218843AD490870FB
:104C800000208861AC48007E302188431030AA495A
:104C90000876AC480078C007C00F002807D1A648A6
:104CA000007EC02188438030A349087606E0A248F0
:104CB000007EC021884340309F4908769D48407956
:104CC000052817D1A048007F00280BDD9E48007FF3
:104CD000072807DA9848007F00090001401C964920
:104CE00008770EE09448007F00090001801C92497B
:104CF000087706E09048007F00090001801C8E497B
:104D000008778D48007F0009002813DD8F48008850
:104D1000401C80B28D490880FF21F53188420CDDAE
:104D20008548007FF0218843834908770020874920
:104D3000088002E000208549088085480078C00787
:104D4000C00F002803D18048007F072819D17A4876
:104D5000407F000900017849497FFC221140090782
:104D6000090F0843744948770846407F000900014D
:104D7000497F012211430907090F08436E4948770B
:104D800018E06D48407F000900016B49497FFC2213
:104D900011400907090F0843674948770846407FD3
:104DA00000090001497F022211430907090F084346
:104DB000614948776448C0788007C00F00280DD14A
:104DC0005D48407F000900015B49497FF3221140A3
:104DD0000907090F08435849487718E05648407FAB
:104DE000000900015449497FF32211400907090FC6
:104DF0000843514948770846407F00090001497F30
:104E0000042211430907090F08434B4948774B48CF
:104E10000078C007C00F002807D14B48007F00284A
:104E20000BD149484078012807D14348407FF02101
:104E3000884310304049487706E03F48407FF021E2
:104E4000884320303C4948773F4908696421FBF793
:104E5000EBF90004000E384988773B490869642162
:104E6000FBF7E2F93449C87700213348203001705C
:104E7000324988886421FBF7E1F90446C017000E27
:104E8000001900120002201AC1B22B4820304170D4
:104E90002D4908696421FBF7C7F90004010E264873
:104EA00020308170284908696421FBF7BDF9C1B23F
:104EB00021482030C17027484078002809D11E4879
:104EC0002030007900090001401C1B492031087185
:104ED00016E020484078012809D117482030007991
:104EE00000090001801C14492031087108E01248B3
:104EF0002030007900090001001D0F4920310871A0
:104F000014480078C007C00F002809D00A48203094
:104F10000079F0218843203007492031087108E0EA
:104F2000054820300079F0218843103002492031B3
:104F3000087110BD840B0020F40A0020780A0020BC
:104F4000701700005C040020CC0A00203E04002002
:104F500062040020340B002010B504F0E3FF05F0DC
:104F600003F9FFF71DFCFEF7F1FC724804F05AFE4E
:104F7000714804F02CFE714804F0D6FE704804F02D
:104F800070FE704801F06EFB6F480079042802D073
:104F90006E4801F051FB6E4801F07AFB6D48407895
:104FA000C006C00F00287AD06848407A401CC0B2C2
:104FB0006649487205284CDB002048720221664889
:104FC00004F042FD64484068604988720022022172
:104FD000614804F067FD00205C49887201204003AD
:104FE000FDF736FB594800788007C00F002817D11D
:104FF0000A23514A5849594801F070FA5348007839
:1050000002218843801C5149087055480068554961
:10501000884211D252480068401C514908600BE098
:105020001523464A4C494D4801F058FA4748007844
:10503000022188434549087001220221464804F0B4
:1050400013FD464801F06FFA01220221424804F0A4
:1050500029FD3C48007A401CC0B23A490872052834
:1050600066DB0020087288712020FDF7F1FA3848CD
:1050700000784007C00F002812D108232D4A3A4972
:105080003648283801F02AFA3848006835498842FD
:105090000DD236480068401C3449086007E010E033
:1050A0001D23274A30492D48283801F017FA0122DC
:1050B00002212D4804F0D8FC2848283801F033FAA2
:1050C00036E02248407A401CC0B220494872052888
:1050D0002EDB0020487202211F4804F0B5FC1E4858
:1050E00040681A498872002202211B4804F0DAFC49
:1050F00000201649887201204003FDF7A9FA152304
:105100000E4A1549154801F0E9F9104800780221C6
:1051100088430E490870012202210F4804F0A4FCC4
:105120000E4801F000FA012202210B4804F0BAFCFB
:1051300010BD0000190B0020240B0020F40A0020F1
:10514000BC080020F2080020840B0020FC0800208E
:10515000AC080020A40B00200044004044000240A2
:105160008804002060EA0000003801408404002028
:1051700010B50024A54840897D21C90088427DDB07
:10518000A34800784007C00F002878D0A148007BD2
:105190000009030004F0B2FE06FA042E5888A9FAAA
:1051A0009D4803F06BFD9D4803F08EFD9C4803F085
:1051B000FEFD9C4803F0C2FD9B4803F0EDFD02207C
:1051C0009A49C8729A48007EC008C000801C98495D
:1051D000087600208E4948709648C07FF0218843A9
:1051E00010309449C8770846C07F00090001801C30
:1051F000C877EFE0884803F041FD884803F064FD7C
:10520000874803F0D4FD874803F098FD864803F0F3
:10521000C3FD02208549C8728548007EC008C000D1
:10522000801C834908760020794948708148C07FF6
:10523000F021884320307F49C8770846C07F0009A5
:105240000001801CC877C5E003207549487072488A
:1052500003F006FD714803F02DFD714803F0ACFD2D
:10526000704803F070FD704803F09BFD01206F490A
:10527000C8726F48007EC008C00001E0C5E0AAE027
:10528000801C6B4908760020614948706948C07FDE
:10529000F021884330306749C8770846C07F00094D
:1052A0000001801CC87795E05B4803F0E7FC5B4891
:1052B00003F00AFD5A4803F07AFD5A4803F03EFD18
:1052C000594803F069FD02205849C8725848007EC9
:1052D000C008C000801D564908765648C07FF0219E
:1052E000884340305349C87774E04B4803F0C6FC0C
:1052F0004A4803F0E9FC4A4803F059FD494803F0E5
:105300001DFD494803F048FD02204849C87248483D
:10531000007EC008C000801C454908763C484078A3
:10532000002810D14448007840084000401C424901
:105330000870052405E000206100404A5052601CBE
:10534000C4B2642CF7DB32484078401CC0B230490C
:10535000487064280ADD3748C07F00090001001D3D
:105360003449C87764202A49487006E03148C07F34
:1053700000090001801C2F49C8772E48C07FF0210A
:10538000884350302B49C87724E0FFE7224803F0D8
:1053900075FC224803F098FC214803F008FD2148E1
:1053A00003F0CCFC204803F0F7FC02201F49C87230
:1053B0001F48007EC008C000801C1D4908760020E0
:1053C000134948701B48C07F00090001401C19495F
:1053D000C87700BF19E01A484079030004F08EFD39
:1053E0000613040A070D1013FEF76EFD0CE0FEF71E
:1053F00071FB09E0FDF79AFF06E0FDF7C3FE03E04D
:10540000FDF7A6F900E000BF00BF10BDA40B00200F
:10541000AC0800209C080020600400204C0A0020FA
:10542000340A002062040020780A0020240B0020A7
:10543000F40A0020BC0800209808002098040020EE
:10544000840B0020002106E0002200E0521C034BE8
:105450009A42FBD3491C8142F6D37047B80B000037
:1054600005E0044900E0491E0029FCD1401E002847
:10547000F7D17047781E00000EB50121084602F0F2
:10548000ABFD012000050190002168460172082152
:1054900041720121817201A800F030F80120C0049E
:1054A0000190002168460172082141720121817238
:1054B00001A800F023F8182168460170012141700D
:1054C000817001F037F80EBD014948617047000056
:1054D00000040140014600200022074B1B680B40DE
:1054E0001A46054B5B690B40002B03D0002A01D004
:1054F000012000E000207047000401400021214904
:105500008279002A35D00A46126803689A430B460E
:105510001A600A46526803689A430B465A60027939
:1055200051180A6803681A430A60164A92680368A9
:105530009A43144B9A601A46D26803689A43114BF7
:10554000DA604279102A0CD11A46926803681A432D
:105550000C4B9A601A46D26803681A43094BDA600A
:105560000EE00849427951180A6803681A430A6034
:1055700006E00449027951180A6803689A430A60F0
:10558000704700000004014010B52248407901280E
:105590000BD121488078022803D120482049886116
:1055A00006E01E481E49886102E01C481C498861CB
:1055B0001C4800891C49096840181B4908601B48A1
:1055C0000078401CC0B219490870082813DB00207D
:1055D000087015480068C00813490860144912484B
:1055E0000068FEF73DFF0E490F480068FDF76EFDAD
:1055F00000200D4908602B200E49C883F82008843C
:10560000FF2037304884FF20F1308884FF20373076
:10561000C88410BD840B0020C00A0020DC460000B6
:105620004C0A0020B00B00207404002078040020F5
:10563000340A0020BA0B002010B50446002C05DD0A
:1056400010210920C00600F083F904E01021092090
:10565000C00600F07BF910BD10B50446002C05DD36
:1056600001214902044800F073F904E001214902D4
:10567000014800F06BF910BD0004004810B5044665
:10568000002C05DD01218903044800F061F904E0E4
:1056900001218903014800F059F910BD00080048B4
:1056A00010B50446002C05DD0121C903044800F0B3
:1056B0004FF904E00121C903014800F047F910BD8A
:1056C0000008004810B50446002C05DD80210920A3
:1056D000C00600F03DF904E080210920C00600F07A
:1056E00035F910BD70B505460424104800F07CF86B
:1056F0000446042C18D10E480069022108430C49C5
:10570000086108464561006940210843084908616D
:10571000064800F069F80446012C05D004480069E9
:105720000449084002490861204670BDFF0F00008F
:1057300000200240FD1F000004200D49C968C90770
:10574000C90F002901D0012010E00949C9680422CD
:105750001140002901D0022008E00549C968102243
:105760001140002901D0032000E004207047000010
:105770000020024003480069802108430149086174
:10578000704700000020024070B505460E46042414
:105790000F2000F029F80446042C12D10A480069B1
:1057A00001210843084908612E800F2000F01CF8F1
:1057B0000446012C05D00448006904490840024908
:1057C0000861204670BD000000200240FE1F00005E
:1057D0000248034948600348486070472301674511
:1057E00000200240AB89EFCD70B504460425FFF7D9
:1057F000A3FF054605E004F09FFFFFF79DFF054668
:10580000641E012D01D1002CF5D1002C00D10525FD
:10581000284670BDFCB502460025002601960020F2
:10582000002300240096CE7835072D0FCE78102760
:105830003E40002E01D08E7835430E78002E27D0C2
:105840001468002021E00126864033460E881E4061
:105850000196019E9E4217D183000F269E4000961E
:105860002746009EB7433C462E469E403443CE78A2
:10587000282E03D101268640566105E0CE78482EB9
:1058800002D1012686401661401C0828DBD3146033
:105890000E88FF2E2CDD5468002026E006460836D0
:1058A0000127B7403B460E881E400196019E9E424E
:1058B0001AD183000F269E4000962746009EB743CC
:1058C0003C462E469E403443CE78282E04D10646D0
:1058D00008360127B7405761CE78482E04D10646D6
:1058E00008360127B7401761401C0828D6D35460FA
:1058F000FCBDF0B5002300244D07EE0E1546B54063
:105900002B46CD10002D0BD1056A4E07F70E0F2642
:10591000BE40B5430562056A1D432C4604620AE099
:10592000456A4E07F70E0F26BE40B5434562456AED
:105930001D432C464462F0BD0246002093680B4094
:10594000002B01D0012000E000207047416170472A
:105950000161704700F062FE08B501210F2040048C
:1059600002F01AFB9021684601800321817010210A
:10597000C17069460920C006FFF74CFF33496846ED
:105980000180032181701021C17069463048FFF702
:1059900041FF0721490368460180032181701021DE
:1059A000C17069462B48FFF735FF802168460180AA
:1059B000032181701021C17069462748FFF72AFF33
:1059C000264968460180032181704821C1706946DB
:1059D0000920C006FFF71EFF0121C90268460180A9
:1059E000032181700421C17069460920C006FFF7B8
:1059F00011FF012168460180032181704821C17097
:105A000069461348FFF706FFFF2101316846018010
:105A1000032181700421C17069460D48FFF7FAFE29
:105A2000042206210A48FFF764FF042207210848E0
:105A3000FFF75FFF0020FFF70FFE0120FFF7FCFDDF
:105A400010210348FFF784FF08BD0000D2060000C4
:105A50000004004800080048000C004862110000E3
:105A60000148024908607047CCCC0000003000407B
:105A700001460020044AD2680A40002A01D00120D1
:105A800000E000207047000000300040014802495B
:105A900008607047AAAA0000003000400149486031
:105AA00070470000003000400149886070470000E6
:105AB000003000400149086070470000003000409D
:105AC00010B5832136488171364800780421884317
:105AD000344908700846007810218843314908701D
